:020000040000fa
:080000000002040000000000f2
:020000040000fa
:04000800d60300001b
:020000040000fa
:04000c00d603000017
:020000040000fa
:04001000d603000013
:020000040000fa
:04001400d60300000f
:020000040000fa
:04001800d60300000b
:020000040000fa
:04001c00d603000007
:020000040000fa
:04002000d603000003
:020000040000fa
:04002400d6030000ff
:020000040000fa
:04002800d6030000fb
:020000040000fa
:04002c00d6030000f7
:020000040000fa
:04003000d6030000f3
:020000040000fa
:0400340002030000c3
:020000040000fa
:04003800d6030000eb
:020000040000fa
:04003c00d6030000e7
:020000040000fa
:04004000d6030000e3
:020000040000fa
:04004400d6030000df
:020000040000fa
:04004800fa020000b8
:020000040000fa
:04004c00d6030000d7
:020000040000fa
:04005000d6030000d3
:020000040000fa
:040054007a0300002b
:020000040000fa
:04005800ac030000f5
:020000040000fa
:04005c004c03000051
:020000040000fa
:04006000d6030000c3
:020000040000fa
:04006400d6030000bf
:020000040000fa
:04006800d6030000bb
:020000040000fa
:04006c00d6030000b7
:020000040000fa
:04007000d6030000b3
:020000040000fa
:04007400d6030000af
:020000040000fa
:04007800d6030000ab
:020000040000fa
:04007c00d6030000a7
:020000040000fa
:04008000d6030000a3
:020000040000fa
:04008400d60300009f
:020000040000fa
:04008800d60300009b
:020000040000fa
:04008c00d603000097
:020000040000fa
:04009000d603000093
:020000040000fa
:040094002203000043
:020000040000fa
:04009800d60300008b
:020000040000fa
:04009c00d603000087
:020000040000fa
:0400a000d603000083
:020000040000fa
:0400a400d60300007f
:020000040000fa
:0400a800d60300007b
:020000040000fa
:0400ac00d603000077
:020000040000fa
:0400b000d603000073
:020000040000fa
:0400b400d60300006f
:020000040000fa
:0400b800d60300006b
:020000040000fa
:0400bc00d603000067
:020000040000fa
:0400c000d603000063
:020000040000fa
:0400c400d60300005f
:020000040000fa
:0400c800d60300005b
:020000040000fa
:0400cc00d603000057
:020000040000fa
:0400d000d603000053
:020000040000fa
:0400d400d60300004f
:020000040000fa
:0400d800d60300004b
:020000040000fa
:0400dc00d603000047
:020000040000fa
:0400e000d603000043
:020000040000fa
:0400e400d60300003f
:020000040000fa
:0400e800d60300003b
:020000040000fa
:0400ec00d603000037
:020000040000fa
:0400f000d603000033
:020000040000fa
:0400f400d60300002f
:020000040000fa
:0400f800d60300002b
:020000040000fa
:0400fc00d603000027
:020000040000fa
:04010000d603000022
:020000040000fa
:04010400d60300001e
:020000040000fa
:04010800d60300001a
:020000040000fa
:04010c00d603000016
:020000040000fa
:04011000d603000012
:020000040000fa
:04011400d60300000e
:020000040000fa
:04011800d60300000a
:020000040000fa
:04011c00d603000006
:020000040000fa
:04012000d603000002
:020000040000fa
:04012400d6030000fe
:020000040000fa
:04012800d6030000fa
:020000040000fa
:04012c00d6030000f6
:020000040000fa
:04013000d6030000f2
:020000040000fa
:04013400d6030000ee
:020000040000fa
:04013800d6030000ea
:020000040000fa
:04013c00d6030000e6
:020000040000fa
:04014000d6030000e2
:020000040000fa
:04014400d6030000de
:020000040000fa
:04014800d6030000da
:020000040000fa
:04014c00d6030000d6
:020000040000fa
:04015000d6030000d2
:020000040000fa
:04015400d6030000ce
:020000040000fa
:04015800d6030000ca
:020000040000fa
:04015c00d6030000c6
:020000040000fa
:04016000d6030000c2
:020000040000fa
:04016400d6030000be
:020000040000fa
:04016800d6030000ba
:020000040000fa
:04016c00d6030000b6
:020000040000fa
:04017000d6030000b2
:020000040000fa
:04017400d6030000ae
:020000040000fa
:04017800d6030000aa
:020000040000fa
:04017c00d6030000a6
:020000040000fa
:04018000d6030000a2
:020000040000fa
:04018400d60300009e
:020000040000fa
:04018800d60300009a
:020000040000fa
:04018c00d603000096
:020000040000fa
:04019000d603000092
:020000040000fa
:04019400d60300008e
:020000040000fa
:04019800d60300008a
:020000040000fa
:04019c00d603000086
:020000040000fa
:0401a000d603000082
:020000040000fa
:0401a400d60300007e
:020000040000fa
:0401a800d60300007a
:020000040000fa
:0401ac00d603000076
:020000040000fa
:0401b000d603000072
:020000040000fa
:0401b400d60300006e
:020000040000fa
:0401b800d60300006a
:020000040000fa
:0401bc00d603000066
:020000040000fa
:0401c000d603000062
:020000040000fa
:0401c400d60300005e
:020000040000fa
:0401c800d60300005a
:020000040000fa
:0401cc00d603000056
:020000040000fa
:0401d000d603000052
:020000040000fa
:0401d400d60300004e
:020000040000fa
:0401d800d60300004a
:020000040000fa
:0401dc00d603000046
:020000040000fa
:0401e000d603000042
:020000040000fa
:0401e400d60300003e
:020000040000fa
:0401e800d60300003a
:020000040000fa
:0401ec00d603000036
:020000040000fa
:0401f000d603000032
:020000040000fa
:0401f400d60300002e
:020000040000fa
:0401f800d60300002a
:020000040000fa
:0401fc00d603000026
:020000040000fa
:04020000d603000021
:020000040000fa
:04020400d60300001d
:020000040000fa
:04020800d603000019
:020000040000fa
:04020c00d603000015
:020000040000fa
:04021000d603000011
:020000040000fa
:04021400d60300000d
:020000040000fa
:04021800d603000009
:020000040000fa
:04021c00d603000005
:020000040000fa
:04022000d603000001
:020000040000fa
:04022400d6030000fd
:020000040000fa
:04022800d6030000f9
:020000040000fa
:04022c00d6030000f5
:020000040000fa
:04023000d6030000f1
:020000040000fa
:04023400d6030000ed
:020000040000fa
:04023800d6030000e9
:020000040000fa
:04023c00d6030000e5
:020000040000fa
:04024000d6030000e1
:020000040000fa
:04024400d6030000dd
:020000040000fa
:04024800d6030000d9
:020000040000fa
:04024c00d6030000d5
:020000040000fa
:04025000d6030000d1
:020000040000fa
:04025400d6030000cd
:020000040000fa
:04025800d6030000c9
:020000040000fa
:04025c00d6030000c5
:020000040000fa
:04026000d6030000c1
:020000040000fa
:04026400d6030000bd
:020000040000fa
:04026800d6030000b9
:020000040000fa
:04026c00d6030000b5
:020000040000fa
:04027000d6030000b1
:020000040000fa
:04027400d6030000ad
:020000040000fa
:04027800d6030000a9
:020000040000fa
:04027c00d6030000a5
:020000040000fa
:04028000d6030000a1
:020000040000fa
:100400008f0c21000eff27000e0188000000000065
:10041000000020000000e000020032000001200087
:100420002002880014000700e20007000000e0003e
:1004300003003a008055210001002000020037002f
:100440000000200001002000810f70000100320038
:100450000f000700000020000000e0000200320052
:100460000000020000000000480702000000000039
:100470000040da000000fe00600020000000e00004
:1004800002003200002020009001880000000600d9
:10049000a1028800800478000000eb001f003700f4
:1004a000e284440054a0b4009905ba00e2844400f8
:1004b00054a0b4009906ba00e284440054a0b400e9
:1004c0000006eb00476fde00fd07b200ae018800ba
:1004d000636ce10003003a000ad801000000eb0061
:1004e0000e003700606ce10008003a00004deb00a0
:1004f0000a05e800020039003420ec000af0a000f0
:100500008b05e900f9ff3e00040037006168e10057
:10051000010032000086eb000b00070019c7ba008b
:100520000e04e0001905ba0003003a000a00e000da
:10053000dbff3a0000000600fe07b200ae028800b2
:100540008a047800f5ff37000cd0a300e20f4d00bd
:100550001c00390089027800354dba000a05e80010
:10056000020039003420ec000af0a0008b05e900fd
:100570000f003200254dba000a05e80002003900dc
:100580003420ec000af0a0008b05e90008003200de
:100590000c00e0000600320015cdba000a05e800a4
:1005a000020039003420ec000af0a0008b05e900bd
:1005b0008984e80054a0b4000b00e000e2ff3a0098
:1005c000000006009902ba00055d78008b05e9007d
:1005d000f7ff3200c82ade00055d78008b05e900d0
:1005e000f3ff32000c00e000f1ff320019ddba0029
:1005f000eeff37000000fa000108a9000080fa00b1
:10060000004006003600f800809fbe00829fbe00ba
:10061000849fbe00869fbe000000fa000068a9000b
:10062000c3060700980807000080fa004f03be00c9
:100630004f02be004f01be004f00be003600f90061
:10064000004006003600f800809fbe00829fbe007a
:10065000849fbe00869fbe000000fa000368a900c8
:10066000608080007180800061004000e080480070
:100670006080880071808800dc0207000080fa003a
:100680004f03be004f02be004f01be004f00be0030
:100690003600f90000400600809fbe000000fa000e
:1006a00001a8a9000118800020002100010878009d
:1006b00011188000200021001100980021188000ee
:1006c0002000210021009800311880002000210026
:1006d000310098004118800020002100410098005e
:1006e00010c0b3000af0b7000080fa004f00be004f
:1006f00000400600801f78000000fa000168a90091
:1007000010118000640060000000e0000100320071
:100710002242a90010118000620060000000e00089
:10072000050032002222a9000400370030118000a9
:100730002011880001003700000000001011800027
:10074000610060000000e000f8ff3a000080fa005d
:100750004f007800004006003600f800809fbe0081
:10076000829fbe00849fbe00869fbe000000fa00ec
:100770000188a900d1808000c0808000808f500057
:1007800002003200e1070700010037001c70ef0093
:100790000080fa004f03be004f02be004f01be00b2
:1007a0004f00be003600f900004006000040da00ad
:1007b0000000fe000000050003f0a200889fbe00bc
:1007c0008a9fbe008c1f7800180107001f013300ac
:1007d0006450e1004f0032006420e100520032001a
:1007e00003826c0007003b000905d0000306d0001f
:1007f000820f54000c065d00020039000200320036
:1008000089017800030678008582550004003d00c8
:100810000003fd008103fd008502ea008b85420094
:10082000840f720002003b0060001000e08018009e
:100830006011b8000005eb007a28e1000a003900d9
:1008400006007800c75ddd00f707b20087807500fd
:100850002d003700828171000a0178006105600077
:100860008180d1000080d3008502e900f9ff3b00c0
:10087000060440008784480002003b006004140026
:10088000e0841c000988a300070032008a817100ff
:1008900082817100610164008904d1000884d30061
:1008a0008b05e800170037000978a30013003a0011
:1008b0000b00e000130034008b05e900080444003d
:1008c00089844c000a4474000978a3000d003a00a2
:1008d0000b00e000070034008b05e9000804440029
:1008e00089844c0001003a000b0020000978a30025
:1008f000f7ff32000001eb00020037008281710037
:100900000a0178008e0007000cf0a70001f0a0009b
:10091000d70037006420e10002003a00838f6c00aa
:10092000d70033000801be000200be00d00037002f
:10093000889fbe008a9fbe008c1f7800bb00070006
:10094000c200330003866c006450e1002e003200c8
:100950006420e100330032006150e1002f003200da
:100960006120e1003100320085855500eb07b000c1
:100970000900200008042000050037000804440096
:1009800089844c000a0031000603430087834b0032
:100990000001530081815b00f8ff33000203be00b9
:1009a0000800a0000804440089844c00f6ff3900c8
:1009b000c639dd00830173000100320013002000fe
:1009c0008904d1000884d3000998a30005003200ef
:1009d0000800a7000300a0008904d1000884d30008
:1009e0008b05e8008904d1000884d3000001eb00e6
:1009f0000281d2005200070001f0a1000cf0a70014
:100a000001f0a0009a0037006420e1009c00320051
:100a10000801be000200be00f7ff37006120e100c0
:100a2000970032006000b800f3ff3700000020009c
:100a300001f82700f0ff370014002000c70037003e
:100a4000f4ff2f00c50037000001be006200070060
:100a50000470a70003f0a1006509b1001600320080
:100a60000d0035006828e10006003500f0ff2f007a
:100a7000f1ff27000300e00013003b000100280005
:100a80000000050000004000818048008502e90068
:100a9000fcff3a0008003700f88f420002003c00db
:100aa0008000eb00000005008100d1000080d30031
:100ab0008502e800fcff3a000300e00002003b0072
:100ac00060001000e0801800000006000001be0079
:100ad000410007000470a70003f0a10003f8a30081
:100ae00013003a006509b10010003200090035001a
:100af0006928e1000200350001002800000005001f
:100b000000004000818048008502e900fcff3a00b7
:100b100000000600f88f4200050035008100d1007a
:100b20000080d3008502e800fcff3a0000000600c8
:100b30008000eb00000005006011b800a200370043
:100b400081002000618055000b003d000b0020005b
:100b500061fe2f000100e1001d0034008281710060
:100b6000610164008904d1000884d3000000e8001a
:100b7000faff3a0071002000610064000300700079
:100b8000020060000900320061044400e0844c006f
:100b90000988a500050032008b05e8006808e1001f
:100ba00002003a008904d1000884d300f20f20002b
:100bb0000258e10005003d00c75ddd00f907b20005
:100bc0008980750008007800000006000bf82700f7
:100bd0008b00780000000500c70ade00f107b200b4
:100be000f50fb20008003200e1cf420002003200ef
:100bf0000170a00024000500810f70000100320088
:100c00000408050044000500810f700002003a004e
:100c1000140005008502e9000000400081c0480082
:100c2000fcff3b000170a000240005000004be0092
:100c3000e9ff07000003be000405be000200be007d
:100c4000e5ff0700844f7500000006000200be00ab
:100c50006450e100050036006420e1000200360027
:100c60000968a30001003a000800be000160a0006e
:100c70004f0678004f05be004f04be00000006007e
:100c8000f0ff2f00f1ff2700f9ff3700889fbe001b
:100c90008a9fbe008c1f7800e4ff0700ebff330043
:100ca00003866c006450e100240032006420e100ff
:100cb000270032006150e100220032006120e10093
:100cc000210032008b854200eb07b1000134b800ef
:100cd000003ab8000804420089844a00013ab8008a
:100ce0000030b8008880400009014a000400330049
:100cf0000000400081804800020149008b05e900a6
:100d0000c909dd00830170000100320013002000da
:100d1000c814de004814dd004709de001200b200ee
:100d2000c808de000884700085ff070001f0a100fc
:100d30000cf0a70001f0a000cdff37006120e1001a
:100d4000cfff32000801be000200be00f7ff3700ef
:100d50006150e100fcff3a00c9ff3700889fbe00e8
:100d60008a9fbe00841f7800b0ff07004f00780004
:100d700011003300f0ff2f00838f6c0006003b0052
:100d8000040565000a00a7000800370009f0a60066
:100d90001000200008003700820f5400838f5c0091
:100da000030039001000200001003e000000200078
:100db00009f0a7000000ea004f05be004f04be0086
:100dc0000000e00000000600889fbe008a9fbe0071
:100dd000008270000402710004827100260032005b
:100de0000004be000200be006011b8006b092000c4
:100df000950220000182cf000a0039000541b100b0
:100e00000082cf00070039000541b1000982cf0000
:100e1000040039000541b1000882cf00010039000b
:100e20000541b10005425200120032000a003b00a9
:100e300082817100610164008100d1000080d300d3
:100e40008984d3000884d3008b05e8000442e800bd
:100e5000f7ff3a00070037000804440089844c007b
:100e600000004800818048008b05e9000442e90049
:100e7000f9ff3a0032ff07004f05be004f04be00e5
:040e80000000060068
:020000040000fa
:0c0e84006a6f00006a6f000000000000b0
:020000040000fa
:100e90000600fa00881f7800bf060700e906070071
:100ea0007003070088030700850407003c0607005d
:100eb00004040700840607007b060700e14f50008a
:100ec00083003a007c06070073060700000f7800d5
:100ed0001e80e800100078008000eb0016ff07007d
:100ee000323323003305240068ff0700020020008e
:100ef000035824008efe0700d2cc2c00c30424002b
:100f000062ff070010079800210798001e0190005b
:100f1000ae019000000020008120240084fe070024
:100f200002002000030a240023fe07002085880019
:100f3000318588009e0078006480400010007800b1
:100f40008000eb00fcfe0700323323003305240051
:100f50004eff0700020020000358240074fe070023
:100f6000d2cc2c00c304240048ff070010079800cf
:100f7000210798001e019000ae01900000002000a3
:100f8000812024006afe070002002000030a2400da
:100f900009fe070040858800518588009e00780082
:100fa00068804000100078008000eb00e2fe07003f
:100fb000323323003305240034ff070002002000f1
:100fc000035824005afe0700d2cc2c00c30424008e
:100fd0002eff070010079800210798001e019000bf
:100fe000ae019000000020008120240050fe070088
:100ff00002002000030a2400effd0700608588003e
:10100000718588009e00780066804000100078009e
:101010008000eb00c8fe07003233230033052400b4
:101020001aff0700020020000358240040fe0700ba
:10103000d2cc2c00c304240014ff07001007980032
:10104000210798001e019000ae01900000002000d2
:101050008120240036fe070002002000030a24003d
:10106000d5fd070080858800918588001e007800e6
:10107000100078008000eb00affe07003233230041
:101080003305240001ff070002002000035824005c
:1010900027fe0700d2cc2c00c3042400fbfe07006f
:1010a00010079800210798001e019000ae019000e3
:1010b00000002000812024001dfe07000200200007
:1010c000030a2400bcfd0700a0858800b1858800c4
:1010d000208580003185800018c0b3000200200008
:1010e000031f240054fe07000000e000010035004b
:1010f0000044eb000804e0000b003a00608580002b
:101100007185800018c0b30002002000031f240076
:1011100049fe07000000e000010035000044eb003c
:101120000804e00002003200254ea800010037004c
:10113000254ea900408580005185800018c0b3006d
:1011400002002000031724003bfe07000000e0001f
:10115000010035000044eb000804e000020032000a
:1011600064eea8000100370064eea90080858000cd
:101170009185800018c0b3000200200003172400ee
:101180002dfe07000000e000010035000044eb00e8
:101190000804e0000b003a00a0858000b1858000c3
:1011a00018c0b300020020000317240022fe07002d
:1011b0000000e000010035000044eb000804e000fe
:1011c0000200320064cea8000100370064cea900fe
:1011d00020742800410020001005070000a0250011
:1011e000212620004a06070033ff37000000fa00de
:1011f00012d0bf000080fb00cf80de001202200072
:1012000003002000820f5000838f5800e5003e004d
:1012100000060100210037002a00370033003700a4
:1012200040003700410037004b0037004c003700ca
:101230005500370056003700600037006100370066
:101240006a0037006b003700750037007600370002
:1012500080003700d3003700d2003700d1003700bc
:10126000d0003700cf003700ce00370087003700ae
:101270009000370079003700820037008f00370078
:101280009c0037009d003700aa003700ab003700f4
:10129000b5003700b6003700c00037000c30ef0053
:1012a0000e30ef000041eb006000b8004104070081
:1012b00012c0b3006000b8003e04070010c0b300c5
:1012c00012f0b7006280800073808000803e2000b2
:1012d00001002000800f5100818f5900b5003600b9
:1012e00020c0b30012f0b700b30037000041eb009c
:1012f00000002000811c2c002e04070012c0b30047
:1013000000002000811c24002a04070030c0b30024
:1013100012f0b700a08080000000e800a0808800e4
:10132000a5003700a6000700a30037000041eb002e
:101330000000200001172c001e04070012c0b3009b
:1013400000002000010a24001a04070050c0b30066
:1013500012f0b70098003700990007009600370098
:101360000041eb000000200001172c0011040700d1
:1013700012c0b3006000b8000e04070050c0b300f4
:1013800012f0b7008c0037008d0007008a0037008c
:101390000041eb0000002000010a2c0005040700ba
:1013a00012c0b30000002000011724000104070050
:1013b00090c0b30012f0b7007f0037008000070034
:1013c0007d0037000041eb006000b800f903070022
:1013d00012c0b3000000200001172400f50307002d
:1013e00090c0b30012f0b70073003700740007001c
:1013f000710037000041eb000000200001172c00b5
:10140000ec03070012c0b3000000200001172c00fd
:10141000e8030700d0c0b30012f0b7006600370041
:1014200067000700640037000041eb000000200067
:1014300001172400df03070012c0b30000002000e2
:1014400001172400db030700f0c0b30012f0b7005f
:10145000590037005a000700570037000041eb00e1
:101460006000b800d303070012c0b30000002000e2
:1014700001172400cf030700f0c0b30012f0b7003b
:101480004d0037004e0007004b0037000041eb00d5
:101490000000200001172c00c603070012c0b30093
:1014a0006000b800c3030700f0c0b30012f0b7003b
:1014b00041003700420007003f0037000041eb00c9
:1014c0000000200001122c00ba03070012c0b30074
:1014d0000000200001122400b6030700b0c1b300d1
:1014e00012f0b700a08080000000e800a080880013
:1014f00031003700320007002f0037000041eb00b9
:101500000000200001172c00aa03070012c0b3003e
:101510000000200001172400a6030700d0c1b3007b
:1015200012f0b700a08080000000e800a0808800d2
:1015300021003700220007001f0037000041eb00a8
:101540000000200001082c009a03070012c0b3001d
:10155000000020000104240096030700f0c1b3003e
:1015600012f0b70014003700150007001200370012
:101570000041eb000000200001042c008d03070057
:1015800012c0b300000020000108240089030700f6
:1015900010c2b30012f0b7000700370008000700c0
:1015a0000500370020c0b30012f0b70000000000b3
:1015b00001003700000000000080fa000000060073
:1015c0000200fa00881f78000040eb00004f78000e
:1015d000208580003185800018c0b3000200200003
:1015e0000312240014fd07000000e0000100350094
:1015f0000044eb000804e0000e003200608580002b
:101600007185800018c0b30002002000031224007e
:1016100009fd07000000e000010035000044eb0078
:101620000804e0000300320070c0b300004f7800ef
:101630001f013700408580005185800018c0b3002d
:101640000200200003172400fbfc07000000e0005c
:10165000010035000044eb000804e0000300320004
:1016600080c0b300004f7800110137002085800052
:101670003185800018c0b300020020000317240049
:10168000edfc07000000e000010035000044eb0025
:101690000804e0000300320050c0b300004f78009f
:1016a00003013700208580003185800018c0b30019
:1016b00002002000831c2400dffc07000000e00083
:1016c000010035000044eb000804e0000300320094
:1016d00040c0b300004f7800f500370060858000ff
:1016e0007185800018c0b300020020000317240099
:1016f000d1fc07000000e000010035000044eb00d1
:101700000804e0000300320020c0b300004f78005e
:10171000e7003700608580007185800018c0b30045
:1017200002002000831c2400c3fc07000000e0002e
:10173000010035000044eb000804e0000300320023
:1017400010c0b300004f7800d900370040858000fa
:101750005185800018c0b30002002000831c2400c3
:10176000b5fc07000000e000010035000044eb007c
:101770000804e00003003200a0c0b300004f78006e
:10178000cb003700408580005185800018c0b30031
:101790000200200083242400a7fc07000000e000d2
:1017a000010035000044eb000804e00003003200b3
:1017b00090c0b300004f7800bd0037002085800046
:1017c0003185800018c0b30002002000031f2400f0
:1017d00099fc07000000e000010035000044eb0028
:1017e0000804e00003003200d0c0b300004f7800ce
:1017f000af003700608580007185800018c0b3009d
:1018000002002000031f24008bfc07000000e00002
:10181000010035000044eb000804e0000300320042
:10182000e0c0b300004f7800a10037008085800041
:101830009185800018c0b300020020000317240027
:101840007dfc07000000e000010035000044eb00d3
:101850000804e0000300320030c0b300004f7800fd
:1018600093003700a0858000b185800018c0b300c8
:1018700002002000031724006ffc07000000e000b6
:10188000010035000044eb000804e00003003200d2
:1018900060c0b300004f780085003700a08580004d
:1018a000b185800018c0b300020020000317240097
:1018b00061fc07000000e000010035000044eb007f
:1018c0000804e0001b0032008085800091858000c4
:1018d00018c0b300020020000317240056fc0700c4
:1018e0000000e000010035000044eb000804e000c7
:1018f00010003200a4858000b585800080858000be
:101900009185800018c0b3000001be000400be0035
:1019100049fc07000000e000010035000044eb0036
:101920000804e00003003200b0c0b300004f7800ac
:101930005f003700a0858000b185800018c0b3002b
:1019400002002000031724003bfc07000000e00019
:10195000010035000044eb000804e0001b003200e9
:10196000808580009185800018c0b30002002000af
:101970000317240030fc07000000e00001003500e0
:101980000044eb000804e00010003200a485800051
:10199000b5858000808580009185800018c0b300e7
:1019a0000001be000400be0025fc07000000e000ae
:1019b00001003c000044eb000804e000030032009a
:1019c000c0c0b300004f780039003700a085800008
:1019d000b185800018c0b300020020000317240066
:1019e00017fc07000000e00001003c000044eb0091
:1019f0000804e0002e003200208580003185800040
:101a000018c0b30002002000031f24000cfc0700d4
:101a10000000e00001003c000044eb000804e0008e
:101a200023003200408580005185800018c0b3003b
:101a3000020020008324240001fc07000000e000d5
:101a400001003c000044eb000804e00018003200f4
:101a5000608580007185800018c0b30002002000fe
:101a6000031f2400f6fb07000000e00001003c001b
:101a70000044eb000804e0000d0032008085800087
:101a80009185800018c0b3000200200003172400d5
:101a9000ebfb07000000e00001003c000044eb000d
:101aa0000804e000020032000040eb00004f780024
:101ab0001e407800e74f50000a003a00a0808000e6
:101ac000610060000000e00003003a00c0c0b30005
:101ad00016f0b70057003700e0c0b30016f0b700ab
:101ae000540037001e407800e84f50000a003a00ca
:101af000a0808000610060000000e00003003a0068
:101b0000c0c0b30016f0b7004a003700e0c0b30011
:101b100016f0b700470037001e407800e94f50002c
:101b2000060032001e407800ed4f500003003200e6
:101b30001e407800ee4f500003003a00c0c1b300d1
:101b400016f0b7003b0037001e407800ea4f500007
:101b500003003a00a0c1b30016f0b700350037000b
:101b60001e407800e54f500003003a0060c0b3000b
:101b700016f0b7002f0037001e407800e44f5000e9
:101b800003003a0040c0b30016f0b7002900370048
:101b90001e407800e24f500003003a00a0c0b3009e
:101ba00016f0b700230037001e407800e14f5000c8
:101bb00003003a0080c0b30016f0b7001d003700e4
:101bc0001e407800eb4f500003003a00e0c1b30024
:101bd00016f0b700170037001e407800eb4f50009a
:101be00003003a0000c2b30016f0b700110037003e
:101bf0001e407800e64f500003003a0060c1b30079
:101c000016f0b7000b0037001e407800e34f50007d
:101c100003003a0080c1b30016f0b700050037009a
:101c20001e4078000004e00002003a0020c0b3002b
:101c300016f0b70016d0bf008080fb0012d0bf00a6
:101c40000080fb000000e900808f5000020032009d
:101c500016d0bf0012f0b7004f0478000080fa00e1
:101c6000000006000000fa0013e1a90011e1a9003c
:101c70001061a8001021a90081088000f0fc2f004d
:101c800000806000800888000a21ef000621ef0034
:101c900020262000700888002003200060088800ab
:101ca0002142800080ff2f00008060000000a00023
:101cb000204288000108a9002108a80011e1a8001d
:101cc0000080fa00000006000000fa0005e1a9000b
:101cd0000421a9000068a9002068a80005e1a80067
:101ce00000002000a12f2400020007000080fa005d
:101cf000000006000400fa00881f7800008fbe0074
:101d000021088000f0fc2f0000806000200888007f
:101d10001e0178009e0190000068290081c1240006
:101d200003fb070018c0b30002f02f00f377240074
:101d300043fb07000000e00001003c000044eb0012
:101d40000804e0005400320021088000f0fc2f005d
:101d5000008060000040a000200888001e0178007c
:101d60009e0190000068290081c12400f0fa07005c
:101d70000200200003102400edfa070018c0b30091
:101d800002f02f00f37724002dfb07000000e00095
:101d900001003c000044eb000804e0003200320087
:101da00021088000f0fc2f00008060000050a0009f
:101db000200888001e0178009e019000006829001c
:101dc00081c12400dafa0700020020000328240061
:101dd000d7fa070018c0b30002f02f00f3772400f1
:101de00017fb07000000e00001003c000044eb008e
:101df0000804e000100032002108800000032000e9
:101e000001007000200888001e0178009e019000eb
:101e10000068290081c12400c5fa070002002000e3
:101e200003382400c2fa070007fb0700000078000f
:101e300010088800200037001e0178009e019000e5
:101e40000068290081c12400b9fa070002002000bf
:101e500003282400b6fa0700fbfa07000000780008
:101e600010088800140037001e0178009e019000c1
:101e70000068290081c12400adfa0700020020009b
:101e800003102400aafa0700effa07000000780008
:101e900010088800080037001e0178009e0190009d
:101ea0000068290081c12400a1fa0700e6fa0700b2
:101eb00000007800100888004f0478000080fa00c5
:101ec000000006000000fa001fe1a9001e21a90081
:101ed0000368a9002368a8001fe1a80000002000f3
:101ee000a1472400020007000080fa00000006005d
:101ef0000400fa00881f7800008fbe00f1088000ff
:101f0000f0fc2f0000806000f00888001e017800bf
:101f10009e0190000068290081c1240084fa070016
:101f200018c0b30002f02f00f3772400c4fa0700b2
:101f30000000e00001003c000044eb000804e00069
:101f400054003200f1088000f0fc2f000080600097
:101f50000040a000f00888001e0178009e0190005b
:101f60000068290081c1240071fa070002002000e6
:101f7000031024006efa070018c0b30002f02f000f
:101f8000f3772400aefa07000000e00001003c00f7
:101f90000044eb000804e00032003200f108800049
:101fa000f0fc2f00008060000050a000f0088800c6
:101fb0001e0178009e0190000068290081c1240064
:101fc0005bfa0700020020000328240058fa0700eb
:101fd00018c0b30002f02f00f377240098fa07002e
:101fe0000000e00001003c000044eb000804e000b9
:101ff00010003200f1088000000320000100700092
:10200000f00888001e0178009e01900000682900f9
:1020100081c1240046fa0700020020000338240092
:1020200043fa070088fa07000000780010088800cb
:10203000200037001e0178009e01900000682900f2
:1020400081c124003afa070002002000032824007e
:1020500037fa07007cfa07000000780010088800b3
:10206000140037001e0178009e01900000682900ce
:1020700081c124002efa0700020020000310240072
:102080002bfa070070fa070000007800100888009b
:10209000080037001e0178009e01900000682900aa
:1020a00081c1240022fa070067fa070000007800c7
:1020b000100888004f0478000080fa000000060035
:1020c0000000fa001160800080ff2f000080600097
:1020d0001060880000fa20002060880023aca8006f
:1020e000238ca80011618000f03f2f000080600069
:1020f00000a0a0001061880030002000206188004e
:10210000c3aca800c38ca80011668000f03f2f006c
:102110000080600000a0a000106688003000200051
:102120002066880001eca8000080fa00000006008c
:102130000000fa00889fbe0024868000358680005b
:10214000008680001186800018c0b3000001be0028
:102150000400be0038fa07000000e000010035006e
:102160000044eb000804e0000d0032000886800007
:10217000198680002486800035868000f0808000eb
:10218000018180000001be000400be008bf9070041
:102190000801be00c800070020868800318688003c
:1021a00024868000358680000086800011868000ad
:1021b00018c0b3000001be000400be0020fa0700f2
:1021c0000000e00001003c000044eb000804e000d7
:1021d0000d00320008868000198680002486800069
:1021e00035868000f0808000018180000001be0003
:1021f0000400be0070f907000801be009600070049
:102200002086880031868800208680003186800004
:1022100018c0b3006011b80009fa07000000e00020
:1022200001003c000044eb000804e0000400320020
:10223000c3cca90024eea800c3eca800030037001b
:10224000c3eca90024cea800c3cca800208680003f
:10225000318680006a00070002002000032224006b
:102260008afa070019fa0700000078003066880033
:10227000e4858000f5858000c0858000d1858000e0
:1022800018c0b3000001be000400be00eaf9070058
:102290000000e000010035000044eb000804e0000d
:1022a0000d003200c8858000d9858000e48580005b
:1022b000f5858000f0808000018180000001be0073
:1022c0000400be003df907000801be007a000700c7
:1022d000e0858800f1858800e4858000f585800030
:1022e000c0858000d185800018c0b3000001be0009
:1022f0000400be00d2f907000000e00001003c002d
:102300000044eb000804e0000d003200c8858000a6
:10231000d9858000e4858000f5858000f08080000c
:10232000018180000001be000400be0022f9070008
:102330000801be0048000700e0858800f18588009c
:10234000e0858000f185800018c0b3006011b800fe
:10235000bbf907000000e00001003c000044eb0076
:102360000804e0000400320023cca90015eea80008
:1023700023eca8000300370023eca90015cea80029
:1023800023cca800e0858000f18580001c000700b8
:1023900002002000032224003cfa0700cbf90700ca
:1023a00000007800306188004f04be000080fa0011
:1023b000000006000600fa00008fbe0042479800a9
:1023c0004e409000e14f500004003a001e0178009a
:1023d0009e019000c2858800d38588004e40900001
:1023e0000004e00004003a001e0178009e01900005
:1023f00002868800138688000080fa00000006002c
:102400000400fa00881f7800008fbe0018c0b300d7
:102410006011b8001e0078009e00900088f9070047
:102420000000e00001003d000044eb000804e00073
:10243000030032001e0078009e0090000300370069
:102440001e0078009e00900001f0a2004f0478006a
:102450000080fa00000006000800fa00881f7800db
:10246000008fbe00220798003307980018c0b30001
:102470002e019000be0190001e0078009e0090008a
:102480006ff907000000e00001003c000044eb0091
:102490000804e000030032001e0078009e00900057
:1024a000020037002e009000be0090004f0478001c
:1024b0000080fa00000006000800fa00881f78007b
:1024c000008fbe00220798003307980018c0b300a1
:1024d0002e019000be0190001e0078009e0090002a
:1024e00055f907000000e000010035000044eb0052
:1024f0000804e000030032001e0078009e009000f7
:10250000020037002e009000be0090004f047800bb
:102510000080fa00000006000c00fa00881f780016
:10252000008fbe00220798003307980044079800e8
:102530005507980018c0b3004e019000de019000ce
:102540001e0078009e0090003df907000000e000aa
:1025500001003c000044eb000804e00004003200ed
:102560004e019000de019000028fbe000e00370089
:1025700018c0b3002e019000be0190001e0078002c
:102580009e0090002cf907000000e00001003500db
:102590000044eb000804e000030032002e0190002c
:1025a000be019000028fbe001e0078009e009000c9
:1025b0004f0478000080fa00000006000400fa00d2
:1025c000008fbe00b2fd2000930424001e0078009e
:1025d0009e009000d6f8070002002000433324003c
:1025e000aaf907000080fa00000006000400fa00c3
:1025f000008fbe00b2fd2000930424001e0078006e
:102600009e009000a1f9070002002000433324003f
:10261000c7f807000080fa00000006000600fa0074
:1026200010079800210798000040eb00004f780049
:1026300054000700ae009000810f500011003400dc
:102640000040eb00004f7800060037001e80fb00c2
:102650009e00900000804000104078000b000700b2
:102660001e4fe8009e80fb002e009000808f5000df
:10267000f6ff35002e0007000004e00001003a00dc
:10268000220007000080fa00000006000200fa00a5
:10269000004f7800c08080002102210000804000af
:1026a0001e487800c08080000000e800c0808800dc
:1026b000c1808000f0072000808f500001003400ae
:1026c0001830ef000080fa00000006000200fa0057
:1026d000d08080002102210000804000104f78004f
:1026e000d08080000000e800d0808800d180800089
:1026f000f0072000808f5000010034001a30ef00f6
:102700001e4078000080fa00000006000200fa0077
:1027100010c0b3001cf0b700ecff0700004f7800ba
:102720001e80fb00201188000080fa0000000600d7
:102730000000fa001cd0bf000080fa000000060074
:102740000200fa00c1808000d0808000808f50009d
:1027500004003400c1808000d0808000008f5000d1
:1027600005003700c1808000d080800000805000cc
:1027700001082000010f40001e0078000080fa00d0
:10278000000006000200fa00edff0700010820002b
:10279000008f50001e0078000080fa000000060044
:1027a0000000fa0021e3a8002143a80001198000dd
:1027b000f0cf2f0000806000001988002043a9009e
:1027c00001198000000e200001007000001988002f
:1027d00011198000f0ff21000080600010198800ae
:1027e0002343a80011198000f0cf2f000080600063
:1027f000101988001119800030f82f000080600047
:102800000040a000101988002203a9002223a9007b
:1028100025e3a900f0c0b30024e3b700211980002c
:10282000f00f2e008080600000f02000010070009a
:10283000201988003303a9001e2ea8002e0ea80020
:102840002f6ea8004feea8006f2ea8003063a800de
:1028500030c3a8003163a80031e3a8002e03a8000c
:102860004119800000fc2f000080600040198800a2
:1028700028e3a90001a8a90021a8a80021e3a80035
:102880000080fa00000006000000fa002023a800e3
:102890000080fa00000006000000fa00200021007d
:1028a0000080fa00000006000000fa000ad0bf0015
:1028b0000080fa00000006000000fa000a70ef0035
:1028c0000080fa00000006000000fa002002a900c3
:1028d0000111800090ff2f0000806000001188002f
:1028e00020a2a9002062a800500520004011880005
:1028f00023a2a90023e2a9000188a9002188a90038
:1029000011118000f0f32f0000806000101188008a
:102910000168a9002168a80021e2a8002342a800bc
:102920000080fa00000006000600fa001007980078
:10293000210798000040eb00004f78000040eb00ba
:10294000004f78000e0037000000000011118000d9
:1029500000202000008060000000e000fbff3a0043
:102960001e009000104078000080fb0020118800bd
:102970001e0090000000e800100798001e4fe800bd
:102980009e80fb002e009000808f5000eeff3500ef
:102990000080fa00000006000000fa00f0032000aa
:1029a000303a8800213a8000f0f32f000080600068
:1029b000203a8800213a800000fe2f00008060004d
:1029c0000000a000203a88001200200080072000ac
:1029d000a1092000337420008049780081497800e3
:1029e00082497800103a8000000178000200a000bf
:1029f00060042000710520002374200080497800c5
:102a0000814978008249780000000000113a800076
:102a1000000027008080600000002100808f5000af
:102a2000faff3a0000000000113a80000002200086
:102a3000008060000000e000fbff32000080fa0030
:102a4000000006000000fa000e2eef001e2eef0020
:102a50002e2eef003e2eef004e2eef005e2eef00ea
:102a60006e2eef00214ea90060cea90060eea900f5
:102a700011cea90011eea90020cea90020eea900d8
:102a80002136800000f82f00008060008001b30034
:102a9000203688001134800000fc2f000080600088
:102aa0000000a000103488000080fa00000006003a
:020000040000fa
:102ab0000c1000000600000080000000a2100000c2
:102ac00026000000800000001e100000040000002e
:102ad000820000000000a000400000000010000084
:102ae0000c00000080000000121000000600000032
:102af0008000000022100000800000008000000024
:102b00001810000006000000800000000000000017
:020000040000fa
:102b1000f03fb1000180b10006003500ee0309006e
:102b200000000000403fb1000180b100fbff3d000c
:102b30001000b000203fb000020035000080090006
:082b4000000000000000060087
:020000040000fa
:02000004000af0
:04afe000cfff00009f
:020000040000fa
:02000004000af0
:04afe400ffff00006b
:020000040000fa
:02000004000af0
:04afe8007fff0000e7
:020000040000fa
:02000004000af0
:04afec005fff000003
:020000040000fa
:02000004000af0
:04aff00038ff000026
:020000040000fa
:02000004000af0
:04aff400ffff00005b
:00000001FF
