:020000040000fa
:080000000002040000000000f2
:020000040000fa
:0400080004040000ec
:020000040000fa
:04000c0004040000e8
:020000040000fa
:0400100004040000e4
:020000040000fa
:0400140004040000e0
:020000040000fa
:0400180004040000dc
:020000040000fa
:04001c0004040000d8
:020000040000fa
:0400200004040000d4
:020000040000fa
:0400240004040000d0
:020000040000fa
:0400280004040000cc
:020000040000fa
:04002c0004040000c8
:020000040000fa
:0400300004040000c4
:020000040000fa
:0400340002030000c3
:020000040000fa
:0400380004040000bc
:020000040000fa
:04003c0004040000b8
:020000040000fa
:0400400004040000b4
:020000040000fa
:0400440004040000b0
:020000040000fa
:04004800fa020000b8
:020000040000fa
:04004c0004040000a8
:020000040000fa
:0400500004040000a4
:020000040000fa
:04005400c0030000e5
:020000040000fa
:04005800960300000b
:020000040000fa
:04005c00720300002b
:020000040000fa
:040060000404000094
:020000040000fa
:040064000404000090
:020000040000fa
:04006800040400008c
:020000040000fa
:04006c000404000088
:020000040000fa
:040070000404000084
:020000040000fa
:040074000404000080
:020000040000fa
:04007800040400007c
:020000040000fa
:04007c000404000078
:020000040000fa
:040080000404000074
:020000040000fa
:040084000404000070
:020000040000fa
:04008800040400006c
:020000040000fa
:04008c000404000068
:020000040000fa
:040090000404000064
:020000040000fa
:04009400480300001d
:020000040000fa
:04009800040400005c
:020000040000fa
:04009c000404000058
:020000040000fa
:0400a0000404000054
:020000040000fa
:0400a4000404000050
:020000040000fa
:0400a800040400004c
:020000040000fa
:0400ac000404000048
:020000040000fa
:0400b0000404000044
:020000040000fa
:0400b4000404000040
:020000040000fa
:0400b800040400003c
:020000040000fa
:0400bc000404000038
:020000040000fa
:0400c0000404000034
:020000040000fa
:0400c4000404000030
:020000040000fa
:0400c800040400002c
:020000040000fa
:0400cc000404000028
:020000040000fa
:0400d0000404000024
:020000040000fa
:0400d4000404000020
:020000040000fa
:0400d800040400001c
:020000040000fa
:0400dc000404000018
:020000040000fa
:0400e0000404000014
:020000040000fa
:0400e4000404000010
:020000040000fa
:0400e800040400000c
:020000040000fa
:0400ec000404000008
:020000040000fa
:0400f0000404000004
:020000040000fa
:0400f4000404000000
:020000040000fa
:0400f80004040000fc
:020000040000fa
:0400fc0004040000f8
:020000040000fa
:0401000004040000f3
:020000040000fa
:0401040004040000ef
:020000040000fa
:0401080004040000eb
:020000040000fa
:04010c0004040000e7
:020000040000fa
:0401100004040000e3
:020000040000fa
:0401140004040000df
:020000040000fa
:0401180004040000db
:020000040000fa
:04011c0004040000d7
:020000040000fa
:0401200004040000d3
:020000040000fa
:0401240004040000cf
:020000040000fa
:0401280004040000cb
:020000040000fa
:04012c0004040000c7
:020000040000fa
:0401300004040000c3
:020000040000fa
:0401340004040000bf
:020000040000fa
:0401380004040000bb
:020000040000fa
:04013c0004040000b7
:020000040000fa
:0401400004040000b3
:020000040000fa
:0401440004040000af
:020000040000fa
:0401480004040000ab
:020000040000fa
:04014c0004040000a7
:020000040000fa
:0401500004040000a3
:020000040000fa
:04015400040400009f
:020000040000fa
:04015800040400009b
:020000040000fa
:04015c000404000097
:020000040000fa
:040160000404000093
:020000040000fa
:04016400040400008f
:020000040000fa
:04016800040400008b
:020000040000fa
:04016c000404000087
:020000040000fa
:040170000404000083
:020000040000fa
:04017400040400007f
:020000040000fa
:04017800040400007b
:020000040000fa
:04017c000404000077
:020000040000fa
:040180000404000073
:020000040000fa
:04018400040400006f
:020000040000fa
:04018800040400006b
:020000040000fa
:04018c000404000067
:020000040000fa
:040190000404000063
:020000040000fa
:04019400040400005f
:020000040000fa
:04019800040400005b
:020000040000fa
:04019c000404000057
:020000040000fa
:0401a0000404000053
:020000040000fa
:0401a400040400004f
:020000040000fa
:0401a800040400004b
:020000040000fa
:0401ac000404000047
:020000040000fa
:0401b0000404000043
:020000040000fa
:0401b400040400003f
:020000040000fa
:0401b800040400003b
:020000040000fa
:0401bc000404000037
:020000040000fa
:0401c0000404000033
:020000040000fa
:0401c400040400002f
:020000040000fa
:0401c800040400002b
:020000040000fa
:0401cc000404000027
:020000040000fa
:0401d0000404000023
:020000040000fa
:0401d400040400001f
:020000040000fa
:0401d800040400001b
:020000040000fa
:0401dc000404000017
:020000040000fa
:0401e0000404000013
:020000040000fa
:0401e400040400000f
:020000040000fa
:0401e800040400000b
:020000040000fa
:0401ec000404000007
:020000040000fa
:0401f0000404000003
:020000040000fa
:0401f40004040000ff
:020000040000fa
:0401f80004040000fb
:020000040000fa
:0401fc0004040000f7
:020000040000fa
:0402000004040000f2
:020000040000fa
:0402040004040000ee
:020000040000fa
:0402080004040000ea
:020000040000fa
:04020c0004040000e6
:020000040000fa
:0402100004040000e2
:020000040000fa
:0402140004040000de
:020000040000fa
:0402180004040000da
:020000040000fa
:04021c0004040000d6
:020000040000fa
:0402200004040000d2
:020000040000fa
:0402240004040000ce
:020000040000fa
:0402280004040000ca
:020000040000fa
:04022c0004040000c6
:020000040000fa
:0402300004040000c2
:020000040000fa
:0402340004040000be
:020000040000fa
:0402380004040000ba
:020000040000fa
:04023c0004040000b6
:020000040000fa
:0402400004040000b2
:020000040000fa
:0402440004040000ae
:020000040000fa
:0402480004040000aa
:020000040000fa
:04024c0004040000a6
:020000040000fa
:0402500004040000a2
:020000040000fa
:04025400040400009e
:020000040000fa
:04025800040400009a
:020000040000fa
:04025c000404000096
:020000040000fa
:040260000404000092
:020000040000fa
:04026400040400008e
:020000040000fa
:04026800040400008a
:020000040000fa
:04026c000404000086
:020000040000fa
:040270000404000082
:020000040000fa
:04027400040400007e
:020000040000fa
:04027800040400007a
:020000040000fa
:04027c000404000076
:020000040000fa
:040280000404000072
:020000040000fa
:100400002f2221000eff2c000e01880000000000aa
:10041000000020000000e000020032000001200087
:100420002002880014000700f90007000000e00027
:1004300003003a0060dc21000100200002003700c8
:100440000000200001002000810f70000100320038
:100450000f000700000020000000e0000200320052
:10046000000002000000000012090200000000006d
:100470000040da000000fe00200020000000e00044
:1004800002003200100020009001880000000600e9
:10049000a1028800800478000000eb001f003700f4
:1004a000e284440054a0b4009905ba00e2844400f8
:1004b00054a0b4009906ba00e284440054a0b400e9
:1004c0000006eb00476fde00fd07b200ae018800ba
:1004d000636ce10003003a000ad801000000eb0061
:1004e0000e003700606ce10008003a00004deb00a0
:1004f0000a05e800020039003420ec000af0a000f0
:100500008b05e900f9ff3e00040037006168e10057
:10051000010032000086eb000b00070019c7ba008b
:100520000e04e0001905ba0003003a000a00e000da
:10053000dbff3a0000000600fe07b200ae028800b2
:100540008a047800f5ff37000cd0a300e20f4d00bd
:100550001c00390089027800354dba000a05e80010
:10056000020039003420ec000af0a0008b05e900fd
:100570000f003200254dba000a05e80002003900dc
:100580003420ec000af0a0008b05e90008003200de
:100590000c00e0000600320015cdba000a05e800a4
:1005a000020039003420ec000af0a0008b05e900bd
:1005b0008984e80054a0b4000b00e000e2ff3a0098
:1005c000000006009902ba00055d78008b05e9007d
:1005d000f7ff3200c82ade00055d78008b05e900d0
:1005e000f3ff32000c00e000f1ff320019ddba0029
:1005f000eeff37000000fa000108a9000080fa00b1
:10060000004006003600f800809fbe00829fbe00ba
:10061000849fbe00869fbe000200fa000068a90009
:100620004f0b07009d0c070030818000000f780001
:10063000910120001e00780081017800110009005e
:100640000300d80001f0a7008100ea008100e90062
:10065000cf08de00814078001e0178000200e8002b
:10066000308188000104e00001003200ee0807003c
:10067000070807000080fa004f03be004f02be00cb
:100680004f01be004f00be003600f90000400600da
:100690003600f800809fbe00829fbe00849fbe008f
:1006a000869fbe000000fa000368a9000081800058
:1006b0001181800061004000e080480000818800d6
:1006c00011818800bf0307000080fa004f03be00bd
:1006d0004f02be004f01be004f00be003600f900c1
:1006e00000400600801f78000000fa0001a8a90061
:1006f00000188000c090880010188000d0908800fa
:1007000020188000e090880030188000f090880069
:10071000401880000091880010c0b30045f0b70079
:100720000080fa004f007800004006003600f80014
:10073000809fbe00829fbe00849fbe00869fbe0039
:100740000000fa000188a900c1818000b08180000a
:10075000808f500002003200f10b070001003700cb
:100760003a70ef000080fa004f03be004f02be0057
:100770004f01be004f00be003600f90000400600e9
:100780003600f800809fbe00829fbe00849fbe009e
:10079000869fbe000000fa000168a90010118000c9
:1007a000640060000000e000010032002242a90065
:1007b00010118000620060000000e00006003200be
:1007c0002222a90005003700301180000040780087
:1007d000420c0700010037000000000010118000eb
:1007e000610060000000e000f7ff3a000080fa00be
:1007f0004f03be004f02be004f01be004f00be00bf
:100800003600f900004006000040da000000fe005b
:100810000000050003f0a200889fbe008a9fbe0072
:100820008c1f78006e010700750133006450e100f1
:100830004f0032006420e1005200320003826c005d
:1008400007003b000905d0000306d000820f5400ca
:100850000c065d00020039000200320089017800b8
:10086000030678008582550004003d000003fd006a
:100870008103fd008502ea008b854200840f72002f
:1008800002003b0060001000e08018006011b8001a
:100890000005eb007a28e1000a0039000600780024
:1008a000c75ddd00f707b200878075002d003700b7
:1008b000828171000a017800610560008180d100a9
:1008c0000080d3008502e900f9ff3b0006044000e8
:1008d0008784480002003b0060041400e0841c0090
:1008e0000988a300070032008a81710082817100ab
:1008f000610164008904d1000884d3008b05e800fd
:10090000170037000978a30013003a000b00e0003d
:10091000130034008b05e9000804440089844c006e
:100920000a4474000978a3000d003a000b00e000af
:10093000070034008b05e9000804440089844c005a
:1009400001003a000b0020000978a300f7ff3200f5
:100950000001eb0002003700828171000a0178007b
:10096000e40007000cf0a70001f0a0002d01370003
:100970006420e10002003a00838f6c002d013300f7
:100980000801be000200be00260137000081eb0016
:100990005f013700889fbe008a9fbe008c1f7800d1
:1009a0000f0107001601330003866c006450e1005c
:1009b0002e0032006420e100330032006150e1007b
:1009c0002f0032006120e1003100320085855500a2
:1009d000eb07b000090020000804200005003700e4
:1009e0000804440089844c000a00310006034300d7
:1009f00087834b000001530081815b00f8ff3300c7
:100a00000203be000800a0000804440089844c00d2
:100a1000f6ff3900c639dd008301730001003200a2
:100a2000130020008904d1000884d3000998a30092
:100a3000050032000800a7000300a0008904d100cf
:100a40000884d3008b05e8008904d1000884d30012
:100a50000001eb000281d200a600070001f0a10016
:100a60000cf0a70001f0a000ee0037006420e100c8
:100a7000f00032000801be000200be00f7ff3700a0
:100a80006120e100eb0032006000b800f3ff3700a6
:100a90000000200001f82700f0ff370014002000bc
:100aa00086013700f4ff2f00840137000001be00eb
:100ab000b60007000470a70003f0a1006509b100ab
:100ac000160032000d0035006828e10006003500f0
:100ad000f0ff2f00f1ff27000300e00013003b00b0
:100ae000010028000000050000004000818048004f
:100af0008502e900fcff3a0008003700f88f420049
:100b000002003c008000eb00000005008100d100e5
:100b10000080d3008502e800fcff3a000300e000fb
:100b200002003b0060001000e0801800000006009a
:100b30000001be00950007000470a70003f0a100ab
:100b400003f8a30013003a006509b1001000320059
:100b5000090035006928e100020035000100280085
:100b60000000050000004000818048008502e90087
:100b7000fcff3a0000000600f88f42000500350037
:100b80008100d1000080d3008502e800fcff3a001c
:100b9000000006008000eb00000005004f89de0029
:100ba00082017800600137006011b8006e013700e3
:100bb0000400200000003700889fbe008a9fbe000e
:100bc0008c1f78004f26dd00850007008c00330065
:100bd0006120e100430032006250e10041003e002c
:100be0003e0039006420e1003c00320005825500df
:100bf0000f003b000402e80038003a00800f530069
:100c0000818f5b00350034000800be0003f0a100b6
:100c100001f0a60003f0a0000cf0a700fefe070004
:100c2000800037000603430087834b000c464600d4
:100c30000005530081855b00020033000a03be00fb
:100c40000c00a0000402e900f6ff3b0085057800d7
:100c50000602430087824b0004003a006000b8009f
:100c600009f0a70001f0a0006e003700000252005a
:100c700081825a000704e0000400330006034300a9
:100c800087834b008b05e900faff370009057800e0
:100c90000604be000203be006011b8001500070084
:100ca000e00f5200e08f5a000700350002003c00c0
:100cb0000c08a300040032000601be0003f0a000ef
:100cc0000cf0a700d4fe07000a85680001f0a1001f
:100cd0000af0a70001f0a000520037000800be0093
:100ce00050003700100220000cf0a600408288005f
:100cf0005000370081002000618055000b003d004e
:100d00000b00200061fe2f000100e1001d003400f7
:100d100082817100610164008904d1000884d300dc
:100d20000000e800faff3a00710020006100640052
:100d300003007000020060000900320061044400fa
:100d4000e0844c000988a500050032008b05e8000e
:100d50006808e10002003a008904d1000884d30049
:100d6000f20f20000258e10005003d00c75ddd00e4
:100d7000f907b200898075000800780000000600bd
:100d80000bf827008b00780000000500c70ade0082
:100d9000f107b200f50fb20008003200e1cf4200c7
:100da000020032000170a00024000500810f7000d5
:100db000010032000408050044000500810f7000a6
:100dc00002003a00140005008502e900000040001e
:100dd00081c04800fcff3b000170a000240005001a
:100de0000004be00e9ff07000003be000405be00ca
:100df0000200be00e5ff0700844f750000000600fa
:100e00000200be006450e100050036006420e100ed
:100e1000020036000968a30001003a000800be0085
:100e20000160a0004f0678004f05be004f04be00d1
:100e300000000600f0ff2f00f1ff2700f9ff370048
:100e4000889fbe008a9fbe008c1f7800e4ff0700c9
:100e5000ebff330003866c006450e1002400320095
:100e60006420e100270032006150e10022003200de
:100e70006120e100210032008b854200eb07b100c8
:100e80000134b800003ab8000804420089844a00de
:100e9000013ab8000030b8008880400009014a00db
:100ea0000400330000004000818048000201490036
:100eb0008b05e900c909dd008301700001003200e3
:100ec00013002000c814de004814dd004709de00ce
:100ed0001200b200c808de000884700085ff070019
:100ee00001f0a1000cf0a70001f0a000cdff370039
:100ef0006120e100cfff32000801be000200be0009
:100f0000f7ff37006150e100fcff3a00c9ff3700ee
:100f1000889fbe008a9fbe008c9fbe00820578001d
:100f20000004be0099ff07000800be006420e10035
:100f30000700390002003a00f1ff2700f0ff2f0000
:100f40000160a00012022000428288005500370094
:100f50006120e10003003a000b00a70001f8230024
:100f60005000370001f0a10002002100936424002a
:100f7000cafe07000800be0004003500b2fd2000d4
:100f8000930c24000aff07000004be000005eb00dc
:100f90000b00a6004f0dde0001f0a1000004be0012
:100fa00032982f0023ea2300a5ff07000001eb0081
:100fb00003f023000b00a70003f8230016fe070030
:100fc000bafe07000000a7000a00a200f3fe070017
:100fd0000b00e000030032000200200003f02300b9
:100fe0000cfe070001f0a2000006be000200200077
:100ff0009304240092ff07000801be0006fe0700cc
:10100000809fbe000c00be0022a22a00d3a72300ae
:101010008bff07004f01be00fffd07000004be006c
:1010200001f0a10002002000039823009bfe0700ae
:101030000800be00190035000001be0080ff070057
:101040000006be00b2c52900e36223007cff070052
:1010500022222b00f3942b00effd07000c01be00b1
:1010600077ff0700e273280083c02300eafd070032
:101070000c01be0072ff070042aa2a00a3e22b0067
:10108000e5fd07000c01be006dff07000801be0072
:101090006bff07000801be00dffd07000a00a70084
:1010a00001f0a2004f06be004f05be004f04be0077
:1010b000000006000001eb0095ff3700889fbe008e
:1010c0008a9fbe00841f780045ff07004f0078000c
:1010d00011003300f0ff2f00838f6c0006003b00ef
:1010e000040565000a00a7000800370009f0a60003
:1010f0001000200008003700820f5400838f5c002e
:10110000030039001000200001003e000000200014
:1011100009f0a7000000ea004f05be004f04be0022
:101120000000e00000000600881f7800030478003b
:101130000300e00007003d0060001000e0801800a0
:1011400060011900e081190002003b0001f02d0050
:10115000030037000400070008f0a70001f0a0001a
:101160004f04780000000600889fbe008a9fbe00e2
:1011700000827000040271000482710026003200b7
:101180000004be000200be006011b8006b09200020
:10119000950220000182cf000a0039000541b1000c
:1011a0000082cf00070039000541b1000982cf005d
:1011b000040039000541b1000882cf000100390068
:1011c0000541b10005425200120032000a003b0006
:1011d00082817100610164008100d1000080d30030
:1011e0008984d3000884d3008b05e8000442e8001a
:1011f000f7ff3a00070037000804440089844c00d8
:1012000000004800818048008b05e9000442e900a5
:10121000f9ff3a00b7fe07004f05be004f04be00bd
:0412200000000600c4
:020000040000fa
:101224001000fa00889fbe008a9fbe00870a07004c
:10123400220a0700260607003e0607002b080700bf
:101244005b090700ba060700e8090700fd04070068
:101254000505070098090700e14f5000b7003a0060
:101264009909070090090700100798001e009000d4
:101274000080e800100078008000eb0049fe0700c1
:101284003233230033052400ecfe07000200200063
:1012940003582400befd0700d2cc2c00c304240054
:1012a400e6fe070020079800310798002e01900001
:1012b400be0190000000200081202400b4fd07003e
:1012c40002002000030a240051fd0700608e8800fc
:1012d400718e88001e0090006400400010007800a9
:1012e4008000eb002ffe0700323323003305240077
:1012f400d2fe07000200200003582400a4fd0700ca
:10130400d2cc2c00c3042400ccfe07002007980094
:10131400310798002e019000be01900000002000cb
:10132400812024009afd070002002000030a240003
:1013340037fd0700808e8800918e88001e00900083
:1013440068004000100078008000eb0015fe0700e4
:101354003233230033052400b8fe070002002000c6
:10136400035824008afd0700d2cc2c00c3042400b7
:10137400b2fe070020079800310798002e01900064
:10138400be019000000020008120240080fd0700a1
:1013940002002000030a24001dfd0700a08e88001f
:1013a400b18e88001e009000660040001000780096
:1013b4008000eb00fbfd07003233230033052400db
:1013c4009efe0700020020000358240070fd070061
:1013d400d2cc2c00c304240098fe070020079800f8
:1013e400310798002e019000be01900000002000fb
:1013f4008120240066fd070002002000030a240067
:1014040003fd0700c08e8800d18e88001e00900066
:10141400100078008000eb00e2fd07003233230067
:101424003305240085fe0700020020000358240031
:1014340057fd0700d2cc2c00c30424007ffe070014
:1014440020079800310798002e019000be019000fb
:1014540000002000812024004dfd07000200200030
:10146400030a2400eafc0700e08e8800f18e88005d
:10147400c08e8000d18e8000acfd070080457800ce
:10148400a08e8000b18e8000a8fd07000045780082
:10149400808e8000918e8000a4fd07008044780037
:1014a400608e8000718e8000a0fd070000447800eb
:1014b400e08e8000f18e80009cfd070000407800e3
:1014c4001b4f98002a4f9800394f9800484f9800b6
:1014d400504f980069004700000178005100200037
:1014e400000320002d030700008f8000118f80006f
:1014f4006dfd07000000780000f0a7000000ea007e
:1015040000447800408f8000518f800066fd070002
:101514000000780000f0a7000000ea000040780016
:10152400684f9800704f98006e00470000017800e3
:101534002100200000042000180307000000eb0035
:10154400000f780005003700f6080700004f9800e8
:101554000e4890006d0307001e0fe80012090700f3
:101564009e0f5000f8ff3c003aff37000200fa00db
:10157400004f78001e80fb0030828800308280009b
:10158400e10f500003003a0020c0b30030f0b70070
:101594000200370000c1b30030f0b7000080fa0049
:1015a400000006000200fa00004f78001e41780097
:1015b40001032100824878000080fa000000060040
:1015c4000000fa0030d0bf000080fb00cf80de00b6
:1015d4001202200003002000820f5000838f580065
:1015e400ed003e0000060100210037002b0037000b
:1015f4003400370041003700420037004c00370008
:101604004d0037005600370057003700610037009f
:10161400620037006b0037006c003700760037003b
:101624007700370081003700d4003700da00370034
:10163400d9003700d8003700d7003700d60037006c
:1016440088003700910037007a00370083003700a4
:10165400900037009d0037009e003700ab00370034
:10166400ac003700b6003700b7003700c1003700c0
:101674002030ef002230ef000041eb006000b800a2
:10168400d707070012c0b3006000b800d4070700f2
:1016940010c0b30030f0b700c400370002818000ee
:1016a40013818000803e200001002000800f510043
:1016b400818f5900bc00360020c0b30030f0b70061
:1016c400ba0037000041eb000000200001222c008a
:1016d400c307070012c0b300000020000122240049
:1016e400bf07070030c0b30030f0b700908180001e
:1016f4000000e80090818800ac003700ad000700ce
:10170400aa0037000041eb000000200001172c0064
:10171400b307070012c0b30000002000010a240030
:10172400af07070050c0b30030f0b7009f00370088
:10173400a00007009d0037000041eb0000002000de
:1017440001172c00a607070012c0b3006000b80000
:10175400a307070050c0b30030f0b7009300370070
:1017640094000700910037000041eb0000002000c6
:10177400010a2c009a07070012c0b30000002000e1
:10178400011724009607070090c0b30030f0b7009b
:101794008600370087000700840037000041eb0013
:1017a4006000b8008e07070012c0b30000002000dc
:1017b400011724008a07070090c0b30030f0b70077
:1017c4007a0037007b000700780037000041eb0007
:1017d4000000200001172c008107070012c0b3008d
:1017e4000000200001172c007d070700d0c0b300c3
:1017f40030f0b7006d0037006e0007006b00370053
:101804000041eb00000020000117240074070700ca
:1018140012c0b30000002000011724007007070065
:10182400f0c0b30030f0b70060003700610007007b
:101834005e0037000041eb006000b8006807070055
:1018440012c0b30000002000011724006407070041
:10185400f0c0b30030f0b700540037005500070063
:10186400520037000041eb000000200001172c005b
:101874005b07070012c0b3006000b80058070700f8
:10188400f0c0b30030f0b70048003700490007004b
:10189400460037000041eb000000200001122c003c
:1018a4004f07070012c0b3000000200001122400fb
:1018b4004b070700b0c1b30030f0b700908180003f
:1018c4000000e800908188003800370039000700e4
:1018d400360037000041eb000000200001172c0007
:1018e4003f07070012c0b3000000200001172400c6
:1018f4003b070700d0c1b30030f0b70090818000ef
:101904000000e800908188002800370029000700c3
:10191400260037000041eb000000200001082c00e5
:101924002f07070012c0b3000000200001042400a8
:101934002b070700f0c1b30030f0b7001b003700dd
:101944001c000700190037000041eb0000002000d4
:1019540001042c002207070012c0b300000020007d
:10196400010824001e07070010c2b30030f0b700be
:101974000e0037000f0007000c0037000041eb0099
:101984006000b8001607070012c0b3006000b8007a
:10199400130707000500370020c0b30030f0b7007c
:1019a4000000000001003700000000000080fa0081
:1019b400000006000600fa00881f780030828000cc
:1019c400e10f5000c2013a000040eb00004f7800e4
:1019d400608e8000718e800018c0b3000200200069
:1019e400031224002cfc07000000e0000100350075
:1019f4000044eb000804e0000e003200a08e8000da
:101a0400b18e800018c0b30002002000031224002d
:101a140021fc07000000e000010035000044eb0059
:101a24000804e0000300320070c0b300004f7800e7
:101a34001f013700808e8000918e800018c0b30093
:101a4400020020000317240013fc07000000e0003c
:101a5400010035000044eb000804e00003003200fc
:101a640080c0b300004f780011013700608e800001
:101a7400718e800018c0b3000200200003172400f8
:101a840005fc07000000e000010035000044eb0005
:101a94000804e0000300320050c0b300004f780097
:101aa40003013700608e8000718e800018c0b3007f
:101ab40002002000831c2400f7fb07000000e00064
:101ac400010035000044eb000804e000030032008c
:101ad40040c0b300004f7800f5003700a08e8000ae
:101ae400b18e800018c0b300020020000317240048
:101af400e9fb07000000e000010035000044eb00b2
:101b04000804e0000300320020c0b300004f780056
:101b1400e7003700a08e8000b18e800018c0b300ab
:101b240002002000831c2400dbfb07000000e0000f
:101b3400010035000044eb000804e000030032001b
:101b440010c0b300004f7800d9003700808e8000a9
:101b5400918e800018c0b30002002000831c240072
:101b6400cdfb07000000e000010035000044eb005d
:101b74000804e00003003200a0c0b300004f780066
:101b8400cb003700808e8000918e800018c0b30097
:101b94000200200083242400bffb07000000e000b3
:101ba400010035000044eb000804e00003003200ab
:101bb40090c0b300004f7800bd003700608e8000f5
:101bc400718e800018c0b30002002000031f24009f
:101bd400b1fb07000000e000010035000044eb0009
:101be4000804e00003003200d0c0b300004f7800c6
:101bf400af003700a08e8000b18e800018c0b30003
:101c040002002000031f2400a3fb07000000e000e3
:101c1400010035000044eb000804e000030032003a
:101c2400e0c0b300004f7800a1003700c08e8000f0
:101c3400d18e800018c0b3000200200003172400d6
:101c440095fb07000000e000010035000044eb00b4
:101c54000804e0000300320030c0b300004f7800f5
:101c640093003700e08e8000f18e800018c0b3002e
:101c7400020020000317240087fb07000000e00097
:101c8400010035000044eb000804e00003003200ca
:101c940060c0b300004f780085003700e08e8000fc
:101ca400f18e800018c0b300020020000317240046
:101cb40079fb07000000e000010035000044eb0060
:101cc4000804e0001b003200c08e8000d18e80002a
:101cd40018c0b30002002000031724006efb0700a5
:101ce4000000e000010035000044eb000804e000bf
:101cf40010003200e48e8000f58e8000c08e8000db
:101d0400d18e800018c0b3000001be000400be00e4
:101d140061fb07000000e000010035000044eb0017
:101d24000804e00003003200b0c0b300004f7800a4
:101d34005f003700e08e8000f18e800018c0b30091
:101d4400020020000317240053fb07000000e000fa
:101d5400010035000044eb000804e0001b003200e1
:101d6400c08e8000d18e800018c0b3000200200015
:101d74000317240048fb07000000e00001003500c1
:101d84000044eb000804e00010003200e48e800000
:101d9400f58e8000c08e8000d18e800018c0b30004
:101da4000001be000400be003dfb07000000e0008f
:101db40001003c000044eb000804e0000300320092
:101dc400c0c0b300004f780039003700e08e8000b7
:101dd400f18e800018c0b300020020000317240015
:101de4002ffb07000000e00001003c000044eb0072
:101df4000804e0002e003200608e8000718e8000a6
:101e040018c0b30002002000031f240024fb0700b5
:101e14000000e00001003c000044eb000804e00086
:101e240023003200808e8000918e800018c0b300a1
:101e3400020020008324240019fb07000000e000b6
:101e440001003c000044eb000804e00018003200ec
:101e5400a08e8000b18e800018c0b3000200200064
:101e6400031f24000efb07000000e00001003c00fb
:101e74000044eb000804e0000d003200c08e800036
:101e8400d18e800018c0b300020020000317240084
:101e940003fb07000000e00001003c000044eb00ed
:101ea4000804e000020032000040eb00004f78001c
:101eb4001e407800e74f50000a003a0090818000ed
:101ec400610060000000e00003003a00c0c0b300fd
:101ed40034f0b70057003700e0c0b30034f0b70067
:101ee400540037001e407800e84f50000a003a00c2
:101ef40090818000610060000000e00003003a006f
:101f0400c0c0b30034f0b7004a003700e0c0b300eb
:101f140034f0b700470037001e407800e94f500006
:101f2400060032001e407800ed4f500003003200de
:101f34001e407800ee4f500003003a00c0c1b300c9
:101f440034f0b7003b0037001e407800ea4f5000e1
:101f540003003a00a0c1b30034f0b70035003700e5
:101f64001e407800e54f500003003a0060c0b30003
:101f740034f0b7002f0037001e407800e44f5000c3
:101f840003003a0040c0b30034f0b7002900370022
:101f94001e407800e24f500003003a00a0c0b30096
:101fa40034f0b700230037001e407800e14f5000a2
:101fb40003003a0080c0b30034f0b7001d003700be
:101fc4001e407800eb4f500003003a00e0c1b3001c
:101fd40034f0b700170037001e407800eb4f500074
:101fe40003003a0000c2b30034f0b7001100370018
:101ff4001e407800e64f500003003a0060c1b30071
:1020040034f0b7000b0037001e407800e34f500057
:1020140003003a0080c1b30034f0b7000500370074
:102024001e4078000004e00002003a0020c0b30023
:1020340034f0b70005032100954278000081800048
:10204400118180004808de00004278000081800091
:10205400118180004008de0080417800008180000a
:10206400118180004809dd004800de000000710095
:10207400c808de00004178000081800011818000e2
:10208400004078001547980024479800334798008b
:10209400424798005047980034d0bf008080fb002e
:1020a40030d0bf000080fb000000e900808f5000aa
:1020b4000700320034d0bf0030f0b7000e00e80053
:1020c40000017800510020000005200033000700c3
:1020d4004f0478000080fa00000006000a00fa00ad
:1020e400200798003107980042079800e0cfb3001a
:1020f400004f78002e0090004880de008040780079
:102104001e40780000c06800004f78002e00900048
:10211400804078001e40780000c06800004f7800be
:102124003e0090004880de00804078001e40780029
:1021340000c06800004f78003e00900080407800a6
:102144001e40780000c06800004f78000000eb00db
:10215400100798000000eb001007980008003700f3
:102164001e009000ce0090000080400010407800d7
:102174001e4f68001e0090000000e8001007980041
:102184009e0090003e009000808f5000f4ff3500c8
:102194001e4078000080fa00000006000e00fa00dd
:1021a400889fbe0040079800510798006207980076
:1021b4000f0478000f007800800478005e0090001f
:1021c400660040008000e900210798000000e80054
:1021d4000000e8000000d100800040000f007800fb
:1021e400818747000000e8000000d10000004000a3
:1021f400300798000000eb00000f78003e009000cc
:102204001e004000e1cfb300014878001e0fe80033
:102214004e0090004880de00804078003e00900030
:102224001e004000014878001e0fe8004e00900098
:10223400804078003e0090001e0040000148780075
:102244001e0fe8005e0090004880de0080407800a9
:102254003e0090001e004000014878001e0fe80078
:102264005e009000804078003e0090001e00400018
:10227400014878001e0fe8000000eb0010079800ea
:102284000000eb00100798000b0037001e009000c0
:10229400ee00900000804000904078003e009000e6
:1022a4001e004000014878001e0fe8001e00900048
:1022b4000000e800100798009e0090005e00900067
:1022c400808f5000f1ff35006e019000de00900019
:1022d4004e00900081ff0700be0090009e804000e9
:1022e400804878001e0fe8005e009000e600400081
:1022f4003e009000cd040700890778008807780025
:102304004f04be000080fa00000006000400fa003a
:102314002047980070818000e30f500024003200b1
:10232400e30f500005003e00e10f500011003200a1
:10233400e10f500016003e0007003700e50f500083
:1023440037003200e50f500020003900e60f50003e
:1023540041003200530037002e409000e24f40000d
:1023640053003a0010002000708188002c30ef00e8
:10237400520037002e4090000080fb004800dd0032
:102384006081880020002000708188004b003700a5
:102394002e4090008080fb0060818000008040001f
:1023a400608188003000200070818800430037007d
:1023b4002e4090000080fb004800dd004081880032
:1023c40040002000708188003c0037002e409000bf
:1023d4008080fb00408180000080400040818800b4
:1023e400408180000000e00003003a00600020000b
:1023f400708188003100370041818000f03f200067
:10240400808f5000020034002e30ef002b00370084
:1024140050002000708188002a30ef002700370028
:1024240050818000a1142100808040002e41900042
:10243400824878000000e8005081880051818000c3
:1024440040818000808f50001b0035006000200018
:10245400708188001900370041818000608180000c
:10246400a21421001dff0700004f7800ae40900029
:10247400114798001e4090009e40780080cf500085
:1024840006003a004081800080407800608180002e
:1024940000407800a21421000a0007002e30ef004b
:1024a400060037002e30ef00000000000300370064
:1024b4000000000001003700000000000080fa0066
:1024c400000006000800fa004047980051479800b1
:1024d400320798000000eb00000f78004e40900097
:1024e4000080fb0011052000810f500047003200de
:1024f40011052000810f500004003c00010220005f
:10250400810f50000e0032004c00370021052000de
:10251400810f50004100320001082000810f50005b
:1025240043003a005e4090000080fb003e019000b2
:10253400800078000008200018ff07003f003700e3
:102544003e009000104078000080fb0010079800c7
:102554003e0090000000e800104078000080fb007e
:10256400000f78001e0090000000e0000b003a000d
:102574001e00780000407800614060000080fb008d
:10258400610060004a00dd002171800001a0a1000b
:102594000100700020718800280037001e009000a0
:1025a400e10f50000b003a001e0078000040780054
:1025b400614060000080fb00610060004700dd00b6
:1025c400217380000170a100010070002073880055
:1025d4001a0037001e009000e20f500016003a0067
:1025e4001e00780000407800614060000080fb001d
:1025f400610060004600dd00217380000160a100dd
:1026040001007000207388000c0037003e00900029
:1026140010407800e3fb0700080037003e009000fc
:1026240010407800d1fb07000000000003003700d1
:102634000000000001003700000000000080fa00e4
:10264400000006000000fa00c301a8000080eb00af
:10265400e00e88000080eb00f00e8800c1e1a800c5
:102664000080fa00000006000000fa00c305a8007c
:102674000080eb00e02e88000080eb00f02e880044
:10268400c1e5a8000080fa00000006000c00fa0072
:10269400889fbe008a9fbe004080800051808000d9
:1026a40001f90700008fbe00608080007180800007
:1026b4002080880031808800300e80008000eb008c
:1026c4002007980031079800500e80008000eb002e
:1026d400c000dd00000020002e019000be0190002b
:1026e40002004000838048002007980031079800ca
:1026f400302e80008000eb004007980051079800be
:10270400502e80008000eb00c000dd00000020009f
:102714004e019000de0190000200400083804800da
:1027240040079800510798002e009000be009000ca
:1027340019f90700d25d2b0043c82300bff9070035
:1027440040808800518088004e009000de00900098
:1027540011f90700d25d2b0043c82b00b7f907001d
:1027640060808800718088004880800059808000e3
:102774001e0078009e00900007f907000001be00cb
:102784000800be0022f8070080808800918088003d
:10279400648080007580800020808000318080000b
:1027a4000001be000400be0019f80700a0808800e4
:1027b400b18088008480800095808000a0808000a3
:1027c400b18080000001be000400be0010f80700c4
:1027d400a2992900c33824006df80700c08088003e
:1027e400d18088008480800095808000a080800053
:1027f400b18080000001be000400be0005f807009f
:10280400020020000300240061f80700e080880033
:10281400f180880080808000918080000200200088
:10282400a337240085f90700808f8800918f8800e2
:10283400a0808000b180800002002000a337240023
:102844007ef90700a08f8800b18f8800848f8000f4
:10285400958f8000a08f8000b18f80000001be00a2
:102864000400be00ebf70700020020000300240070
:1028740047f80700c08f8800d18f8800c08080008f
:10288400d180800002002000a33724006bf90700e8
:10289400e08f8800f18f8800009080001190800004
:1028a40060908800719088002090800031908000b2
:1028b4008090880091908800409080005190800022
:1028c400a0908800b1908800689080007990800082
:1028d400c08f8000d18f800002002000a337240025
:1028e40056f907000005be00a0908000b19080005a
:1028f40025f807000001be000a00be004ff90700da
:102904000001be000800be00c2f707000090880066
:10291400119088008890800099908000c08f80007a
:10292400d18f800002002000a337240043f9070060
:102934000005be00a0908000b1908000dcf9070083
:102944000001be000a00be003cf907000001be0001
:102954000800be00aff7070020908800319088007f
:10296400a4908000b5908000c0808000d180800059
:102974000001be000400be00a6f7070040908800d6
:1029840051908800409080005190800018c0b3009e
:10299400b2fd20009304240041f807000000e00089
:1029a40001003c000044eb000804e0000700320092
:1029b4004090800051908000b2fd2000930c2400d0
:1029c40093f7070040908800519088004090800061
:1029d4005190800018c0b300b2fd200093042c0075
:1029e4002df807000000e000010035000044eb0072
:1029f4000804e000070032004090800051908000fd
:102a0400b2fd2000930c240082f707004090880058
:102a1400519088004f05be004f04be000080fa00ac
:102a2400000006001800fa00008180001181800077
:102a34000001be008000eb000e007800f8010700e2
:102a440000908000119080000001be004100200031
:102a54000e007800d901070020908000319080009a
:102a64000001be00810020000e007800d3010700a1
:102a740040908000519080000001be00c100200001
:102a84000e007800cd010700c08f8000d18f800038
:102a94000001be00010120000e007800c7010700fc
:102aa400e08f8000f18f80000001be004101200012
:102ab4000e007800c10107000e017800810120009a
:102ac40010062000b5fd07000080fa000000060093
:102ad4000000fa0013e1a90011e1a9001061a800a7
:102ae4001021a90081088000f0fc2f000080600004
:102af400800888000a21ef000621ef00202620002c
:102b040070088800200320006008880021428000ab
:102b140080ff2f00008060000000a0002042880099
:102b24000108a9002108a80011e1a8000080fa000a
:102b3400000006000000fa0005e1a9000421a90034
:102b44000068a9002068a80005e1a8000000200092
:102b5400a1372400020007000080fa0000000600ec
:102b64000400fa00881f7800008fbe00210880004e
:102b7400f0fc2f0000806000200888001e0178000f
:102b84009e0190000068290081c1240080f707009d
:102b940018c0b30002f02f00f3772400c0f7070039
:102ba4000000e00001003c000044eb000804e000e9
:102bb4005400320021088000f0fc2f0000806000e7
:102bc4000040a000200888001e0178009e019000ab
:102bd4000068290081c124006df70700020020006d
:102be400031024006af7070018c0b30002f02f0096
:102bf400f3772400aaf707000000e00001003c007e
:102c04000044eb000804e000320032002108800098
:102c1400f0fc2f00008060000050a0002008880015
:102c24001e0178009e0190000068290081c12400e3
:102c340057f70700020020000328240054f7070078
:102c440018c0b30002f02f00f377240094f70700b4
:102c54000000e00001003c000044eb000804e00038
:102c640010003200210880000003200001007000e1
:102c7400200888001e0178009e0190000068290049
:102c840081c1240042f70700020020000338240019
:102c94003ff7070084f70700000078001008880059
:102ca400200037001e0178009e0190000068290072
:102cb40081c1240036f70700020020000328240005
:102cc40033f7070078f70700000078001008880041
:102cd400140037001e0178009e019000006829004e
:102ce40081c124002af707000200200003102400f9
:102cf40027f707006cf70700000078001008880029
:102d0400080037001e0178009e0190000068290029
:102d140081c124001ef7070063f707000000780054
:102d2400100888004f0478000080fa0000000600b4
:102d34000000fa001fe1a9001e21a9000368a900f0
:102d44002368a8001fe1a80000002000a147240078
:102d5400020007000080fa00000006000400fa00e8
:102d6400881f7800008fbe00f1088000f0fc2f005f
:102d740000806000f00888001e0178009e01900029
:102d84000068290081c1240001f7070018c0b300be
:102d940002f02f00f377240041f707000000e00061
:102da40001003c000044eb000804e0005400320041
:102db400f1088000f0fc2f00008060000040a000bb
:102dc400f00888001e0178009e0190000068290028
:102dd40081c12400eef60700020020000310240045
:102de400ebf6070018c0b30002f02f00f3772400bd
:102df4002bf707000000e00001003c000044eb005a
:102e04000804e00032003200f1088000f0fc2f00da
:102e1400008060000050a000f00888001e017800c7
:102e24009e0190000068290081c12400d8f60700a3
:102e34000200200003282400d5f6070018c0b300c0
:102e440002f02f00f377240015f707000000e000dc
:102e540001003c000044eb000804e00010003200d4
:102e6400f10880000003200001007000f0088800d1
:102e74001e0178009e0190000068290081c1240091
:102e8400c3f607000200200003382400c0f6070040
:102e940005f70700000078001008880020003700bc
:102ea4001e0178009e0190000068290081c1240061
:102eb400b7f607000200200003282400b4f6070038
:102ec400f9f60700000078001008880014003700a5
:102ed4001e0178009e0190000068290081c1240031
:102ee400abf607000200200003102400a8f6070038
:102ef400edf607000000780010088800080037008d
:102f04001e0178009e0190000068290081c1240000
:102f14009ff60700e4f60700000078001008880018
:102f24004f0478000080fa00000006000400fa0054
:102f3400881f7800008fbe0018c0b3006011b8006d
:102f44001e0078009e009000d5f607000000e00007
:102f540001003d000044eb000804e00003003200df
:102f64001e0078009e009000030037001e007800c9
:102f74009e00900001f0a2004f0478000080fa0047
:102f8400000006000800fa00881f7800008fbe00c9
:102f9400220798003307980018c0b3002e01900050
:102fa400be0190001e0078009e009000bcf6070051
:102fb4000000e00001003c000044eb000804e000d5
:102fc400030032001e0078009e00900002003700cb
:102fd4002e009000be0090004f0478000080fa009c
:102fe400000006000800fa00881f7800008fbe0069
:102ff400220798003307980018c0b3002e019000f0
:10300400be0190001e0078009e009000a2f607000a
:103014000000e000010035000044eb000804e0007b
:10302400030032001e0078009e009000020037006a
:103034002e009000be0090004f0478000080fa003b
:10304400000006000c00fa00881f7800008fbe0004
:103054002207980033079800440798005507980002
:1030640018c0b3002e019000be0190001e0078002d
:103074009e00900088f607000000e0000100350083
:103084000044eb000804e000030032002e0090002e
:10309400be0090001000370018c0b3004e0190002d
:1030a400de0190001e0078009e0090007cf6070070
:1030b4000000e00001003c000044eb000804e000d4
:1030c400030032004e009000de0090000200370042
:1030d4001e0078009e0090004f0478000080fa00e3
:1030e400000006000800fa00200798003107980045
:1030f400b2fd2000930424002e009000be00900036
:10310400c3f50700b2fd2000930c2400a7f60700c6
:10311400b2fd200093042400bef50700008fbe001a
:10312400b2fd2000930424001e0078009e0090004d
:10313400b8f50700b2fd2000930c24009bf60700ad
:10314400b2fd200093042400b1f507000080fa00ca
:10315400000006000a00fa003007980041079800b2
:10316400be0090004e009000008f40001e007800ca
:10317400100178009001900012079800230798002e
:103184001e009000ae0090000080fa0000000600cf
:103194000600fa0010079800210798009e0090008e
:1031a4002e009000008f40001e00780090009000d8
:1031b400100078000080fa00000006000c00fa00fd
:1031c4002007980031079800420798005307980099
:1031d40068004700100798000000eb00000f78001b
:1031e4000a0037003e0090001e004000ae00900030
:1031f400008040009e0078001e0190008100410084
:1032040091407800014878001e0fe8001e00780005
:10321400e30f5000f3ff34000080fa0000000600c2
:103224000c00fa0020079800310798004207980024
:103234005307980068004700100798000000eb004f
:10324400000f78000b0037003e0090001e00400085
:10325400ae00900000804000320020009e0051002b
:103264001e019000810041009140780001487800df
:103274001e0fe8001e007800e30f5000f2ff340038
:103284000080fa00000006000c00fa0020079800f5
:1032940031079800420798005307980068004700d8
:1032a400100798000000eb00000f78000a003700b8
:1032b4003e0090001e004000ae00900000804000e0
:1032c4009e0078001e01900081004100914078002a
:1032d400014878001e0fe8001e007800e70f500038
:1032e400f3ff34000080fa00000006000000fa003a
:1032f4001160800080ff2f00008060001060880053
:1033040000fa20002060880023aca800238ca800c9
:1033140011618000f03f2f000080600000a0a00039
:10332400106188003000200020618800c3aca80030
:10333400c38ca80011668000f03f2f00008060005d
:1033440000a0a000106688003000200020668800dd
:1033540001eca8000080fa00000006000000fa005a
:10336400889fbe00648f8000758f8000408f80002e
:10337400518f800018c0b3000001be000400be00dd
:10338400c5f507000000e000010035000044eb0033
:103394000804e0000d003200488f8000598f80003f
:1033a400648f8000758f8000e0818000f18180004f
:1033b4000001be000400be0016f507000801be00af
:1033c40008ff0700608f8800718f8800648f800079
:1033d400758f8000408f8000518f800018c0b3002b
:1033e4000001be000400be00adf507000000e000cf
:1033f40001003c000044eb000804e0000d00320032
:10340400488f8000598f8000648f8000758f800002
:10341400e0818000f18180000001be000400be0054
:10342400fbf407000801be00d6fe0700608f880089
:10343400718f8800608f8000718f800018c0b30086
:103444006011b80096f507000000e00001003c00a0
:103454000044eb000804e00004003200c3cca900df
:1034640024eea800c3eca80003003700c3eca900b5
:1034740024cea800c3cca800608f8000718f800088
:10348400aafe070002002000032224006bf60700b6
:10349400a6f507000000780030668800248f8000bd
:1034a400358f8000008f8000118f800018c0b3001a
:1034b4000001be000400be0077f507000000e00034
:1034c400010035000044eb000804e0000d00320068
:1034d400088f8000198f8000248f8000358f800032
:1034e400e0818000f18180000001be000400be0084
:1034f400c8f407000801be00bafe0700208f880048
:10350400318f8800248f8000358f8000008f8000e9
:10351400118f800018c0b3000001be000400be007b
:103524005ff507000000e00001003c000044eb00f0
:103534000804e0000d003200088f8000198f80001d
:10354400248f8000358f8000e0818000f18180002d
:103554000001be000400be00adf407000801be0077
:1035640088fe0700208f8800318f8800208f80001c
:10357400318f800018c0b3006011b80048f507000f
:103584000000e00001003c000044eb000804e000ff
:103594000400320023cca90015eea80023eca800f7
:1035a4000300370023eca90015cea80023cca80003
:1035b400208f8000318f80005cfe07000200200015
:1035c400032224001df6070058f5070000007800c8
:1035d400306188004f04be000080fa00000006003d
:1035e4000600fa00008fbe00424798004e4090004b
:1035f400e14f500004003a001e0178009e01900043
:10360400028f8800138f88004e4090000004e00071
:1036140004003a001e0178009e019000428f880049
:10362400538f88000080fa00000006000600fa00ac
:1036340010079800210798000040eb00004f780025
:1036440054000700ae009000810f500011003400b8
:103654000040eb00004f7800060037001e80fb009e
:103664009e00900000804000104078000b0007008e
:103674001e4fe8009e80fb002e009000808f5000bb
:10368400f6ff35002e0007000004e00001003a00b8
:10369400220007000080fa00000006000200fa0081
:1036a400004f7800b0818000a10421000080400018
:1036b4001e487800b08180000000e800b0818800d6
:1036c400b1818000f0072000808f50000100340099
:1036d4003630ef000080fa00000006000200fa0015
:1036e400c0818000a104210000804000104f7800b8
:1036f400c08180000000e800c0818800c181800092
:10370400f0072000808f5000010034003830ef00b3
:103714001e4078000080fa00000006000200fa0053
:1037240010c0b3003af0b700ecff0700004f780078
:103734001e80fb00201188000080fa0000000600b3
:103744000000fa003ad0bf000080fa000000060032
:103754000200fa00b1818000c0818000808f500097
:1037640004003500b1818000c0818000008f5000ca
:1037740005003700b1818000c081800000805000c6
:1037840001082000010f40001e0078000080fa00ac
:10379400000006000200fa00edff07000108200007
:1037a400008f50001e0078000080fa000000060020
:1037b4000000fa0021e3a9002143a80001198000b8
:1037c400f0cf2f0000806000001988002043a9007a
:1037d40001198000000e200001007000001988000b
:1037e40011198000f0ff210000806000101988008a
:1037f4002343a80011198000f0cf2f00008060003f
:10380400101988001119800030f82f000080600022
:103814000040a000101988002203a9002223a90057
:1038240025e3a900f0c0b30024e3b7002119800008
:10383400f00f2e008080600000f020000100700076
:10384400201988003303a9001e2ea8002e0ea800fc
:103854002f6ea8004feea8006f2ea8003063a800ba
:1038640030c3a8003163a80031e3a8002e03a800e8
:103874004119800000fc2f0000806000401988007e
:1038840028e3a90001a8a90021a8a80021e3a80011
:103894000080fa00000006000000fa002023a800bf
:1038a4000080fa00000006000000fa0080212100d8
:1038b4000080fa00000006000000fa0045d0bf00b6
:1038c4000080fa00000006000000fa004570ef00d6
:1038d4000080fa00000006000200fa00004f7800a1
:1038e4002a0007000000e0000c0034000082800081
:1038f400a10c2100008040001e4878000082800056
:103904000000e8000082880001828000f0072000a7
:10391400808f5000010034004030ef000080fa0036
:10392400000006000200fa0010828000a10c2100b1
:1039340000804000104f7800108280000000e800f2
:103944001082880011828000f0072000808f5000d0
:10395400010034004230ef001e4078000080fa007d
:10396400000006000000fa0001828000108280003e
:10397400808f50000200320010c0b30001003700f5
:103984000040eb000080fa00000006000200fa008c
:103994000500070001082000008f50001e00780079
:1039a4000080fa00000006000200fa000182800094
:1039b40010828000808f5000040035000182800056
:1039c40010828000008f50000500370011828000b3
:1039d400008280000080500001082000010f400098
:1039e4001e0078000080fa00000006000000fa00c3
:1039f4002002a9000111800090ff2f0000806000c8
:103a04000011880020a2a9002062a800500520000f
:103a14004011880023a2a90023e2a9000188a9007b
:103a24002188a80011118000f0f32f0000806000ad
:103a3400101188000168a9002168a80021e2a800eb
:103a44002342a8000080fa00000006000600fa00e5
:103a540010079800210798000040eb00004f780001
:103a64000040eb00004f78000e003700000000001b
:103a74001111800000202000008060000000e000a0
:103a8400fbff3a001e009000104078000080fb000d
:103a9400201188001e0090000000e8001007980024
:103aa4001e4fe8009e80fb002e009000808f500087
:103ab400eeff35000080fa00000006000000fa0066
:103ac4000e2eef001e2eef002e2eef003e2eef00e6
:103ad4004e2eef005e2eef006e2eef00214ea90059
:103ae40060cea90060eea90011cea90011eea900d4
:103af40020cea90020eea9002136800000f82f0076
:103b0400008060008001b3002036880011348000fa
:103b140000fc2f00008060000000a000103488002a
:103b24000136800000f82f0080806000100620001d
:103b3400010070000036880001368000f00f280074
:103b440080806000000026000100700000368800bc
:103b5400e135800000f82f008080600060042000c0
:103b640001007000e0358800e1358000f00f280086
:103b7400808060000050240001007000e03588005f
:083b84000080fa0000000600b9
:020000040000fa
:103b8c00201000000800000080000000ca11000096
:103b9c004e000000800000003c10000004000000fb
:103bac00820000000000a00040000000181200007d
:103bbc000a00000080000000441000000200000019
:103bcc00800000004610000002000000820000008f
:103bdc000100000030100000060000008000000012
:103bec004a10000080000000800000003610000029
:103bfc000600000080000000ca10000080000000d9
:103c0c008000000040100000040000008000000054
:103c1c004a11000080000000800000002810000005
:103c2c0008000000800000000010000020000000d0
:103c3c00800000004810000002000000800000001e
:043c4c000000000074
:020000040000fa
:103c50000000fa00f0032000303a8800213a80008a
:103c6000f0f32f0000806000203a8800213a8000a5
:103c700000fe2f00008060000000a000203a8800b5
:103c80001200200080072000a109200033742000ca
:103c9000804978008149780082497800103a800094
:103ca000000178000200a0006004200071052000df
:103cb0002374200080497800814978008249780087
:103cc00000000000113a80000000270080806000a2
:103cd00000002100808f5000faff3a000000000031
:103ce000113a800000022000008060000000e00027
:103cf000fbff32000080fa00000006000400fa001a
:103d0000008fbe00b2fd2000930424001e00780046
:103d10009e0090001ff307000200200043332400a0
:103d200047f407000080fa00000006000400fa00d3
:103d3000008fbe00b2fd2000930424001e00780016
:103d40009e0090003ef40700020020004333240050
:0c3d500010f307000080fa0000000600dd
:020000040000fa
:02000004000af0
:04afe000cfff00009f
:020000040000fa
:02000004000af0
:04afe400ffff00006b
:020000040000fa
:02000004000af0
:04afe8007fff0000e7
:020000040000fa
:02000004000af0
:04afec005fff000003
:020000040000fa
:02000004000af0
:04aff00038ff000026
:020000040000fa
:02000004000af0
:04aff400ffff00005b
:00000001FF
