:020000040000fa
:080000000002040000000000f2
:020000040000fa
:04000800de03000013
:020000040000fa
:04000c00de0300000f
:020000040000fa
:04001000de0300000b
:020000040000fa
:04001400de03000007
:020000040000fa
:04001800de03000003
:020000040000fa
:04001c00de030000ff
:020000040000fa
:04002000de030000fb
:020000040000fa
:04002400de030000f7
:020000040000fa
:04002800de030000f3
:020000040000fa
:04002c00de030000ef
:020000040000fa
:04003000de030000eb
:020000040000fa
:0400340002030000c3
:020000040000fa
:04003800de030000e3
:020000040000fa
:04003c00de030000df
:020000040000fa
:04004000de030000db
:020000040000fa
:04004400de030000d7
:020000040000fa
:04004800fa020000b8
:020000040000fa
:04004c00de030000cf
:020000040000fa
:04005000de030000cb
:020000040000fa
:040054009a0300000b
:020000040000fa
:040058007003000031
:020000040000fa
:04005c004c03000051
:020000040000fa
:04006000de030000bb
:020000040000fa
:04006400de030000b7
:020000040000fa
:04006800de030000b3
:020000040000fa
:04006c00de030000af
:020000040000fa
:04007000de030000ab
:020000040000fa
:04007400de030000a7
:020000040000fa
:04007800de030000a3
:020000040000fa
:04007c00de0300009f
:020000040000fa
:04008000de0300009b
:020000040000fa
:04008400de03000097
:020000040000fa
:04008800de03000093
:020000040000fa
:04008c00de0300008f
:020000040000fa
:04009000de0300008b
:020000040000fa
:040094002203000043
:020000040000fa
:04009800de03000083
:020000040000fa
:04009c00de0300007f
:020000040000fa
:0400a000de0300007b
:020000040000fa
:0400a400de03000077
:020000040000fa
:0400a800de03000073
:020000040000fa
:0400ac00de0300006f
:020000040000fa
:0400b000de0300006b
:020000040000fa
:0400b400de03000067
:020000040000fa
:0400b800de03000063
:020000040000fa
:0400bc00de0300005f
:020000040000fa
:0400c000de0300005b
:020000040000fa
:0400c400de03000057
:020000040000fa
:0400c800de03000053
:020000040000fa
:0400cc00de0300004f
:020000040000fa
:0400d000de0300004b
:020000040000fa
:0400d400de03000047
:020000040000fa
:0400d800de03000043
:020000040000fa
:0400dc00de0300003f
:020000040000fa
:0400e000de0300003b
:020000040000fa
:0400e400de03000037
:020000040000fa
:0400e800de03000033
:020000040000fa
:0400ec00de0300002f
:020000040000fa
:0400f000de0300002b
:020000040000fa
:0400f400de03000027
:020000040000fa
:0400f800de03000023
:020000040000fa
:0400fc00de0300001f
:020000040000fa
:04010000de0300001a
:020000040000fa
:04010400de03000016
:020000040000fa
:04010800de03000012
:020000040000fa
:04010c00de0300000e
:020000040000fa
:04011000de0300000a
:020000040000fa
:04011400de03000006
:020000040000fa
:04011800de03000002
:020000040000fa
:04011c00de030000fe
:020000040000fa
:04012000de030000fa
:020000040000fa
:04012400de030000f6
:020000040000fa
:04012800de030000f2
:020000040000fa
:04012c00de030000ee
:020000040000fa
:04013000de030000ea
:020000040000fa
:04013400de030000e6
:020000040000fa
:04013800de030000e2
:020000040000fa
:04013c00de030000de
:020000040000fa
:04014000de030000da
:020000040000fa
:04014400de030000d6
:020000040000fa
:04014800de030000d2
:020000040000fa
:04014c00de030000ce
:020000040000fa
:04015000de030000ca
:020000040000fa
:04015400de030000c6
:020000040000fa
:04015800de030000c2
:020000040000fa
:04015c00de030000be
:020000040000fa
:04016000de030000ba
:020000040000fa
:04016400de030000b6
:020000040000fa
:04016800de030000b2
:020000040000fa
:04016c00de030000ae
:020000040000fa
:04017000de030000aa
:020000040000fa
:04017400de030000a6
:020000040000fa
:04017800de030000a2
:020000040000fa
:04017c00de0300009e
:020000040000fa
:04018000de0300009a
:020000040000fa
:04018400de03000096
:020000040000fa
:04018800de03000092
:020000040000fa
:04018c00de0300008e
:020000040000fa
:04019000de0300008a
:020000040000fa
:04019400de03000086
:020000040000fa
:04019800de03000082
:020000040000fa
:04019c00de0300007e
:020000040000fa
:0401a000de0300007a
:020000040000fa
:0401a400de03000076
:020000040000fa
:0401a800de03000072
:020000040000fa
:0401ac00de0300006e
:020000040000fa
:0401b000de0300006a
:020000040000fa
:0401b400de03000066
:020000040000fa
:0401b800de03000062
:020000040000fa
:0401bc00de0300005e
:020000040000fa
:0401c000de0300005a
:020000040000fa
:0401c400de03000056
:020000040000fa
:0401c800de03000052
:020000040000fa
:0401cc00de0300004e
:020000040000fa
:0401d000de0300004a
:020000040000fa
:0401d400de03000046
:020000040000fa
:0401d800de03000042
:020000040000fa
:0401dc00de0300003e
:020000040000fa
:0401e000de0300003a
:020000040000fa
:0401e400de03000036
:020000040000fa
:0401e800de03000032
:020000040000fa
:0401ec00de0300002e
:020000040000fa
:0401f000de0300002a
:020000040000fa
:0401f400de03000026
:020000040000fa
:0401f800de03000022
:020000040000fa
:0401fc00de0300001e
:020000040000fa
:04020000de03000019
:020000040000fa
:04020400de03000015
:020000040000fa
:04020800de03000011
:020000040000fa
:04020c00de0300000d
:020000040000fa
:04021000de03000009
:020000040000fa
:04021400de03000005
:020000040000fa
:04021800de03000001
:020000040000fa
:04021c00de030000fd
:020000040000fa
:04022000de030000f9
:020000040000fa
:04022400de030000f5
:020000040000fa
:04022800de030000f1
:020000040000fa
:04022c00de030000ed
:020000040000fa
:04023000de030000e9
:020000040000fa
:04023400de030000e5
:020000040000fa
:04023800de030000e1
:020000040000fa
:04023c00de030000dd
:020000040000fa
:04024000de030000d9
:020000040000fa
:04024400de030000d5
:020000040000fa
:04024800de030000d1
:020000040000fa
:04024c00de030000cd
:020000040000fa
:04025000de030000c9
:020000040000fa
:04025400de030000c5
:020000040000fa
:04025800de030000c1
:020000040000fa
:04025c00de030000bd
:020000040000fa
:04026000de030000b9
:020000040000fa
:04026400de030000b5
:020000040000fa
:04026800de030000b1
:020000040000fa
:04026c00de030000ad
:020000040000fa
:04027000de030000a9
:020000040000fa
:04027400de030000a5
:020000040000fa
:04027800de030000a1
:020000040000fa
:04027c00de0300009d
:020000040000fa
:04028000de03000099
:020000040000fa
:100400008f1d21000eff2c000e018800000000004f
:10041000000020000000e000020032000001200087
:100420002002880014000700e60007000000e0003a
:1004300003003a00008d2100010020000200370077
:100440000000200001002000810f70000100320038
:100450000f000700000020000000e0000200320052
:1004600000000200000000004a0702000000000037
:100470000040da000000fe00200020000000e00044
:1004800002003200100020009001880000000600e9
:10049000a1028800800478000000eb001f003700f4
:1004a000e284440054a0b4009905ba00e2844400f8
:1004b00054a0b4009906ba00e284440054a0b400e9
:1004c0000006eb00476fde00fd07b200ae018800ba
:1004d000636ce10003003a000ad801000000eb0061
:1004e0000e003700606ce10008003a00004deb00a0
:1004f0000a05e800020039003420ec000af0a000f0
:100500008b05e900f9ff3e00040037006168e10057
:10051000010032000086eb000b00070019c7ba008b
:100520000e04e0001905ba0003003a000a00e000da
:10053000dbff3a0000000600fe07b200ae028800b2
:100540008a047800f5ff37000cd0a300e20f4d00bd
:100550001c00390089027800354dba000a05e80010
:10056000020039003420ec000af0a0008b05e900fd
:100570000f003200254dba000a05e80002003900dc
:100580003420ec000af0a0008b05e90008003200de
:100590000c00e0000600320015cdba000a05e800a4
:1005a000020039003420ec000af0a0008b05e900bd
:1005b0008984e80054a0b4000b00e000e2ff3a0098
:1005c000000006009902ba00055d78008b05e9007d
:1005d000f7ff3200c82ade00055d78008b05e900d0
:1005e000f3ff32000c00e000f1ff320019ddba0029
:1005f000eeff37000000fa000108a9000080fa00b1
:10060000004006003600f800809fbe00829fbe00ba
:10061000849fbe00869fbe000000fa000068a9000b
:10062000550807002a0a07000080fa004f03be00a1
:100630004f02be004f01be004f00be003600f90061
:10064000004006003600f800809fbe00829fbe007a
:10065000849fbe00869fbe000000fa000368a900c8
:10066000008080001180800061004000e080480030
:100670000080880011808800eb0207000080fa00eb
:100680004f03be004f02be004f01be004f00be0030
:100690003600f90000400600801f78000000fa00d4
:1006a00001a8a90000188000708e88001018800032
:1006b000808e880020188000908e8800301880007e
:1006c000a08e880040188000b08e880010c0b30053
:1006d00025f0b7000080fa004f00780000400600c7
:1006e0003600f800809fbe00829fbe00849fbe003f
:1006f000869fbe000000fa000188a900c18080002a
:10070000b0808000808f5000020032009109070005
:10071000010037001a70ef000080fa004f03be009e
:100720004f02be004f01be004f00be003600f90070
:10073000004006003600f800809fbe00829fbe0089
:10074000849fbe00869fbe000000fa000168a900d9
:1007500010118000640060000000e0000100320021
:100760002242a90010118000620060000000e00039
:10077000060032002222a900050037003011800057
:1007800000407800e2090700010037000000000087
:1007900010118000610060000000e000f7ff3a00e7
:1007a0000080fa004f03be004f02be004f01be00a2
:1007b0004f00be003600f900004006000040da009d
:1007c0000000fe000000050003f0a200889fbe00ac
:1007d0008a9fbe008c1f7800180107001f0133009c
:1007e0006450e1004f0032006420e100520032000a
:1007f00003826c0007003b000905d0000306d0000f
:10080000820f54000c065d00020039000200320025
:1008100089017800030678008582550004003d00b8
:100820000003fd008103fd008502ea008b85420084
:10083000840f720002003b0060001000e08018008e
:100840006011b8000005eb007a28e1000a003900c9
:1008500006007800c75ddd00f707b20087807500ed
:100860002d003700828171000a0178006105600067
:100870008180d1000080d3008502e900f9ff3b00b0
:10088000060440008784480002003b006004140016
:10089000e0841c000988a300070032008a817100ef
:1008a00082817100610164008904d1000884d30051
:1008b0008b05e800170037000978a30013003a0001
:1008c0000b00e000130034008b05e900080444002d
:1008d00089844c000a4474000978a3000d003a0092
:1008e0000b00e000070034008b05e9000804440019
:1008f00089844c0001003a000b0020000978a30015
:10090000f7ff32000001eb00020037008281710026
:100910000a0178008e0007000cf0a70001f0a0008b
:10092000d70037006420e10002003a00838f6c009a
:10093000d70033000801be000200be00d00037001f
:10094000889fbe008a9fbe008c1f7800bb000700f6
:10095000c200330003866c006450e1002e003200b8
:100960006420e100330032006150e1002f003200ca
:100970006120e1003100320085855500eb07b000b1
:100980000900200008042000050037000804440086
:1009900089844c000a0031000603430087834b0022
:1009a0000001530081815b00f8ff33000203be00a9
:1009b0000800a0000804440089844c00f6ff3900b8
:1009c000c639dd00830173000100320013002000ee
:1009d0008904d1000884d3000998a30005003200df
:1009e0000800a7000300a0008904d1000884d300f8
:1009f0008b05e8008904d1000884d3000001eb00d6
:100a00000281d2005200070001f0a1000cf0a70003
:100a100001f0a0009a0037006420e1009c00320041
:100a20000801be000200be00f7ff37006120e100b0
:100a3000970032006000b800f3ff3700000020008c
:100a400001f82700f0ff370014002000c70037002e
:100a5000f4ff2f00c50037000001be006200070050
:100a60000470a70003f0a1006509b1001600320070
:100a70000d0035006828e10006003500f0ff2f006a
:100a8000f1ff27000300e00013003b0001002800f5
:100a90000000050000004000818048008502e90058
:100aa000fcff3a0008003700f88f420002003c00cb
:100ab0008000eb00000005008100d1000080d30021
:100ac0008502e800fcff3a000300e00002003b0062
:100ad00060001000e0801800000006000001be0069
:100ae000410007000470a70003f0a10003f8a30071
:100af00013003a006509b10010003200090035000a
:100b00006928e1000200350001002800000005000e
:100b100000004000818048008502e900fcff3a00a7
:100b200000000600f88f4200050035008100d1006a
:100b30000080d3008502e800fcff3a0000000600b8
:100b40008000eb00000005006011b800a200370033
:100b500081002000618055000b003d000b0020004b
:100b600061fe2f000100e1001d0034008281710050
:100b7000610164008904d1000884d3000000e8000a
:100b8000faff3a0071002000610064000300700069
:100b9000020060000900320061044400e0844c005f
:100ba0000988a500050032008b05e8006808e1000f
:100bb00002003a008904d1000884d300f20f20001b
:100bc0000258e10005003d00c75ddd00f907b200f5
:100bd0008980750008007800000006000bf82700e7
:100be0008b00780000000500c70ade00f107b200a4
:100bf000f50fb20008003200e1cf420002003200df
:100c00000170a00024000500810f70000100320077
:100c10000408050044000500810f700002003a003e
:100c2000140005008502e9000000400081c0480072
:100c3000fcff3b000170a000240005000004be0082
:100c4000e9ff07000003be000405be000200be006d
:100c5000e5ff0700844f7500000006000200be009b
:100c60006450e100050036006420e1000200360017
:100c70000968a30001003a000800be000160a0005e
:100c80004f0678004f05be004f04be00000006006e
:100c9000f0ff2f00f1ff2700f9ff3700889fbe000b
:100ca0008a9fbe008c1f7800e4ff0700ebff330033
:100cb00003866c006450e100240032006420e100ef
:100cc000270032006150e100220032006120e10083
:100cd000210032008b854200eb07b1000134b800df
:100ce000003ab8000804420089844a00013ab8007a
:100cf0000030b8008880400009014a000400330039
:100d00000000400081804800020149008b05e90095
:100d1000c909dd00830170000100320013002000ca
:100d2000c814de004814dd004709de001200b200de
:100d3000c808de000884700085ff070001f0a100ec
:100d40000cf0a70001f0a000cdff37006120e1000a
:100d5000cfff32000801be000200be00f7ff3700df
:100d60006150e100fcff3a00c9ff3700889fbe00d8
:100d70008a9fbe00841f7800b0ff07004f007800f4
:100d800011003300f0ff2f00838f6c0006003b0042
:100d9000040565000a00a7000800370009f0a60056
:100da0001000200008003700820f5400838f5c0081
:100db000030039001000200001003e000000200068
:100dc00009f0a7000000ea004f05be004f04be0076
:100dd0000000e00000000600889fbe008a9fbe0061
:100de000008270000402710004827100260032004b
:100df0000004be000200be006011b8006b092000b4
:100e0000950220000182cf000a0039000541b1009f
:100e10000082cf00070039000541b1000982cf00f0
:100e2000040039000541b1000882cf0001003900fb
:100e30000541b10005425200120032000a003b0099
:100e400082817100610164008100d1000080d300c3
:100e50008984d3000884d3008b05e8000442e800ad
:100e6000f7ff3a00070037000804440089844c006b
:100e700000004800818048008b05e9000442e90039
:100e8000f9ff3a0032ff07004f05be004f04be00d5
:040e90000000060058
:020000040000fa
:100e94001000fa00889fbe008a9fbe0094080700d5
:100ea400e9080700000507001805070015060700f4
:100eb400cc07070094050700590807000b08070032
:100ec400e14f5000b7003a000c0807000308070080
:100ed400100798001e0090000080e80010007800c1
:100ee4008000eb0017ff0700323323003305240092
:100ef40069ff070002002000035824008ffe07004a
:100f0400d2cc2c00c304240063ff07002007980000
:100f1400310798002e019000be01900000002000cf
:100f24008120240085fe070002002000030a24001b
:100f340024fe0700508d8800618d88001e009000fb
:100f440064004000100078008000eb00fdfe070004
:100f540032332300330524004fff07000200200032
:100f64000358240075fe0700d2cc2c00c3042400cf
:100f740049ff070020079800310798002e019000d0
:100f8400be01900000002000812024006bfe0700b9
:100f940002002000030a24000afe0700708d880066
:100fa400818d88001e0090006800400010007800c9
:100fb4008000eb00e3fe07003233230033052400f6
:100fc40035ff070002002000035824005bfe0700e1
:100fd400d2cc2c00c30424002fff07002007980064
:100fe400310798002e019000be01900000002000ff
:100ff4008120240051fe070002002000030a24007f
:10100400f0fd0700908d8800a18d88001e009000df
:1010140066004000100078008000eb00c9fe070065
:1010240032332300330524001bff07000200200095
:101034000358240041fe0700d2cc2c00c304240032
:1010440015ff070020079800310798002e01900033
:10105400be019000000020008120240037fe07001c
:1010640002002000030a2400d6fd0700b08d88008a
:10107400c18d88001e009000100078008000eb00f5
:10108400b0fe0700323323003305240002ff0700bb
:10109400020020000358240028fe0700d2cc2c00b4
:1010a400c3042400fcfe07002007980031079800c1
:1010b4002e019000be019000000020008120240039
:1010c4001efe070002002000030a2400bdfd0700e5
:1010d400d08d8800e18d8800b08d8000c18d8000a6
:1010e4007dfe070080457800908d8000a18d8000f2
:1010f40079fe070000457800708d8000818d8000a6
:1011040075fe070080447800508d8000618d80005a
:1011140071fe070000447800d08d8000e18d8000ce
:101124006dfe0700004078001b4f98002a4f98007e
:10113400394f9800484f9800504f98006900470075
:101144000001780051002000000320002c03070058
:10115400f08d8000018e80003efe070000007800c4
:1011640000f0a7000000ea0000447800308e800000
:10117400418e800037fe07000000780000f0a700d1
:101184000000ea0000407800684f9800704f980013
:101194006e004700000178002100200000042000b8
:1011a400170307000000eb00000f7800050037006c
:1011b40069070700004f98000e4890006c03070071
:1011c4001e0fe800850707009e0f5000f8ff3c0043
:1011d4003aff37000200fa00004f78001e80fb003f
:1011e4003081880030818000e10f500002003a0015
:1011f4001070ef000200370000c1b30010f0b70018
:101204000080fa00000006000200fa00004f780097
:101214001e41780001012100824878000080fa0014
:10122400000006000000fa0010d0bf000080fb00a0
:10123400cf80de001202200003002000820f500045
:10124400838f5800ed003e000006010021003700a6
:101254002b003700340037004100370042003700cc
:101264004c0037004d003700560037005700370058
:1012740061003700620037006b0037006c003700f4
:10128400760037007700370081003700d40037003c
:10129400da003700d9003700d8003700d70037000c
:1012a400d600370088003700910037007a003700f5
:1012b40083003700900037009d0037009e00370000
:1012c400ab003700ac003700b6003700b70037007a
:1012d400c10037000030ef000230ef000041eb00a6
:1012e4006000b800c405070012c0b3006000b80075
:1012f400c105070010c0b30010f0b700c4003700e8
:101304000280800013808000803e200001002000c5
:10131400800f5100818f5900bc00360020c0b300fb
:1013240010f0b700ba0037000041eb0000002000c5
:1013340001222c00b005070012c0b30000002000f9
:1013440001222400ac05070030c0b30010f0b70040
:10135400908080000000e80090808800ac00370096
:10136400ad000700aa0037000041eb000000200098
:1013740001172c00a005070012c0b30000002000d4
:10138400010a24009c05070050c0b30010f0b70008
:101394009f003700a00007009d0037000041eb00cc
:1013a4000000200001172c009305070012c0b300b1
:1013b4006000b8009005070050c0b30010f0b700fb
:1013c4009300370094000700910037000041eb00c0
:1013d40000002000010a2c008705070012c0b3009a
:1013e40000002000011724008305070090c0b3000b
:1013f40010f0b7008600370087000700840037002c
:101404000041eb006000b8007b05070012c0b30088
:1014140000002000011724007705070090c0b300e6
:1014240010f0b7007a0037007b000700780037001f
:101434000041eb000000200001172c006e0507009e
:1014440012c0b3000000200001172c006a05070039
:10145400d0c0b30010f0b7006d0037006e00070075
:101464006b0037000041eb0000002000011724004e
:101474006105070012c0b30000002000011724001a
:101484005d050700f0c0b30010f0b700600037003e
:10149400610007005e0037000041eb006000b80007
:1014a4005505070012c0b3000000200001172400f6
:1014b40051050700f0c0b30010f0b7005400370026
:1014c40055000700520037000041eb0000002000e7
:1014d40001172c004805070012c0b3006000b800d3
:1014e40045050700f0c0b30010f0b700480037000e
:1014f40049000700460037000041eb0000002000cf
:1015040001122c003c05070012c0b30000002000ab
:101514000112240038050700b0c1b30010f0b70071
:10152400908080000000e800908088003800370038
:1015340039000700360037000041eb0000002000ae
:1015440001172c002c05070012c0b3000000200076
:101554000117240028050700d0c1b30010f0b7001c
:10156400908080000000e800908088002800370008
:1015740029000700260037000041eb00000020008e
:1015840001082c001c05070012c0b3000000200055
:101594000104240018050700f0c1b30010f0b700df
:1015a4001b0037001c000700190037000041eb0046
:1015b4000000200001042c000f05070012c0b30036
:1015c40000002000010824000b05070010c2b3002e
:1015d40010f0b7000e0037000f0007000c003700b2
:1015e4000041eb006000b8000305070012c0b3001f
:1015f4006000b800000507000500370020c0b300f4
:1016040010f0b700000000000100370000000000e7
:101614000080fa00000006000600fa00881f780027
:1016240030818000e10f5000c2013a000040eb001d
:10163400004f7800508d8000618d800018c0b30089
:101644000200200003122400fefc07000000e0005a
:10165400010035000044eb000804e0000e003200f5
:10166400908d8000a18d800018c0b300020020007e
:1016740003122400f3fc07000000e0000100350021
:101684000044eb000804e0000300320070c0b30023
:10169400004f78001f013700708d8000818d80001d
:1016a40018c0b3000200200003172400e5fc070063
:1016b4000000e000010035000044eb000804e000f5
:1016c4000300320080c0b300004f780011013700de
:1016d400508d8000618d800018c0b300020020008e
:1016e40003172400d7fc07000000e00001003500c8
:1016f4000044eb000804e0000300320050c0b300d3
:10170400004f780003013700508d8000618d800008
:1017140018c0b30002002000831c2400c9fc070089
:101724000000e000010035000044eb000804e00084
:101734000300320040c0b300004f7800f5003700ca
:10174400908d8000a18d800018c0b300020020009d
:1017540003172400bbfc07000000e0000100350073
:101764000044eb000804e0000300320020c0b30092
:10177400004f7800e7003700908d8000a18d800035
:1017840018c0b30002002000831c2400adfc070035
:101794000000e000010035000044eb000804e00014
:1017a4000300320010c0b300004f7800d9003700a6
:1017b400708d8000818d800018c0b300020020006d
:1017c400831c24009ffc07000000e000010035009a
:1017d4000044eb000804e00003003200a0c0b300a2
:1017e400004f7800cb003700708d8000818d800021
:1017f40018c0b300020020008324240091fc0700d9
:101804000000e000010035000044eb000804e000a3
:101814000300320090c0b300004f7800bd003700d1
:10182400508d8000618d800018c0b300020020003c
:10183400031f240083fc07000000e00001003500c2
:101844000044eb000804e00003003200d0c0b30001
:10185400004f7800af003700908d8000a18d80008c
:1018640018c0b30002002000031f240075fc070009
:101874000000e000010035000044eb000804e00033
:1018840003003200e0c0b300004f7800a10037002d
:10189400b08d8000c18d800018c0b300020020000c
:1018a4000317240067fc07000000e0000100350076
:1018b4000044eb000804e0000300320030c0b30031
:1018c400004f780093003700d08d8000e18d8000b8
:1018d40018c0b300020020000317240059fc0700bd
:1018e4000000e000010035000044eb000804e000c3
:1018f4000300320060c0b300004f78008500370059
:10190400d08d8000e18d800018c0b300020020005b
:10191400031724004bfc07000000e0000100350021
:101924000044eb000804e0001b003200b08d80008e
:10193400c18d800018c0b3000200200003172400ea
:1019440040fc07000000e000010035000044eb000b
:101954000804e00010003200d48d8000e58d800082
:10196400b08d8000c18d800018c0b3000001be009e
:101974000400be0033fc07000000e0000100350055
:101984000044eb000804e00003003200b0c0b300e0
:10199400004f78005f003700d08d8000e18d80001b
:1019a40018c0b300020020000317240025fc070020
:1019b4000000e000010035000044eb000804e000f2
:1019c4001b003200b08d8000c18d800018c0b300b0
:1019d40002002000031724001afc07000000e000a6
:1019e400010035000044eb000804e0001000320060
:1019f400d48d8000e58d8000b08d8000c18d800085
:101a040018c0b3000001be000400be000ffc0700b4
:101a14000000e00001003c000044eb000804e0008a
:101a240003003200c0c0b300004f78003900370013
:101a3400d08d8000e18d800018c0b300020020002a
:101a44000317240001fc07000000e00001003c0033
:101a54000044eb000804e0002e003200508d8000aa
:101a6400618d800018c0b30002002000031f240011
:101a7400f6fb07000000e00001003c000044eb001e
:101a84000804e00023003200708d8000818d800006
:101a940018c0b3000200200083242400ebfb0700dd
:101aa4000000e00001003c000044eb000804e000fa
:101ab40018003200908d8000a18d800018c0b30002
:101ac40002002000031f2400e0fb07000000e000e8
:101ad40001003c000044eb000804e0000d0032006b
:101ae400b08d8000c18d800018c0b30002002000ba
:101af40003172400d5fb07000000e00001003c00b0
:101b04000044eb000804e000020032000040eb0057
:101b1400004f78001e407800e74f50000a003a005a
:101b240090808000610060000000e00003003a0043
:101b3400c0c0b30014f0b70057003700e0c0b300d2
:101b440014f0b700540037001e407800e84f5000ee
:101b54000a003a0090808000610060000000e0000c
:101b640003003a00c0c0b30014f0b7004a003700c5
:101b7400e0c0b30014f0b700470037001e407800ff
:101b8400e94f5000060032001e407800ed4f50002f
:101b9400030032001e407800ee4f500003003a006c
:101ba400c0c1b30014f0b7003b0037001e407800fa
:101bb400ea4f500003003a00a0c1b30014f0b7008c
:101bc400350037001e407800e54f500003003a000e
:101bd40060c0b30014f0b7002f0037001e40780037
:101be400e44f500003003a0040c0b30014f0b700c3
:101bf400290037001e407800e24f500003003a00ed
:101c0400a0c0b30014f0b700230037001e407800d2
:101c1400e14f500003003a0080c0b30014f0b70055
:101c24001d0037001e407800eb4f500003003a00bf
:101c3400e0c1b30014f0b700170037001e4078006d
:101c4400eb4f500003003a0000c2b30014f0b70099
:101c5400110037001e407800e64f500003003a00a0
:101c640060c1b30014f0b7000b0037001e407800c9
:101c7400e34f500003003a0080c1b30014f0b700f2
:101c8400050037001e4078000004e00002003a001e
:101c940020c0b30014f0b70005012100954278007c
:101ca40000808000118080004808de000042780037
:101cb40000808000118080004008de0080417800b0
:101cc40000808000118080004809dd004800de00ab
:101cd40000007100c808de00004178000080800028
:101ce4001180800000407800154798002447980030
:101cf40033479800424798005047980014d0bf00db
:101d04008080fb0010d0bf000080fb000000e900d1
:101d1400808f50000700320014d0bf0010f0b700cd
:101d24000e00e800000178005100200000052000aa
:101d3400330007004f0478000080fa00000006001a
:101d44000a00fa002007980031079800420798001b
:101d5400e0cfb300004f78002e0090004880de00f2
:101d6400804078001e40780000c06800004f780072
:101d74002e009000804078001e40780000c068006b
:101d8400004f78003e0090004880de0080407800dc
:101d94001e40780000c06800004f78003e009000ac
:101da400804078001e40780000c06800004f780032
:101db4000000eb00100798000000eb0010079800eb
:101dc400080037001e009000ce0090000080400004
:101dd400104078001e4f68001e0090000000e800cc
:101de400100798009e0090003e009000808f5000e5
:101df400f4ff35001e4078000080fa000000060061
:101e04000e00fa00889fbe00400798005107980012
:101e1400620798000f0478000f00780080047800af
:101e24005e009000660040008000e90021079800f1
:101e34000000e8000000e8000000d100800040003d
:101e44000f007800818747000000e8000000d100ff
:101e540000004000300798000000eb00000f7800fd
:101e64003e0090001e004000e1cfb300014878001e
:101e74001e0fe8004e0090004880de00804078008d
:101e84003e0090001e004000014878001e0fe8004c
:101e94004e009000804078003e0090001e004000fc
:101ea400014878001e0fe8005e0090004880de00c4
:101eb400804078003e0090001e00400001487800f9
:101ec4001e0fe8005e009000804078003e00900005
:101ed4001e004000014878001e0fe8000000eb00df
:101ee400100798000000eb00100798000b00370063
:101ef4001e009000ee0090000080400090407800aa
:101f04003e0090001e004000014878001e0fe800cb
:101f14001e0090000000e800100798009e0090004a
:101f24005e009000808f5000f1ff35006e0190003c
:101f3400de0090004e00900081ff0700be0090007c
:101f44009e804000804878001e0fe8005e009000ec
:101f5400e60040003e009000410307008907780036
:101f6400880778004f04be000080fa0000000600d5
:101f74000400fa002047980070808000e30f5000ae
:101f840024003200e30f500005003e00e10f500032
:101f940011003200e10f500016003e000700370028
:101fa400e50f500037003200e50f500020003900e3
:101fb400e60f500041003200530037002e409000dd
:101fc400e24f400053003a00100020007080880067
:101fd4000c30ef00520037002e4090000080fb00d0
:101fe4004800dd00608088002000200070808800a8
:101ff4004b0037002e4090008080fb006080800002
:1020040000804000608088003000200070808800dc
:10201400430037002e4090000080fb004800dd00a4
:102024004080880040002000708088003c00370019
:102034002e4090008080fb004080800000804000a3
:1020440040808800408080000000e00003003a00e7
:1020540060002000708088003100370041808000db
:10206400f03f2000808f5000020034000e30ef005b
:102074002b00370050002000708088000a30ef00e9
:1020840027003700508080008112210080804000aa
:102094002e419000824878000000e80050808800bb
:1020a4005180800040808000808f50001b003500ec
:1020b4006000200070808800190037004180800093
:1020c40060808000821221001dff0700004f78000d
:1020d400ae409000114798001e4090009e4078004a
:1020e40080cf500006003a00408080008040780095
:1020f4006080800000407800821221000a000700fe
:102104000e30ef00060037000e30ef000000000034
:102114000300370000000000010037000000000049
:102124000080fa00000006000800fa00404798000a
:1021340051479800320798000000eb00000f780028
:102144004e4090000080fb0011052000810f5000dc
:102154004700320011052000810f500004003c00ac
:1021640001022000810f50000e0032004c003700a5
:1021740021052000810f5000410032000108200099
:10218400810f500043003a005e4090000080fb0045
:102194003e019000800078000008200018ff07002e
:1021a4003f0037003e009000104078000080fb00a4
:1021b400100798003e0090000000e80010407800ee
:1021c4000080fb00000f78001e0090000000e0007b
:1021d4000b003a001e007800004078006140600067
:1021e4000080fb00610060004a00dd002171800076
:1021f40001a0a100010070002071880028003700b0
:102204001e009000e10f50000b003a001e00780001
:1022140000407800614060000080fb0061006000c5
:102224004700dd00217380000170a10001007000ef
:10223400207388001a0037001e009000e20f50003f
:1022440016003a001e0078000040780061406000eb
:102254000080fb00610060004600dd002173800007
:102264000160a10001007000207388000c00370099
:102274003e00900010407800e3fb070008003700a0
:102284003e00900010407800d2fb070000000000e0
:1022940003003700000000000100370000000000c8
:1022a4000080fa00000006000000fa0013e1a90013
:1022b40011e1a9001061a8001021a9008108800083
:1022c400f0fc2f0000806000800888000a21ef00e5
:1022d4000621ef002026200070088800200320003b
:1022e400600888002142800080ff2f000080600089
:1022f4000000a000204288000108a9002108a800cd
:1023040011e1a8000080fa00000006000000fa00b5
:1023140005e1a9000421a9000068a9002068a8001b
:1023240005e1a80000002000a137240002000700f6
:102334000080fa00000006000400fa00881f7800fc
:10234400008fbe0021088000f0fc2f000080600098
:10235400200888001e0178009e0190000068290072
:1023640081c1240075f9070018c0b30002f02f00e2
:10237400f3772400b5f907000000e00001003c00f9
:102384000044eb000804e0005400320021088000ff
:10239400f0fc2f00008060000040a00020088800ae
:1023a4001e0178009e0190000068290081c124006c
:1023b40062f9070002002000031024005ff90700ff
:1023c40018c0b30002f02f00f37724009ff9070030
:1023d4000000e00001003c000044eb000804e000c1
:1023e4003200320021088000f0fc2f0000806000e1
:1023f4000050a000200888001e0178009e01900073
:102404000068290081c124004cf907000200200063
:102414000328240049f9070018c0b30002f02f0074
:10242400f377240089f907000000e00001003c0074
:102434000044eb000804e000100032002108800092
:102444000003200001007000200888001e017800ad
:102454009e0190000068290081c1240037f907001b
:10246400020020000338240034f9070079f907003a
:102474000000780010088800200037001e01780052
:102484009e0190000068290081c124002bf90700f7
:10249400020020000328240028f907006df9070032
:1024a4000000780010088800140037001e0178002e
:1024b4009e0190000068290081c124001ff90700d3
:1024c40002002000031024001cf9070061f9070032
:1024d4000000780010088800080037001e0178000a
:1024e4009e0190000068290081c1240013f90700af
:1024f40058f9070000007800100888004f0478009d
:102504000080fa00000006000000fa001fe1a900a4
:102514001e21a9000368a9002368a8001fe1a800e0
:1025240000002000a1472400020007000080fa00f8
:10253400000006000400fa00881f7800008fbe0027
:10254400f1088000f0fc2f0000806000f008880093
:102554001e0178009e0190000068290081c12400ba
:10256400f6f8070018c0b30002f02f00f377240038
:1025740036f907000000e00001003c000044eb00d5
:102584000804e00054003200f1088000f0fc2f0041
:10259400008060000040a000f00888001e01780060
:1025a4009e0190000068290081c12400e3f807001f
:1025b4000200200003102400e0f8070018c0b30054
:1025c40002f02f00f377240020f907000000e00058
:1025d40001003c000044eb000804e000320032003b
:1025e400f1088000f0fc2f00008060000050a00083
:1025f400f00888001e0178009e0190000068290000
:1026040081c12400cdf80700020020000328240023
:10261400caf8070018c0b30002f02f00f3772400b3
:102624000af907000000e00001003c000044eb0050
:102634000804e00010003200f108800000032000cc
:1026440001007000f00888001e0178009e019000cf
:102654000068290081c12400b8f8070002002000a6
:1026640003382400b5f80700faf8070000007800e2
:1026740010088800200037001e0178009e01900099
:102684000068290081c12400acf807000200200082
:1026940003282400a9f80700eef8070000007800da
:1026a40010088800140037001e0178009e01900075
:1026b4000068290081c12400a0f80700020020005e
:1026c400031024009df80700e2f8070000007800da
:1026d40010088800080037001e0178009e01900051
:1026e4000068290081c1240094f80700d9f8070084
:1026f40000007800100888004f0478000080fa0079
:10270400000006000000fa001160800080ff2f0026
:10271400008060001060880000fa200020608800bb
:1027240023aca800238ca80011618000f03f2f0087
:102734000080600000a0a00010618800300020002c
:1027440020618800c3aca800c38ca8001166800077
:10275400f03f2f000080600000a0a00010668800f9
:10276400300020002066880001eca8000080fa00f8
:10277400000006000000fa00889fbe00548e80000e
:10278400658e8000308e8000418e800018c0b300ba
:102794000001be000400be00aaf807000000e0002b
:1027a400010035000044eb000804e0000d00320095
:1027b400388e8000498e8000548e8000658e8000a3
:1027c400e0808000f18080000001be000400be00b3
:1027d400fdf707000801be00c8000700508e8800fe
:1027e400618e8800548e8000658e8000308e80005b
:1027f400418e800018c0b3000001be000400be007a
:1028040092f807000000e00001003c000044eb00e7
:102814000804e0000d003200388e8000498e8000ec
:10282400548e8000658e8000e0808000f1808000fe
:102834000001be000400be00e2f707000801be006c
:1028440096000700508e8800618e8800508e8000ac
:10285400618e800018c0b3006011b8007bf80700d7
:102864000000e00001003c000044eb000804e0002c
:1028740004003200c3cca90024eea800c3eca800d5
:1028840003003700c3eca90024cea800c3cca800e1
:10289400508e8000618e80006a00070002002000d4
:1028a40003222400fcf807008bf8070000007800de
:1028b40030668800148e8000258e8000f08d8000a4
:1028c400018e800018c0b3000001be000400be00e9
:1028d4005cf807000000e000010035000044eb0054
:1028e4000804e0000d003200f88d8000098e80009d
:1028f400148e8000258e8000e0808000f1808000ae
:102904000001be000400be00aff707000801be00ce
:102914007a000700108e8800218e8800148e8000b3
:10292400258e8000f08d8000018e800018c0b300d9
:102934000001be000400be0044f807000000e000ef
:1029440001003c000044eb000804e0000d003200ec
:10295400f88d8000098e8000148e8000258e800002
:10296400e0808000f18080000001be000400be0011
:1029740094f707000801be0048000700108e880085
:10298400218e8800108e8000218e800018c0b30034
:102994006011b8002df807000000e00001003c00c1
:1029a4000044eb000804e0000400320023cca9003a
:1029b40015eea80023eca8000300370023eca900bf
:1029c40015cea80023cca800108e8000218e800094
:1029d4001c0007000200200003222400aef80700b8
:1029e4003df8070000007800306188004f04be0005
:1029f4000080fa00000006000600fa00008fbe0006
:102a0400424798004e409000e14f500004003a00c5
:102a14001e0178009e019000f28d8800038e8800cc
:102a24004e4090000004e00004003a001e017800cb
:102a34009e019000328e8800438e88000080fa0048
:102a4400000006000400fa00881f7800008fbe0012
:102a540018c0b3006011b8001e0078009e009000fa
:102a6400faf707000000e00001003d000044eb001d
:102a74000804e000030032001e0078009e0090006d
:102a8400030037001e0078009e00900001f0a200b1
:102a94004f0478000080fa00000006000800fa00e5
:102aa400881f7800008fbe00220798003307980023
:102ab40018c0b3002e019000be0190001e007800e3
:102ac4009e009000e1f707000000e00001003c00d8
:102ad4000044eb000804e000030032001e0078000c
:102ae4009e009000020037002e009000be0090006f
:102af4004f0478000080fa00000006000800fa0085
:102b0400881f7800008fbe002207980033079800c2
:102b140018c0b3002e019000be0190001e00780082
:102b24009e009000c7f707000000e0000100350098
:102b34000044eb000804e000030032001e007800ab
:102b44009e009000020037002e009000be0090000e
:102b54004f0478000080fa00000006000c00fa0020
:102b6400881f7800008fbe00220798003307980062
:102b7400440798005507980018c0b3004e01900010
:102b8400de0190001e0078009e009000aff7070061
:102b94000000e00001003c000044eb000804e000f9
:102ba400040032004e019000de019000028fbe004e
:102bb4000e00370018c0b3002e019000be01900033
:102bc4001e0078009e0090009ef707000000e000c1
:102bd400010035000044eb000804e000030032006b
:102be4002e019000be019000028fbe001e007800ee
:102bf4009e0090004f0478000080fa000000060058
:102c04000400fa00008fbe00b2fd200093042400eb
:102c14001e0078009e00900048f707000200200084
:102c2400433324001cf807000080fa00000006006b
:102c34000400fa00008fbe00b2fd200093042400bb
:102c44001e0078009e00900013f807000200200088
:102c54004333240039f707000080fa00000006001f
:102c64000600fa0010079800210798000040eb00c6
:102c7400004f780054000700ae009000810f500010
:102c8400110034000040eb00004f780006003700cc
:102c94001e80fb009e0090000080400010407800e1
:102ca4000b0007001e4fe8009e80fb002e009000e2
:102cb400808f5000f6ff35002e0007000004e0006e
:102cc40001003a00220007000080fa00000006001c
:102cd4000200fa00004f7800b080800081022100d9
:102ce400008040001e487800b08080000000e800aa
:102cf400b0808800b1808000f0072000808f5000f1
:102d0400010034001630ef000080fa0000000600d5
:102d14000200fa00c080800081022100008040008f
:102d2400104f7800c08080000000e800c080880058
:102d3400c1808000f0072000808f50000100340023
:102d44001830ef001e4078000080fa0000000600f2
:102d54000200fa0010c0b3001af0b700ecff07003d
:102d6400004f78001e80fb00201188000080fa00cc
:102d7400000006000000fa001ad0bf000080fa002c
:102d8400000006000200fa00b1808000c0808000cc
:102d9400808f500004003500b1808000c080800026
:102da400008f500005003700b1808000c080800093
:102db4000080500001082000010f40001e00780030
:102dc4000080fa00000006000200fa00edff070090
:102dd40001082000008f50001e0078000080fa00d7
:102de400000006000000fa0021e3a9002143a80026
:102df40001198000f0cf2f000080600000198800c6
:102e04002043a90001198000000e20000100700079
:102e14000019880011198000f0ff21000080600073
:102e2400101988002343a80011198000f0cf2f0047
:102e340000806000101988001119800030f82f00fc
:102e4400008060000040a000101988002203a9003f
:102e54002223a90025e3a900f0c0b30024e3b700ae
:102e640021198000f00f2e008080600000f0200007
:102e740001007000201988003303a9001e2ea80049
:102e84002e0ea8002f6ea8004feea8006f2ea800eb
:102e94003063a80030c3a8003163a80031e3a80060
:102ea4002e03a8004119800000fc2f000080600060
:102eb4004019880028e3a90001a8a90021a8a800b6
:102ec40021e3a8000080fa00000006000000fa00d8
:102ed4002023a8000080fa00000006000000fa0089
:102ee400e01c21000080fa00000006000000fa0047
:102ef40025d0bf000080fa00000006000000fa00a0
:102f04002570ef000080fa00000006000200fa00bd
:102f1400004f78002a0007000000e0000c00340095
:102f240000818000810a2100008040001e48780052
:102f3400008180000000e800008188000181800099
:102f4400f0072000808f5000010034002030ef0093
:102f54000080fa00000006000200fa0010818000e0
:102f6400810a210000804000104f78001081800009
:102f74000000e8001081880011818000f007200023
:102f8400808f5000010034002230ef001e40780092
:102f94000080fa00000006000000fa0001818000b1
:102fa40010818000808f50000200320010c0b300f6
:102fb400010037000040eb000080fa00000006002a
:102fc4000200fa000500070001082000008f5000ed
:102fd4001e0078000080fa00000006000200fa00db
:102fe4000181800010818000808f50000400350032
:102ff4000181800010818000008f5000050037009f
:1030040011818000008180000080500001082000b0
:10301400010f40001e0078000080fa000000060046
:103024000000fa002002a9000111800090ff2f0087
:10303400008060000011880020a2a9002062a8007e
:10304400500520004011880023a2a90023e2a90012
:103054000188a9002188a80011118000f0f32f0035
:1030640000806000101188000168a9002168a80090
:1030740021e2a8002342a8000080fa000000060014
:103084000600fa0010079800210798000040eb00a2
:10309400004f78000040eb00004f78000e0037002e
:1030a400000000001111800000202000008060005a
:1030b4000000e000fbff3a001e0090001040780082
:1030c4000080fb00201188001e0090000000e80032
:1030d400100798001e4fe8009e80fb002e00900011
:1030e400808f5000eeff35000080fa0000000600db
:1030f4000000fa00f0032000303a8800213a8000f2
:10310400f0f32f0000806000203a8800213a80000c
:1031140000fe2f00008060000000a000203a88001c
:103124001200200080072000a10920003374200031
:10313400804978008149780082497800103a8000fb
:10314400000178000200a000600420007105200046
:1031540023742000804978008149780082497800ee
:1031640000000000113a8000000027008080600009
:1031740000002100808f5000faff3a000000000098
:10318400113a800000022000008060000000e0008e
:0c319400fbff32000080fa000000060083
:020000040000fa
:1031a000001000000800000080000000a8110000ce
:1031b00026000000800000001c1000000400000039
:1031c000820000000000a00040000000ce110000be
:1031d0000a0000008000000024100000020000002f
:1031e00080000000261000000200000082000000a5
:1031f0000100000010100000060000008000000028
:103200002810000080000000800000001610000060
:103210000600000080000000a810000080000000f0
:10322000800000002010000004000000800000006a
:10323000281100008000000080000000081000003d
:0c324000080000008000000000000000fa
:020000040000fa
:10324c000000fa000e2eef001e2eef002e2eef00c7
:10325c003e2eef004e2eef005e2eef006e2eef0096
:10326c00214ea90060cea90060eea90011cea900e4
:10327c0011eea90020cea90020eea9002136800075
:10328c0000f82f00008060008001b3002036880019
:10329c001134800000fc2f00008060000000a000b2
:0c32ac00103488000080fa0000000600ca
:020000040000fa
:02000004000af0
:04afe000cfff00009f
:020000040000fa
:02000004000af0
:04afe400ffff00006b
:020000040000fa
:02000004000af0
:04afe8007fff0000e7
:020000040000fa
:02000004000af0
:04afec005fff000003
:020000040000fa
:02000004000af0
:04aff00038ff000026
:020000040000fa
:02000004000af0
:04aff400ffff00005b
:00000001FF
