:020000040000fa
:080000000002040000000000f2
:020000040000fa
:04000800e803000009
:020000040000fa
:04000c00e803000005
:020000040000fa
:04001000e803000001
:020000040000fa
:04001400e8030000fd
:020000040000fa
:04001800e8030000f9
:020000040000fa
:04001c00e8030000f5
:020000040000fa
:04002000e8030000f1
:020000040000fa
:04002400e8030000ed
:020000040000fa
:04002800e8030000e9
:020000040000fa
:04002c00e8030000e5
:020000040000fa
:04003000e8030000e1
:020000040000fa
:0400340002030000c3
:020000040000fa
:04003800e8030000d9
:020000040000fa
:04003c00e8030000d5
:020000040000fa
:04004000e8030000d1
:020000040000fa
:04004400e8030000cd
:020000040000fa
:04004800fa020000b8
:020000040000fa
:04004c00e8030000c5
:020000040000fa
:04005000e8030000c1
:020000040000fa
:04005400a403000001
:020000040000fa
:040058007a03000027
:020000040000fa
:04005c004c03000051
:020000040000fa
:04006000e8030000b1
:020000040000fa
:04006400e8030000ad
:020000040000fa
:04006800e8030000a9
:020000040000fa
:04006c00e8030000a5
:020000040000fa
:04007000e8030000a1
:020000040000fa
:04007400e80300009d
:020000040000fa
:04007800e803000099
:020000040000fa
:04007c00e803000095
:020000040000fa
:04008000e803000091
:020000040000fa
:04008400e80300008d
:020000040000fa
:04008800e803000089
:020000040000fa
:04008c00e803000085
:020000040000fa
:04009000e803000081
:020000040000fa
:040094002203000043
:020000040000fa
:04009800e803000079
:020000040000fa
:04009c00e803000075
:020000040000fa
:0400a000e803000071
:020000040000fa
:0400a400e80300006d
:020000040000fa
:0400a800e803000069
:020000040000fa
:0400ac00e803000065
:020000040000fa
:0400b000e803000061
:020000040000fa
:0400b400e80300005d
:020000040000fa
:0400b800e803000059
:020000040000fa
:0400bc00e803000055
:020000040000fa
:0400c000e803000051
:020000040000fa
:0400c400e80300004d
:020000040000fa
:0400c800e803000049
:020000040000fa
:0400cc00e803000045
:020000040000fa
:0400d000e803000041
:020000040000fa
:0400d400e80300003d
:020000040000fa
:0400d800e803000039
:020000040000fa
:0400dc00e803000035
:020000040000fa
:0400e000e803000031
:020000040000fa
:0400e400e80300002d
:020000040000fa
:0400e800e803000029
:020000040000fa
:0400ec00e803000025
:020000040000fa
:0400f000e803000021
:020000040000fa
:0400f400e80300001d
:020000040000fa
:0400f800e803000019
:020000040000fa
:0400fc00e803000015
:020000040000fa
:04010000e803000010
:020000040000fa
:04010400e80300000c
:020000040000fa
:04010800e803000008
:020000040000fa
:04010c00e803000004
:020000040000fa
:04011000e803000000
:020000040000fa
:04011400e8030000fc
:020000040000fa
:04011800e8030000f8
:020000040000fa
:04011c00e8030000f4
:020000040000fa
:04012000e8030000f0
:020000040000fa
:04012400e8030000ec
:020000040000fa
:04012800e8030000e8
:020000040000fa
:04012c00e8030000e4
:020000040000fa
:04013000e8030000e0
:020000040000fa
:04013400e8030000dc
:020000040000fa
:04013800e8030000d8
:020000040000fa
:04013c00e8030000d4
:020000040000fa
:04014000e8030000d0
:020000040000fa
:04014400e8030000cc
:020000040000fa
:04014800e8030000c8
:020000040000fa
:04014c00e8030000c4
:020000040000fa
:04015000e8030000c0
:020000040000fa
:04015400e8030000bc
:020000040000fa
:04015800e8030000b8
:020000040000fa
:04015c00e8030000b4
:020000040000fa
:04016000e8030000b0
:020000040000fa
:04016400e8030000ac
:020000040000fa
:04016800e8030000a8
:020000040000fa
:04016c00e8030000a4
:020000040000fa
:04017000e8030000a0
:020000040000fa
:04017400e80300009c
:020000040000fa
:04017800e803000098
:020000040000fa
:04017c00e803000094
:020000040000fa
:04018000e803000090
:020000040000fa
:04018400e80300008c
:020000040000fa
:04018800e803000088
:020000040000fa
:04018c00e803000084
:020000040000fa
:04019000e803000080
:020000040000fa
:04019400e80300007c
:020000040000fa
:04019800e803000078
:020000040000fa
:04019c00e803000074
:020000040000fa
:0401a000e803000070
:020000040000fa
:0401a400e80300006c
:020000040000fa
:0401a800e803000068
:020000040000fa
:0401ac00e803000064
:020000040000fa
:0401b000e803000060
:020000040000fa
:0401b400e80300005c
:020000040000fa
:0401b800e803000058
:020000040000fa
:0401bc00e803000054
:020000040000fa
:0401c000e803000050
:020000040000fa
:0401c400e80300004c
:020000040000fa
:0401c800e803000048
:020000040000fa
:0401cc00e803000044
:020000040000fa
:0401d000e803000040
:020000040000fa
:0401d400e80300003c
:020000040000fa
:0401d800e803000038
:020000040000fa
:0401dc00e803000034
:020000040000fa
:0401e000e803000030
:020000040000fa
:0401e400e80300002c
:020000040000fa
:0401e800e803000028
:020000040000fa
:0401ec00e803000024
:020000040000fa
:0401f000e803000020
:020000040000fa
:0401f400e80300001c
:020000040000fa
:0401f800e803000018
:020000040000fa
:0401fc00e803000014
:020000040000fa
:04020000e80300000f
:020000040000fa
:04020400e80300000b
:020000040000fa
:04020800e803000007
:020000040000fa
:04020c00e803000003
:020000040000fa
:04021000e8030000ff
:020000040000fa
:04021400e8030000fb
:020000040000fa
:04021800e8030000f7
:020000040000fa
:04021c00e8030000f3
:020000040000fa
:04022000e8030000ef
:020000040000fa
:04022400e8030000eb
:020000040000fa
:04022800e8030000e7
:020000040000fa
:04022c00e8030000e3
:020000040000fa
:04023000e8030000df
:020000040000fa
:04023400e8030000db
:020000040000fa
:04023800e8030000d7
:020000040000fa
:04023c00e8030000d3
:020000040000fa
:04024000e8030000cf
:020000040000fa
:04024400e8030000cb
:020000040000fa
:04024800e8030000c7
:020000040000fa
:04024c00e8030000c3
:020000040000fa
:04025000e8030000bf
:020000040000fa
:04025400e8030000bb
:020000040000fa
:04025800e8030000b7
:020000040000fa
:04025c00e8030000b3
:020000040000fa
:04026000e8030000af
:020000040000fa
:04026400e8030000ab
:020000040000fa
:04026800e8030000a7
:020000040000fa
:04026c00e8030000a3
:020000040000fa
:04027000e80300009f
:020000040000fa
:04027400e80300009b
:020000040000fa
:04027800e803000097
:020000040000fa
:04027c00e803000093
:020000040000fa
:04028000e80300008f
:020000040000fa
:100400004f1d21000eff27000e0188000000000094
:10041000000020000000e000020032000001200087
:100420002002880014000700eb0007000000e00035
:1004300003003a00607d2100010020000200370027
:100440000000200001002000810f70000100320038
:100450000f000700000020000000e0000200320052
:1004600000000200000000005c0702000000000025
:100470000040da000000fe00800020000000e000e4
:1004800002003200002020009001880000000600d9
:10049000a1028800800478000000eb001f003700f4
:1004a000e284440054a0b4009905ba00e2844400f8
:1004b00054a0b4009906ba00e284440054a0b400e9
:1004c0000006eb00476fde00fd07b200ae018800ba
:1004d000636ce10003003a000ad801000000eb0061
:1004e0000e003700606ce10008003a00004deb00a0
:1004f0000a05e800020039003420ec000af0a000f0
:100500008b05e900f9ff3e00040037006168e10057
:10051000010032000086eb000b00070019c7ba008b
:100520000e04e0001905ba0003003a000a00e000da
:10053000dbff3a0000000600fe07b200ae028800b2
:100540008a047800f5ff37000cd0a300e20f4d00bd
:100550001c00390089027800354dba000a05e80010
:10056000020039003420ec000af0a0008b05e900fd
:100570000f003200254dba000a05e80002003900dc
:100580003420ec000af0a0008b05e90008003200de
:100590000c00e0000600320015cdba000a05e800a4
:1005a000020039003420ec000af0a0008b05e900bd
:1005b0008984e80054a0b4000b00e000e2ff3a0098
:1005c000000006009902ba00055d78008b05e9007d
:1005d000f7ff3200c82ade00055d78008b05e900d0
:1005e000f3ff32000c00e000f1ff320019ddba0029
:1005f000eeff37000000fa000108a9000080fa00b1
:10060000004006003600f800809fbe00829fbe00ba
:10061000849fbe00869fbe000000fa000068a9000b
:10062000d8070700ad0907000080fa004f03be009d
:100630004f02be004f01be004f00be003600f90061
:10064000004006003600f800809fbe00829fbe007a
:10065000849fbe00869fbe000000fa000368a900c8
:10066000a0808000b180800061004000e0804800f0
:10067000a0808800b1808800b70207000080fa00df
:100680004f03be004f02be004f01be004f00be0030
:100690003600f90000400600809fbe000000fa000e
:1006a00001a8a9000118800020002100010878009d
:1006b00011188000200021001100980021188000ee
:1006c0002000210021009800311880002000210026
:1006d000310098004118800020002100410098005e
:1006e00010c0b3000af0b7000080fa004f00be004f
:1006f000004006003600f800809fbe00829fbe00ca
:10070000849fbe00869fbe000000fa000188a900f9
:100710001181800000818000808f50000200320033
:100720000f090700010037002470ef000080fa0075
:100730004f03be004f02be004f01be004f00be007f
:100740003600f900004006003600f800809fbe0029
:10075000829fbe00849fbe00869fbe000000fa00fc
:100760000168a90010118000640060000000e00032
:10077000010032002242a9001011800062006000d6
:100780000000e000060032002222a9000500370028
:100790003011800000407800600907000100370038
:1007a0000000000010118000610060000000e00007
:1007b000f7ff3a000080fa004f03be004f02be0070
:1007c0004f01be004f00be003600f9000040060099
:1007d0000040da000000fe000000050003f0a20067
:1007e000889fbe008a9fbe008c1f780018010700fa
:1007f0001f0133006450e1004f0032006420e1002b
:100800005200320003826c0007003b000905d00053
:100810000306d000820f54000c065d000200390070
:1008200002003200890178000306780085825500b5
:1008300004003d000003fd008103fd008502ea0085
:100840008b854200840f720002003b0060001000a4
:10085000e08018006011b8000005eb007a28e10084
:100860000a00390006007800c75ddd00f707b20016
:10087000878075002d003700828171000a017800a1
:10088000610560008180d1000080d3008502e9000d
:10089000f9ff3b00060440008784480002003b004b
:1008a00060041400e0841c000988a30007003200e3
:1008b0008a81710082817100610164008904d10024
:1008c0000884d3008b05e800170037000978a300df
:1008d00013003a000b00e000130034008b05e90020
:1008e0000804440089844c000a4474000978a30079
:1008f0000d003a000b00e000070034008b05e90012
:100900000804440089844c0001003a000b002000d8
:100910000978a300f7ff32000001eb000200370066
:10092000828171000a0178008e0007000cf0a70098
:1009300001f0a000d70037006420e10002003a0077
:10094000838f6c00d70033000801be000200be0098
:10095000d0003700889fbe008a9fbe008c1f7800a1
:10096000bb000700c200330003866c006450e10046
:100970002e0032006420e100330032006150e100bb
:100980002f0032006120e1003100320085855500e2
:10099000eb07b00009002000080420000500370024
:1009a0000804440089844c000a0031000603430017
:1009b00087834b000001530081815b00f8ff330007
:1009c0000203be000800a0000804440089844c0013
:1009d000f6ff3900c639dd008301730001003200e3
:1009e000130020008904d1000884d3000998a300d3
:1009f000050032000800a7000300a0008904d10010
:100a00000884d3008b05e8008904d1000884d30052
:100a10000001eb000281d2005200070001f0a100aa
:100a20000cf0a70001f0a0009a0037006420e1005c
:100a30009c0032000801be000200be00f7ff370034
:100a40006120e100970032006000b800f3ff37003a
:100a50000000200001f82700f0ff370014002000fc
:100a6000c7003700f4ff2f00c50037000001be00ab
:100a7000620007000470a70003f0a1006509b1003f
:100a8000160032000d0035006828e1000600350030
:100a9000f0ff2f00f1ff27000300e00013003b00f0
:100aa000010028000000050000004000818048008f
:100ab0008502e900fcff3a0008003700f88f420089
:100ac00002003c008000eb00000005008100d10026
:100ad0000080d3008502e800fcff3a000300e0003c
:100ae00002003b0060001000e080180000000600db
:100af0000001be00410007000470a70003f0a10040
:100b000003f8a30013003a006509b1001000320099
:100b1000090035006928e1000200350001002800c5
:100b20000000050000004000818048008502e900c7
:100b3000fcff3a0000000600f88f42000500350077
:100b40008100d1000080d3008502e800fcff3a005c
:100b5000000006008000eb00000005006011b800f6
:100b6000a200370081002000618055000b003d008d
:100b70000b00200061fe2f000100e1001d00340089
:100b800082817100610164008904d1000884d3006e
:100b90000000e800faff3a007100200061006400e4
:100ba000030070000200600009003200610444008c
:100bb000e0844c000988a500050032008b05e800a0
:100bc0006808e10002003a008904d1000884d300db
:100bd000f20f20000258e10005003d00c75ddd0076
:100be000f907b2008980750008007800000006004f
:100bf0000bf827008b00780000000500c70ade0014
:100c0000f107b200f50fb20008003200e1cf420058
:100c1000020032000170a00024000500810f700066
:100c2000010032000408050044000500810f700037
:100c300002003a00140005008502e90000004000af
:100c400081c04800fcff3b000170a00024000500ab
:100c50000004be00e9ff07000003be000405be005b
:100c60000200be00e5ff0700844f7500000006008b
:100c70000200be006450e100050036006420e1007f
:100c8000020036000968a30001003a000800be0017
:100c90000160a0004f0678004f05be004f04be0063
:100ca00000000600f0ff2f00f1ff2700f9ff3700da
:100cb000889fbe008a9fbe008c1f7800e4ff07005b
:100cc000ebff330003866c006450e1002400320027
:100cd0006420e100270032006150e1002200320070
:100ce0006120e100210032008b854200eb07b1005a
:100cf0000134b800003ab8000804420089844a0070
:100d0000013ab8000030b8008880400009014a006c
:100d100004003300000040008180480002014900c7
:100d20008b05e900c909dd00830170000100320074
:100d300013002000c814de004814dd004709de005f
:100d40001200b200c808de000884700085ff0700aa
:100d500001f0a1000cf0a70001f0a000cdff3700ca
:100d60006120e100cfff32000801be000200be009a
:100d7000f7ff37006150e100fcff3a00c9ff370080
:100d8000889fbe008a9fbe00841f7800b0ff0700c6
:100d90004f00780011003300f0ff2f00838f6c00ac
:100da00006003b00040565000a00a70008003700a4
:100db00009f0a6001000200008003700820f540040
:100dc000838f5c00030039001000200001003e000a
:100dd0000000200009f0a7000000ea004f05be0057
:100de0004f04be000000e00000000600889fbe0027
:100df0008a9fbe00008270000402710004827100ac
:100e0000260032000004be000200be006011b800df
:100e10006b092000950220000182cf000a003900f2
:100e20000541b1000082cf00070039000541b10043
:100e30000982cf00040039000541b1000882cf00cb
:100e4000010039000541b100054252001200320094
:100e50000a003b0082817100610164008100d100c1
:100e60000080d3008984d3000884d3008b05e80078
:100e70000442e800f7ff3a00070037000804440086
:100e800089844c0000004800818048008b05e900ff
:100e90000442e900f9ff3a0032ff07004f05be00a7
:080ea0004f04be000000060033
:020000040000fa
:100ea800426f00006e6a00006f750000720000005b
:020000040000fa
:100eb8001000fa00100807005e0807007c0407000d
:100ec800940407009105070048070700100507006c
:100ed800d507070087070700e14f500084003a0054
:100ee800880707007f070700100798001e0090007a
:100ef8000080e800100078008000eb0015ff070074
:100f0800323323003305240067ff07000200200066
:100f1800035824008dfe0700d2cc2c00c304240003
:100f280061ff070020079800310798002e01900004
:100f3800be019000000020008120240083fe0700ed
:100f480002002000030a240022fe0700808d88008a
:100f5800918d88001e009000640040001000780009
:100f68008000eb00fbfe070032332300330524002a
:100f78004dff0700020020000358240073fe0700fd
:100f8800d2cc2c00c304240047ff07002007980098
:100f9800310798002e019000be019000000020004b
:100fa8008120240069fe070002002000030a2400b3
:100fb80008fe0700a08d8800b18d88001e009000f3
:100fc80068004000100078008000eb00e1fe070098
:100fd800323323003305240033ff070002002000ca
:100fe8000358240059fe0700d2cc2c00c304240067
:100ff8002dff070020079800310798002e01900068
:10100800be01900000002000812024004ffe070050
:1010180002002000030a2400eefd0700c08d8800ae
:10102800d18d88001e0090006600400010007800f6
:101038008000eb00c7fe070032332300330524008d
:1010480019ff070002002000035824003ffe070094
:10105800d2cc2c00c304240013ff070020079800fb
:10106800310798002e019000be019000000020007a
:101078008120240035fe070002002000030a240016
:10108800d4fd0700e08d8800f18d88001e009000d7
:10109800100078008000eb00aefe0700323323001a
:1010a8003305240000ff0700020020000358240035
:1010b80026fe0700d2cc2c00c3042400fafe070049
:1010c80020079800310798002e019000be0190007b
:1010d80000002000812024001cfe070002002000e0
:1010e800030a2400bbfd0700008e8800118e8800cb
:1010f800e90047004275280006000900b258780048
:1011080069004700000178007100200000082000f5
:10111800dd0207000000eb00000f78000500370033
:101128000f070700004f98000e4890003103070092
:101138001e0fe8002b0707009e0f5000f8ff3c0029
:1011480000a0250021262000d507070061ff3700f1
:101158000000fa001ad0bf000080fb00cf80de003c
:101168001202200003002000820f5000838f5800d5
:10117800e5003e0000060100210037002a00370084
:101188003300370040003700410037004b0037007c
:101198004c00370055003700560037006000370014
:1011a800610037006a0037006b00370075003700b0
:1011b8007600370080003700d3003700d2003700b0
:1011c800d1003700d0003700cf003700ce003700fd
:1011d8008700370090003700790037008200370019
:1011e8008f0037009c0037009d003700aa003700a9
:1011f800ab003700b5003700b6003700c000370035
:101208001430ef001630ef000041eb006000b8002a
:101218007b05070012c0b3006000b800780507001e
:1012280010c0b3001af0b700a2808000b38080001d
:10123800803e200001002000800f5100818f59005e
:10124800b500360020c0b3001af0b700b30037006d
:101258000041eb0000002000811c2c0068050700fd
:1012680012c0b30000002000811c240064050700a0
:1012780030c0b3001af0b700e08080000000e8003a
:10128800e0808800a5003700a6000700a30037000b
:101298000041eb000000200001172c005805070052
:1012a80012c0b30000002000010a24005405070002
:1012b80050c0b3001af0b700980037009900070033
:1012c800960037000041eb000000200001172c00b9
:1012d8004b05070012c0b3006000b80048050700be
:1012e80050c0b3001af0b7008c0037008d0007001b
:1012f8008a0037000041eb0000002000010a2c00a2
:101308003f05070012c0b3000000200001172400a9
:101318003b05070090c0b3001af0b7007f00370004
:10132800800007007d0037000041eb006000b80036
:101338003305070012c0b300000020000117240085
:101348002f05070090c0b3001af0b70073003700ec
:1013580074000700710037000041eb000000200016
:1013680001172c002605070012c0b300000020005a
:1013780001172c0022050700d0c0b3001af0b700ef
:101388006600370067000700640037000041eb0083
:1013980000002000011724001905070012c0b3003f
:1013a800000020000117240015050700f0c0b30055
:1013b8001af0b700590037005a00070057003700e5
:1013c8000041eb006000b8000d05070012c0b30033
:1013d800000020000117240009050700f0c0b30031
:1013e8001af0b7004d0037004e0007004b003700d9
:1013f8000041eb000000200001172c000005070049
:1014080012c0b3006000b800fd040700f0c0b300cc
:101418001af0b70041003700420007003f003700cc
:101428000041eb000000200001122c00f40407002a
:1014380012c0b3000000200001122400f0040700cd
:10144800b0c1b3001af0b700e08080000000e800e7
:10145800e080880031003700320007002f00370095
:101468000041eb000000200001172c00e4040700f5
:1014780012c0b3000000200001172400e004070098
:10148800d0c1b3001af0b700e08080000000e80087
:10149800e080880021003700220007001f00370085
:1014a8000041eb000000200001082c00d4040700d4
:1014b80012c0b3000000200001042400d00407007b
:1014c800f0c1b3001af0b700140037001500070088
:1014d800120037000041eb000000200001042c003e
:1014e800c704070012c0b300000020000108240050
:1014f800c304070010c2b3001af0b7000700370092
:10150800080007000500370020c0b3001af0b70034
:101518000000000001003700000000000080fa0011
:10152800000006000200fa00881f78000040eb0067
:10153800004f7800808d8000918d800018c0b30026
:10154800020020000312240042fd07000000e00012
:10155800010035000044eb000804e0000e003200f2
:10156800c08d8000d18d800018c0b300020020001b
:101578000312240037fd07000000e00001003500d9
:101588000044eb000804e0000300320070c0b30020
:10159800004f78001f013700a08d8000b18d8000ba
:1015a80018c0b300020020000317240029fd07001b
:1015b8000000e000010035000044eb000804e000f2
:1015c8000300320080c0b300004f780011013700db
:1015d800808d8000918d800018c0b300020020002b
:1015e800031724001bfd07000000e0000100350080
:1015f8000044eb000804e0000300320050c0b300d0
:10160800004f780003013700808d8000918d8000a5
:1016180018c0b30002002000831c24000dfd070041
:101628000000e000010035000044eb000804e00081
:101638000300320040c0b300004f7800f5003700c7
:10164800c08d8000d18d800018c0b300020020003a
:1016580003172400fffc07000000e000010035002c
:101668000044eb000804e0000300320020c0b3008f
:10167800004f7800e7003700c08d8000d18d8000d2
:1016880018c0b30002002000831c2400f1fc0700ee
:101698000000e000010035000044eb000804e00011
:1016a8000300320010c0b300004f7800d9003700a3
:1016b800a08d8000b18d800018c0b300020020000a
:1016c800831c2400e3fc07000000e0000100350053
:1016d8000044eb000804e00003003200a0c0b3009f
:1016e800004f7800cb003700a08d8000b18d8000be
:1016f80018c0b3000200200083242400d5fc070092
:101708000000e000010035000044eb000804e000a0
:101718000300320090c0b300004f7800bd003700ce
:10172800808d8000918d800018c0b30002002000d9
:10173800031f2400c7fc07000000e000010035007b
:101748000044eb000804e00003003200d0c0b300fe
:10175800004f7800af003700c08d8000d18d800029
:1017680018c0b30002002000031f2400b9fc0700c2
:101778000000e000010035000044eb000804e00030
:1017880003003200e0c0b300004f7800a10037002a
:10179800e08d8000f18d800018c0b30002002000a9
:1017a80003172400abfc07000000e000010035002f
:1017b8000044eb000804e0000300320030c0b3002e
:1017c800004f780093003700008e8000118e800053
:1017d80018c0b30002002000031724009dfc070076
:1017e8000000e000010035000044eb000804e000c0
:1017f8000300320060c0b300004f78008500370056
:10180800008e8000118e800018c0b30002002000f6
:10181800031724008ffc07000000e00001003500da
:101828000044eb000804e0001b003200e08d80005b
:10183800f18d800018c0b3000200200003172400b7
:1018480084fc07000000e000010035000044eb00c4
:101858000804e00010003200048e8000158e80001d
:10186800e08d8000f18d800018c0b3000001be003b
:101878000400be0077fc07000000e000010035000e
:101888000044eb000804e00003003200b0c0b300dd
:10189800004f78005f003700008e8000118e8000b6
:1018a80018c0b300020020000317240069fc0700d9
:1018b8000000e000010035000044eb000804e000ef
:1018c8001b003200e08d8000f18d800018c0b3004d
:1018d80002002000031724005efc07000000e0005f
:1018e800010035000044eb000804e000100032005d
:1018f800048e8000158e8000e08d8000f18d8000c0
:1019080018c0b3000001be000400be0053fc07006d
:101918000000e00001003c000044eb000804e00087
:1019280003003200c0c0b300004f78003900370010
:10193800008e8000118e800018c0b30002002000c5
:101948000317240045fc07000000e00001003c00ec
:101958000044eb000804e0002e003200808d800077
:10196800918d800018c0b30002002000031f2400de
:101978003afc07000000e00001003c000044eb00d6
:101988000804e00023003200a08d8000b18d8000a3
:1019980018c0b30002002000832424002ffc070095
:1019a8000000e00001003c000044eb000804e000f7
:1019b80018003200c08d8000d18d800018c0b3009f
:1019c80002002000031f240024fc07000000e000a0
:1019d80001003c000044eb000804e0000d00320068
:1019e800e08d8000f18d800018c0b3000200200057
:1019f8000317240019fc07000000e00001003c0068
:101a08000044eb000804e000020032000040eb0054
:101a1800004f78001e407800e74f50000a003a0057
:101a2800e0808000610060000000e00003003a00f0
:101a3800c0c0b3001ef0b70057003700e0c0b300c5
:101a48001ef0b700540037001e407800e84f5000e1
:101a58000a003a00e0808000610060000000e000b9
:101a680003003a00c0c0b3001ef0b7004a003700b8
:101a7800e0c0b3001ef0b700470037001e407800f2
:101a8800e94f5000060032001e407800ed4f50002c
:101a9800030032001e407800ee4f500003003a0069
:101aa800c0c1b3001ef0b7003b0037001e407800ed
:101ab800ea4f500003003a00a0c1b3001ef0b7007f
:101ac800350037001e407800e54f500003003a000b
:101ad80060c0b3001ef0b7002f0037001e4078002a
:101ae800e44f500003003a0040c0b3001ef0b700b6
:101af800290037001e407800e24f500003003a00ea
:101b0800a0c0b3001ef0b700230037001e407800c5
:101b1800e14f500003003a0080c0b3001ef0b70048
:101b28001d0037001e407800eb4f500003003a00bc
:101b3800e0c1b3001ef0b700170037001e40780060
:101b4800eb4f500003003a0000c2b3001ef0b7008c
:101b5800110037001e407800e64f500003003a009d
:101b680060c1b3001ef0b7000b0037001e407800bc
:101b7800e34f500003003a0080c1b3001ef0b700e5
:101b8800050037001e4078000004e00002003a001b
:101b980020c0b3001ef0b7001ed0bf008080fb003d
:101ba8001ad0bf000080fb000000e900808f5000c1
:101bb800020032001ed0bf001af0b7004f047800b0
:101bc8000080fa00000006000a00fa0020079800ca
:101bd8003107980042079800e0cfb300004f780023
:101be8002e0090004880de00804078001e4078007b
:101bf80000c06800004f78002e00900080407800f8
:101c08001e40780000c06800004f78003e00900039
:101c18004880de00804078001e40780000c06800e0
:101c2800004f78003e009000804078001e40780009
:101c380000c06800004f78000000eb001007980013
:101c48000000eb0010079800080037001e00900005
:101c5800ce00900000804000104078001e4f6800c1
:101c68001e0090000000e800100798009e009000f9
:101c78003e009000808f5000f4ff35001e40780031
:101c88000080fa00000006000e00fa00889fbe00df
:101c98004007980051079800620798000f047800e1
:101ca8000f007800800478005e0090006600400015
:101cb8008000e900210798000000e8000000e80023
:101cc8000000d100800040000f00780081874700a5
:101cd8000000e8000000d100000040003007980034
:101ce8000000eb00000f78003e0090001e0040004e
:101cf800e1cfb300014878001e0fe8004e009000c5
:101d08004880de00804078003e0090001e004000c1
:101d1800014878001e0fe8004e00900080407800cf
:101d28003e0090001e004000014878001e0fe800a9
:101d38005e0090004880de00804078003e00900001
:101d48001e004000014878001e0fe8005e00900069
:101d5800804078003e0090001e0040000148780056
:101d68001e0fe8000000eb00100798000000eb00d1
:101d7800100798000b0037001e009000ee0090003e
:101d880000804000904078003e0090001e00400017
:101d9800014878001e0fe8001e0090000000e800cf
:101da800100798009e0090005e009000808f500001
:101db800f1ff35006e019000de0090004e009000ab
:101dc80081ff0700be0090009e8040008048780098
:101dd8001e0fe800de0090006e009000220307004e
:101de80089077800880778004f04be000080fa0051
:101df800000006000400fa00204798009080800048
:101e0800e30f500024003200e30f500005003e00ad
:101e1800e10f500011003200e10f500016003e00a3
:101e280007003700e50f500037003200e50f50007b
:101e380020003900e60f50004100320053003700ff
:101e48002e409000e24f400053003a00100020005e
:101e5800908088001030ef00520037002e4090002c
:101e68000080fb004800dd00808088002000200002
:101e7800908088004b0037002e4090008080fb0047
:101e88008080800000804000808088003000200032
:101e980090808800430037002e4090000080fb00af
:101ea8004800dd00608088004000200090808800a5
:101eb8003c0037002e4090008080fb00608080004e
:101ec8000080400060808800608080000000e000a2
:101ed80003003a006000200090808800310037003d
:101ee80061808000f03f2000808f500002003400a5
:101ef8001230ef002b00370050002000908088003f
:101f08000e30ef002700370070808000e1122100ba
:101f1800808040002e419000824878000000e80050
:101f2800708088007180800060808000808f500001
:101f38001b003500600020009080880019003700e1
:101f48006180800080808000e21221001eff07006f
:101f5800004f7800ae409000114798001e40900056
:101f68009e40780080cf500006003a0060808000d4
:101f7800804078008080800000407800e2122100d4
:101f88000a0007001230ef00060037001230ef0099
:101f980000000000030037000000000001003700c7
:101fa800000000000080fa00000006000800fa00a7
:101fb8004047980051479800320798000000eb000e
:101fc800000f78004e4090008080fb000002200047
:101fd800808f500033003a003e0090001040780097
:101fe8000080fb00100798003e0090000000e80009
:101ff800104078000080fb00000f78001e00900061
:102008000000e0000b003a001e0078000040780055
:10201800614060000080fb00610060004a00dd0054
:102028002171800001a0a1000100700020718800ca
:102038001d0037001e009000e10f50000b003a0011
:102048001e00780000407800614060000080fb00be
:10205800610060004700dd00217380000170a1006d
:1020680001007000207388000f0037001e009000e8
:10207800e10f50000c003a001e0078000040780084
:10208800614060000080fb00610060004600dd00e8
:10209800217380000160a100010070002073880096
:1020a80001003700000000000080fa000000060070
:1020b8000000fa0013e1a90011e1a9001061a800cd
:1020c8001021a90081088000f0fc2f00008060002a
:1020d800800888000a21ef000621ef002026200052
:1020e80070088800200320006008880021428000d2
:1020f80080ff2f00008060000000a00020428800c0
:102108000108a9002108a80011e1a8000080fa0030
:10211800000006000000fa0005e1a9000421a9005a
:102128000068a9002068a80005e1a80000002000b8
:10213800a12f2400020007000080fa00000006001a
:102148000400fa00881f7800008fbe002108800074
:10215800f0fc2f0000806000200888001e01780035
:102168009e0190000068290081c12400f7f907004a
:1021780018c0b30002f02f00f377240037fa0700e5
:102188000000e00001003c000044eb000804e0000f
:102198005400320021088000f0fc2f00008060000d
:1021a8000040a000200888001e0178009e019000d1
:1021b8000068290081c12400e4f90700020020001a
:1021c80003102400e1f9070018c0b30002f02f0043
:1021d800f377240021fa07000000e00001003c002a
:1021e8000044eb000804e0003200320021088000bf
:1021f800f0fc2f00008060000050a000200888003c
:102208001e0178009e0190000068290081c1240009
:10221800cef907000200200003282400cbf90700ac
:1022280018c0b30002f02f00f37724000bfa070060
:102238000000e00001003c000044eb000804e0005e
:102248001000320021088000000320000100700007
:10225800200888001e0178009e019000006829006f
:1022680081c12400b9f907000200200003382400c6
:10227800b6f90700fbf9070000007800100888008d
:10228800200037001e0178009e0190000068290098
:1022980081c12400adf907000200200003282400b2
:1022a800aaf90700eff90700000078001008880075
:1022b800140037001e0178009e0190000068290074
:1022c80081c12400a1f907000200200003102400a6
:1022d8009ef90700e3f9070000007800100888005d
:1022e800080037001e0178009e0190000068290050
:1022f80081c1240095f90700daf907000000780089
:10230800100888004f0478000080fa0000000600da
:102318000000fa001fe1a9001e21a9000368a90016
:102328002368a8001fe1a80000002000a14724009e
:10233800020007000080fa00000006000400fa000e
:10234800881f7800008fbe00f1088000f0fc2f0085
:1023580000806000f00888001e0178009e0190004f
:102368000068290081c1240078f9070018c0b3006b
:1023780002f02f00f3772400b8f907000000e0000e
:1023880001003c000044eb000804e0005400320067
:10239800f1088000f0fc2f00008060000040a000e1
:1023a800f00888001e0178009e019000006829004e
:1023b80081c1240065f907000200200003102400f1
:1023c80062f9070018c0b30002f02f00f377240069
:1023d800a2f907000000e00001003c000044eb0007
:1023e8000804e00032003200f1088000f0fc2f0001
:1023f800008060000050a000f00888001e017800ee
:102408009e0190000068290081c124004ff907004f
:1024180002002000032824004cf9070018c0b3006c
:1024280002f02f00f37724008cf907000000e00089
:1024380001003c000044eb000804e00010003200fa
:10244800f10880000003200001007000f0088800f7
:102458001e0178009e0190000068290081c12400b7
:102468003af90700020020000338240037f9070072
:102478007cf9070000007800100888002000370069
:102488001e0178009e0190000068290081c1240087
:102498002ef9070002002000032824002bf907006a
:1024a80070f9070000007800100888001400370051
:1024b8001e0178009e0190000068290081c1240057
:1024c80022f9070002002000031024001ff907006a
:1024d80064f9070000007800100888000800370039
:1024e8001e0178009e0190000068290081c1240027
:1024f80016f907005bf9070000007800100888004b
:102508004f0478000080fa00000006000000fa007e
:102518001160800080ff2f0000806000106088003c
:1025280000fa20002060880023aca800238ca800b3
:1025380011618000f03f2f000080600000a0a00023
:10254800106188003000200020618800c3aca8001a
:10255800c38ca80011668000f03f2f000080600047
:1025680000a0a000106688003000200020668800c7
:1025780001eca8000080fa00000006000000fa0044
:10258800889fbe00848e8000958e8000608e8000bb
:10259800718e800018c0b3000001be000400be00a8
:1025a8002cf907000000e000010035000044eb00b2
:1025b8000804e0000d003200688e8000798e8000eb
:1025c800848e8000958e800030818000418180005b
:1025d8000001be000400be007ff807000801be002d
:1025e800c8000700808e8800918e8800848e800045
:1025f800958e8000608e8000718e800018c0b300b8
:102608000001be000400be0014f907000000e0004d
:1026180001003c000044eb000804e0000d0032001b
:10262800688e8000798e8000848e8000958e800070
:1026380030818000418180000001be000400be009e
:1026480064f807000801be0096000700808e880025
:10265800918e8800808e8000918e800018c0b30013
:102668006011b800fdf807000000e00001003c0020
:102678000044eb000804e00004003200c3cca900c9
:1026880024eea800c3eca80003003700c3eca9009f
:1026980024cea800c3cca800808e8000918e800034
:1026a8006a00070002002000032224007ef90700c8
:1026b8000df907000000780030668800448e80001d
:1026c800558e8000208e8000318e800018c0b300a7
:1026d8000001be000400be00def807000000e000b4
:1026e800010035000044eb000804e0000d00320052
:1026f800288e8000398e8000448e8000558e8000a0
:1027080030818000418180000001be000400be00cd
:1027180031f807000801be007a000700408e8800e3
:10272800518e8800448e8000558e8000208e800057
:10273800318e800018c0b3000001be000400be0046
:10274800c6f807000000e00001003c000044eb0070
:102758000804e0000d003200288e8000398e8000c9
:10276800448e8000558e8000308180004181800039
:102778000001be000400be0016f807000801be00f4
:1027880048000700408e8800518e8800408e8000e7
:10279800518e800018c0b3006011b800aff8070070
:1027a8000000e00001003c000044eb000804e000e9
:1027b8000400320023cca90015eea80023eca800e1
:1027c8000300370023eca90015cea80023cca800ed
:1027d800408e8000518e80001c00070002002000ff
:1027e8000322240030f90700bff807000000780032
:1027f800306188004f04be000080fa000000060027
:102808000600fa00008fbe00424798004e40900034
:10281800e14f500004003a001e0178009e0190002c
:10282800228e8800338e88004e4090000004e0001d
:1028380004003a001e0178009e019000628e880014
:10284800738e88000080fa00000006000400fa0079
:10285800881f7800008fbe0018c0b3006011b80050
:102868001e0078009e0090007cf807000000e00041
:1028780001003d000044eb000804e00003003200c2
:102888001e0078009e009000030037001e007800ac
:102898009e00900001f0a2004f0478000080fa002a
:1028a800000006000800fa00881f7800008fbe00ac
:1028b800220798003307980018c0b3002e01900033
:1028c800be0190001e0078009e00900063f807008b
:1028d8000000e00001003c000044eb000804e000b8
:1028e800030032001e0078009e00900002003700ae
:1028f8002e009000be0090004f0478000080fa007f
:10290800000006000800fa00881f7800008fbe004b
:10291800220798003307980018c0b3002e019000d2
:10292800be0190001e0078009e00900049f8070044
:102938000000e000010035000044eb000804e0005e
:10294800030032001e0078009e009000020037004d
:102958002e009000be0090004f0478000080fa001e
:10296800000006000c00fa00881f7800008fbe00e7
:1029780022079800330798004407980055079800e5
:1029880018c0b3004e019000de0190001e007800d0
:102998009e00900031f807000000e00001003c00b4
:1029a8000044eb000804e000040032004e019000ef
:1029b800de019000028fbe000e00370018c0b30081
:1029c8002e019000be0190001e0078009e0090002d
:1029d80020f807000000e000010035000044eb008b
:1029e8000804e000030032002e019000be019000b0
:1029f800028fbe001e0078009e0090004f047800f1
:102a08000080fa00000006000400fa00008fbe00f3
:102a1800b2fd2000930424001e0078009e00900060
:102a2800caf7070002002000433324009ef807007d
:102a38000080fa00000006000400fa00008fbe00c3
:102a4800b2fd2000930424001e0078009e00900030
:102a580095f807000200200043332400bbf7070065
:102a68000080fa00000006000600fa00100798002f
:102a7800210798000040eb00004f78005400070041
:102a8800ae009000810f5000110034000040eb00b0
:102a9800004f7800060037001e80fb009e00900063
:102aa80000804000104078000b0007001e4fe8002f
:102ab8009e80fb002e009000808f5000f6ff3500ae
:102ac8002e0007000004e00001003a002200070081
:102ad8000080fa00000006000200fa00004f7800ab
:102ae80000818000e1022100008040001e4878003b
:102af800008180000000e8000081880001818000da
:102b0800f0072000808f5000010034002030ef00d3
:102b18000080fa00000006000200fa001081800020
:102b2800e102210000804000104f780010818000f1
:102b38000000e8001081880011818000f007200063
:102b4800808f5000010034002230ef001e407800d2
:102b58000080fa00000006000200fa0010c0b3006e
:102b680024f0b700ecff0700004f78001e80fb0040
:102b7800201188000080fa00000006000000fa001a
:102b880024d0bf000080fa00000006000200fa000e
:102b98000181800010818000808f50000400350082
:102ba8000181800010818000008f500005003700ef
:102bb8000181800010818000008050000108200001
:102bc800010f40001e0078000080fa000000060097
:102bd8000200fa00edff070001082000008f5000f6
:102be8001e0078000080fa00000006000000fa00cd
:102bf80021e3a8002143a80001198000f0cf2f008d
:102c080000806000001988002043a9000119800095
:102c1800000e2000010070000019880011198000c2
:102c2800f0ff210000806000101988002343a800ed
:102c380011198000f0cf2f00008060001019880063
:102c48001119800030f82f00008060000040a000bb
:102c5800101988002203a9002223a90025e3a9004e
:102c6800f0c0b30024e3b70021198000f00f2e0054
:102c78008080600000f020000100700020198800aa
:102c88003303a9001e2ea8002e0ea8002f6ea80040
:102c98004feea8006f2ea8003063a80030c3a8002c
:102ca8003163a80031e3a8002e03a8004119800071
:102cb80000fc2f00008060004019880028e3a9006c
:102cc80001a8a90021a8a80021e3a8000080fa0013
:102cd800000006000000fa002023a8000080fa0087
:102ce800000006000000fa00200021000080fa0021
:102cf800000006000000fa000ad0bf000080fa00b9
:102d0800000006000000fa000a70ef000080fa00d8
:102d1800000006000200fa00004f78002a000700b1
:102d28000000e0000c00340050818000e10a21001e
:102d3800008040001e487800508180000000e800b4
:102d48005081880051818000f0072000808f50005a
:102d5800010034002a30ef000080fa00000006006d
:102d68000200fa0060818000e10a21000080400032
:102d7800104f7800608180000000e80060818800c2
:102d880061818000f0072000808f5000010034002e
:102d98002c30ef001e4078000080fa00000006008a
:102da8000000fa005181800060818000808f50000f
:102db8000200320010c0b300010037000040eb00f1
:102dc8000080fa00000006000200fa000500070073
:102dd80001082000008f50001e0078000080fa00d3
:102de800000006000200fa00518180006081800026
:102df800808f500004003500518180006081800080
:102e0800008f5000050037006181800050818000ec
:102e18000080500001082000010f40001e007800cb
:102e28000080fa00000006000000fa002002a90055
:102e38000111800090ff2f000080600000118800c1
:102e480020a2a9002062a800500520004011880097
:102e580023a2a90023e2a9000188a9002188a800cb
:102e680011118000f0f32f0000806000101188001d
:102e78000168a9002168a80021e2a8002342a8004f
:102e88000080fa00000006000600fa00100798000b
:102e9800210798000040eb00004f78000040eb004d
:102ea800004f78000e00370000000000111180006c
:102eb80000202000008060000000e000fbff3a00d6
:102ec8001e009000104078000080fb002011880050
:102ed8001e0090000000e800100798001e4fe80050
:102ee8009e80fb002e009000808f5000eeff350082
:102ef8000080fa00000006000000fa00f00320003d
:102f0800303a8800213a8000f0f32f0000806000fa
:102f1800203a8800213a800000fe2f0000806000df
:102f28000000a000203a880012002000800720003e
:102f3800a109200033742000804978008149780075
:102f480082497800103a8000000178000200a00051
:102f58006004200071052000237420008049780057
:102f6800814978008249780000000000113a800009
:102f7800000027008080600000002100808f500042
:102f8800faff3a0000000000113a80000002200019
:102f9800008060000000e000fbff32000080fa00c3
:042fa800000006001f
:020000040000fa
:102fac00141000000600000080000000ae110000ac
:102fbc002600000080000000261000000400000025
:102fcc00820000000000a000400000000010000083
:102fdc000c000000800000001a1000000600000029
:102fec00800000002e100000800000008000000017
:102ffc00201000000600000080000000ae10000051
:10300c0080000000800000002a1000000400000076
:10301c00800000002e1100008000000080000000e5
:10302c000c100000080000008000000000000000f0
:020000040000fa
:10303c000000fa000e2eef001e2eef002e2eef00d9
:10304c003e2eef004e2eef005e2eef006e2eef00a8
:10305c00214ea90060cea90060eea90011cea900f6
:10306c0011eea90020cea90020eea9002136800087
:10307c0000f82f00008060008001b300203688002b
:10308c001134800000fc2f00008060000000a000c4
:0c309c00103488000080fa0000000600dc
:020000040000fa
:1030a800f03fb1000180b10006003500ee030900d1
:1030b80000000000403fb1000180b100fbff3d006f
:1030c8001000b000203fb000020035000080090069
:0830d8000000000000000600ea
:020000040000fa
:02000004000af0
:04afe000cfff00009f
:020000040000fa
:02000004000af0
:04afe400ffff00006b
:020000040000fa
:02000004000af0
:04afe8007fff0000e7
:020000040000fa
:02000004000af0
:04afec005fff000003
:020000040000fa
:02000004000af0
:04aff00038ff000026
:020000040000fa
:02000004000af0
:04aff400ffff00005b
:00000001FF
