:020000040000fa
:080000000002040000000000f2
:020000040000fa
:040008007a03000077
:020000040000fa
:04000c007a03000073
:020000040000fa
:040010007a0300006f
:020000040000fa
:040014007a0300006b
:020000040000fa
:040018007a03000067
:020000040000fa
:04001c007a03000063
:020000040000fa
:040020007a0300005f
:020000040000fa
:040024007a0300005b
:020000040000fa
:040028007a03000057
:020000040000fa
:04002c007a03000053
:020000040000fa
:040030007a0300004f
:020000040000fa
:0400340002030000c3
:020000040000fa
:040038007a03000047
:020000040000fa
:04003c007a03000043
:020000040000fa
:040040007a0300003f
:020000040000fa
:040044007a0300003b
:020000040000fa
:04004800fa020000b8
:020000040000fa
:04004c007a03000033
:020000040000fa
:040050007a0300002f
:020000040000fa
:040054007a0300002b
:020000040000fa
:040058007a03000027
:020000040000fa
:04005c004c03000051
:020000040000fa
:040060007a0300001f
:020000040000fa
:040064007a0300001b
:020000040000fa
:040068007a03000017
:020000040000fa
:04006c007a03000013
:020000040000fa
:040070007a0300000f
:020000040000fa
:040074007a0300000b
:020000040000fa
:040078007a03000007
:020000040000fa
:04007c007a03000003
:020000040000fa
:040080007a030000ff
:020000040000fa
:040084007a030000fb
:020000040000fa
:040088007a030000f7
:020000040000fa
:04008c007a030000f3
:020000040000fa
:040090007a030000ef
:020000040000fa
:040094002203000043
:020000040000fa
:040098007a030000e7
:020000040000fa
:04009c007a030000e3
:020000040000fa
:0400a0007a030000df
:020000040000fa
:0400a4007a030000db
:020000040000fa
:0400a8007a030000d7
:020000040000fa
:0400ac007a030000d3
:020000040000fa
:0400b0007a030000cf
:020000040000fa
:0400b4007a030000cb
:020000040000fa
:0400b8007a030000c7
:020000040000fa
:0400bc007a030000c3
:020000040000fa
:0400c0007a030000bf
:020000040000fa
:0400c4007a030000bb
:020000040000fa
:0400c8007a030000b7
:020000040000fa
:0400cc007a030000b3
:020000040000fa
:0400d0007a030000af
:020000040000fa
:0400d4007a030000ab
:020000040000fa
:0400d8007a030000a7
:020000040000fa
:0400dc007a030000a3
:020000040000fa
:0400e0007a0300009f
:020000040000fa
:0400e4007a0300009b
:020000040000fa
:0400e8007a03000097
:020000040000fa
:0400ec007a03000093
:020000040000fa
:0400f0007a0300008f
:020000040000fa
:0400f4007a0300008b
:020000040000fa
:0400f8007a03000087
:020000040000fa
:0400fc007a03000083
:020000040000fa
:040100007a0300007e
:020000040000fa
:040104007a0300007a
:020000040000fa
:040108007a03000076
:020000040000fa
:04010c007a03000072
:020000040000fa
:040110007a0300006e
:020000040000fa
:040114007a0300006a
:020000040000fa
:040118007a03000066
:020000040000fa
:04011c007a03000062
:020000040000fa
:040120007a0300005e
:020000040000fa
:040124007a0300005a
:020000040000fa
:040128007a03000056
:020000040000fa
:04012c007a03000052
:020000040000fa
:040130007a0300004e
:020000040000fa
:040134007a0300004a
:020000040000fa
:040138007a03000046
:020000040000fa
:04013c007a03000042
:020000040000fa
:040140007a0300003e
:020000040000fa
:040144007a0300003a
:020000040000fa
:040148007a03000036
:020000040000fa
:04014c007a03000032
:020000040000fa
:040150007a0300002e
:020000040000fa
:040154007a0300002a
:020000040000fa
:040158007a03000026
:020000040000fa
:04015c007a03000022
:020000040000fa
:040160007a0300001e
:020000040000fa
:040164007a0300001a
:020000040000fa
:040168007a03000016
:020000040000fa
:04016c007a03000012
:020000040000fa
:040170007a0300000e
:020000040000fa
:040174007a0300000a
:020000040000fa
:040178007a03000006
:020000040000fa
:04017c007a03000002
:020000040000fa
:040180007a030000fe
:020000040000fa
:040184007a030000fa
:020000040000fa
:040188007a030000f6
:020000040000fa
:04018c007a030000f2
:020000040000fa
:040190007a030000ee
:020000040000fa
:040194007a030000ea
:020000040000fa
:040198007a030000e6
:020000040000fa
:04019c007a030000e2
:020000040000fa
:0401a0007a030000de
:020000040000fa
:0401a4007a030000da
:020000040000fa
:0401a8007a030000d6
:020000040000fa
:0401ac007a030000d2
:020000040000fa
:0401b0007a030000ce
:020000040000fa
:0401b4007a030000ca
:020000040000fa
:0401b8007a030000c6
:020000040000fa
:0401bc007a030000c2
:020000040000fa
:0401c0007a030000be
:020000040000fa
:0401c4007a030000ba
:020000040000fa
:0401c8007a030000b6
:020000040000fa
:0401cc007a030000b2
:020000040000fa
:0401d0007a030000ae
:020000040000fa
:0401d4007a030000aa
:020000040000fa
:0401d8007a030000a6
:020000040000fa
:0401dc007a030000a2
:020000040000fa
:0401e0007a0300009e
:020000040000fa
:0401e4007a0300009a
:020000040000fa
:0401e8007a03000096
:020000040000fa
:0401ec007a03000092
:020000040000fa
:0401f0007a0300008e
:020000040000fa
:0401f4007a0300008a
:020000040000fa
:0401f8007a03000086
:020000040000fa
:0401fc007a03000082
:020000040000fa
:040200007a0300007d
:020000040000fa
:040204007a03000079
:020000040000fa
:040208007a03000075
:020000040000fa
:04020c007a03000071
:020000040000fa
:040210007a0300006d
:020000040000fa
:040214007a03000069
:020000040000fa
:040218007a03000065
:020000040000fa
:04021c007a03000061
:020000040000fa
:040220007a0300005d
:020000040000fa
:040224007a03000059
:020000040000fa
:040228007a03000055
:020000040000fa
:04022c007a03000051
:020000040000fa
:040230007a0300004d
:020000040000fa
:040234007a03000049
:020000040000fa
:040238007a03000045
:020000040000fa
:04023c007a03000041
:020000040000fa
:040240007a0300003d
:020000040000fa
:040244007a03000039
:020000040000fa
:040248007a03000035
:020000040000fa
:04024c007a03000031
:020000040000fa
:040250007a0300002d
:020000040000fa
:040254007a03000029
:020000040000fa
:040258007a03000025
:020000040000fa
:04025c007a03000021
:020000040000fa
:040260007a0300001d
:020000040000fa
:040264007a03000019
:020000040000fa
:040268007a03000015
:020000040000fa
:04026c007a03000011
:020000040000fa
:040270007a0300000d
:020000040000fa
:040274007a03000009
:020000040000fa
:040278007a03000005
:020000040000fa
:04027c007a03000001
:020000040000fa
:040280007a030000fd
:020000040000fa
:100400002f0421000eff27000e01880000000000cd
:10041000000020000000e000020032000001200087
:100420002002880014000700b40007000000e0006c
:1004300003003a00c0432100010020000200370001
:100440000000200001002000810f70000100320038
:100450000f000700000020000000e0000200320052
:100460000000020000000000ee0602000000000094
:100470000040da000000fe00800020000000e000e4
:1004800002003200002020009001880000000600d9
:10049000a1028800800478000000eb001f003700f4
:1004a000e284440054a0b4009905ba00e2844400f8
:1004b00054a0b4009906ba00e284440054a0b400e9
:1004c0000006eb00476fde00fd07b200ae018800ba
:1004d000636ce10003003a000ad801000000eb0061
:1004e0000e003700606ce10008003a00004deb00a0
:1004f0000a05e800020039003420ec000af0a000f0
:100500008b05e900f9ff3e00040037006168e10057
:10051000010032000086eb000b00070019c7ba008b
:100520000e04e0001905ba0003003a000a00e000da
:10053000dbff3a0000000600fe07b200ae028800b2
:100540008a047800f5ff37000cd0a300e20f4d00bd
:100550001c00390089027800354dba000a05e80010
:10056000020039003420ec000af0a0008b05e900fd
:100570000f003200254dba000a05e80002003900dc
:100580003420ec000af0a0008b05e90008003200de
:100590000c00e0000600320015cdba000a05e800a4
:1005a000020039003420ec000af0a0008b05e900bd
:1005b0008984e80054a0b4000b00e000e2ff3a0098
:1005c000000006009902ba00055d78008b05e9007d
:1005d000f7ff3200c82ade00055d78008b05e900d0
:1005e000f3ff32000c00e000f1ff320019ddba0029
:1005f000eeff37000000fa000108a9000080fa00b1
:10060000004006003600f800809fbe00829fbe00ba
:10061000849fbe00869fbe000000fa000068a9000b
:10062000960607000a0807000080fa004f03be0084
:100630004f02be004f01be004f00be003600f90061
:10064000004006003600f800809fbe00829fbe007a
:10065000849fbe00869fbe000000fa000368a900c8
:10066000608080007180800061004000e080480070
:100670006080880071808800af0207000080fa0067
:100680004f03be004f02be004f01be004f00be0030
:100690003600f90000400600809fbe000000fa000e
:1006a00001a8a9000118800020002100010878009d
:1006b00011188000200021001100980021188000ee
:1006c0002000210021009800311880002000210026
:1006d000310098004118800020002100410098005e
:1006e00010c0b3000af0b7000080fa004f00be004f
:1006f000004006000040da000000fe000000050097
:1007000003f0a200889fbe008a9fbe008c1f780065
:10071000180107001f0133006450e1004f00320050
:100720006420e1005200320003826c0007003b00ad
:100730000905d0000306d000820f54000c065d00ae
:1007400002003900020032008901780003067800b7
:100750008582550004003d000003fd008103fd007b
:100760008502ea008b854200840f720002003b0084
:1007700060001000e08018006011b8000005eb0078
:100780007a28e1000a00390006007800c75ddd0024
:10079000f707b200878075002d0037008281710055
:1007a0000a017800610560008180d1000080d300db
:1007b0008502e900f9ff3b000604400087844800f9
:1007c00002003b0060041400e0841c000988a300c0
:1007d000070032008a81710082817100610164002a
:1007e0008904d1000884d3008b05e8001700370086
:1007f0000978a30013003a000b00e0001300340056
:100800008b05e9000804440089844c000a44740004
:100810000978a3000d003a000b00e0000700340047
:100820008b05e9000804440089844c0001003a006b
:100830000b0020000978a300f7ff32000001eb0055
:1008400002003700828171000a0178008e000700e3
:100850000cf0a70001f0a000d70037006420e100f1
:1008600002003a00838f6c00d70033000801be00fd
:100870000200be00d0003700889fbe008a9fbe00e5
:100880008c1f7800bb000700c200330003866c0099
:100890006450e1002e0032006420e1003300320099
:1008a0006150e1002f0032006120e1003100320090
:1008b00085855500eb07b0000900200008042000e2
:1008c000050037000804440089844c000a00310008
:1008d0000603430087834b000001530081815b00c6
:1008e000f8ff33000203be000800a0000804440023
:1008f00089844c00f6ff3900c639dd00830173009e
:1009000001003200130020008904d1000884d300c4
:100910000998a300050032000800a7000300a0000a
:100920008904d1000884d3008b05e8008904d10034
:100930000884d3000001eb000281d20052000700be
:1009400001f0a1000cf0a70001f0a0009a00370010
:100950006420e1009c0032000801be000200be00dd
:10096000f7ff37006120e100970032006000b80017
:10097000f3ff37000000200001f82700f0ff3700e8
:1009800014002000c7003700f4ff2f00c500370017
:100990000001be00620007000470a70003f0a10080
:1009a0006509b100160032000d0035006828e1002d
:1009b00006003500f0ff2f00f1ff27000300e000e4
:1009c00013003b000100280000000500000040006b
:1009d000818048008502e900fcff3a0008003700ea
:1009e000f88f420002003c008000eb000000050090
:1009f0008100d1000080d3008502e800fcff3a00ae
:100a00000300e00002003b0060001000e0801800de
:100a1000000006000001be00410007000470a700ae
:100a200003f0a10003f8a30013003a006509b10028
:100a300010003200090035006928e100020035008d
:100a400001002800000005000000400081804800ef
:100a50008502e900fcff3a0000000600f88f420022
:100a6000050035008100d1000080d3008502e80038
:100a7000fcff3a00000006008000eb0000000500cb
:100a80006011b800a200370081002000618055008d
:100a90000b003d000b00200061fe2f000100e10073
:100aa0001d00340082817100610164008904d1005d
:100ab0000884d3000000e800faff3a00710020002b
:100ac0006100640003007000020060000900320051
:100ad00061044400e0844c000988a5000500320050
:100ae0008b05e8006808e10002003a008904d100a3
:100af0000884d300f20f20000258e10005003d00f9
:100b0000c75ddd00f907b200898075000800780034
:100b1000000006000bf827008b007800000005009d
:100b2000c70ade00f107b200f50fb200080032007c
:100b3000e1cf4200020032000170a0002400050055
:100b4000810f700001003200040805004400050018
:100b5000810f700002003a00140005008502e900d0
:100b60000000400081c04800fcff3b000170a00075
:100b7000240005000004be00e9ff07000003be00da
:100b80000405be000200be00e5ff0700844f7500ab
:100b9000000006000200be006450e10005003600bf
:100ba0006420e100020036000968a30001003a0059
:100bb0000800be000160a0004f0678004f05be008f
:100bc0004f04be0000000600f0ff2f00f1ff2700d9
:100bd000f9ff3700889fbe008a9fbe008c1f7800f7
:100be000e4ff0700ebff330003866c006450e10074
:100bf000240032006420e100270032006150e1004f
:100c0000220032006120e100210032008b85420089
:100c1000eb07b1000134b800003ab8000804420004
:100c200089844a00013ab8000030b800888040004a
:100c300009014a00040033000000400081804800a0
:100c4000020149008b05e900c909dd00830170003c
:100c50000100320013002000c814de004814dd003b
:100c60004709de001200b200c808de0008847000e8
:100c700085ff070001f0a1000cf0a70001f0a00023
:100c8000cdff37006120e100cfff32000801be0038
:100c90000200be00f7ff37006150e100fcff3a00a0
:100ca000c9ff3700889fbe008a9fbe00841f78005e
:100cb000b0ff07004f00780011003300f0ff2f0055
:100cc000838f6c0006003b00040565000a00a70046
:100cd0000800370009f0a6001000200008003700c7
:100ce000820f5400838f5c00030039001000200045
:100cf00001003e000000200009f0a7000000ea000b
:100d00004f05be004f04be000000e00000000600da
:100d1000889fbe008a9fbe0000827000040271009e
:100d200004827100260032000004be000200be00f2
:100d30006011b8006b092000950220000182cf00ed
:100d40000a0039000541b1000082cf0007003900d8
:100d50000541b1000982cf00040039000541b1000e
:100d60000882cf00010039000541b1000542520060
:100d7000120032000a003b008281710061016400b0
:100d80008100d1000080d3008984d3000884d3007f
:100d90008b05e8000442e800f7ff3a00070037003f
:100da0000804440089844c00000048008180480009
:100db0008b05e9000442e900f9ff3a0032ff070021
:0c0dc0004f05be004f04be0000000600fe
:020000040000fa
:100dcc00426f00006e6a00006f7500007200000038
:020000040000fa
:100ddc000600fa00881f78005e06070088060700e8
:100dec00700307008803070085040700db05070074
:100dfc0004040700230607001a060700e14f500001
:100e0c0083003a001b06070012060700000f78004b
:100e1c001e80e800100078008000eb0015ff070032
:100e2c00323323003305240067ff07000200200043
:100e3c00035824008dfe0700d2cc2c00c3042400e0
:100e4c0061ff070010079800210798001e01900011
:100e5c00ae019000000020008120240083fe0700da
:100e6c0002002000030a240022fe0700f080880004
:100e7c00018188009e00780064804000100078009a
:100e8c008000eb00fbfe0700323323003305240007
:100e9c004dff0700020020000358240073fe0700da
:100eac00d2cc2c00c304240047ff07001007980085
:100ebc00210798001e019000ae0190000000200058
:100ecc008120240069fe070002002000030a240090
:100edc0008fe070010818800218188009e007800a0
:100eec0068804000100078008000eb00e1fe0700f5
:100efc00323323003305240033ff070002002000a7
:100f0c000358240059fe0700d2cc2c00c304240043
:100f1c002dff070010079800210798001e01900074
:100f2c00ae01900000002000812024004ffe07003d
:100f3c0002002000030a2400eefd07003081880027
:100f4c00418188009e007800668040001000780087
:100f5c008000eb00c7fe070032332300330524006a
:100f6c0019ff070002002000035824003ffe070071
:100f7c00d2cc2c00c304240013ff070010079800e8
:100f8c00210798001e019000ae0190000000200087
:100f9c008120240035fe070002002000030a2400f3
:100fac00d4fd070050818800618188001e00780004
:100fbc00100078008000eb00aefe070032332300f7
:100fcc003305240000ff0700020020000358240012
:100fdc0026fe0700d2cc2c00c3042400fafe070026
:100fec0010079800210798001e019000ae01900098
:100ffc0000002000812024001cfe070002002000bd
:10100c00030a2400bbfd07007081880081818800e1
:10101c00f08080000181800018c0b3000200200025
:10102c00031f240053fe07000000e0000100350000
:10103c000044eb000804e0000b003a003081800013
:10104c004181800018c0b30002002000031f24005f
:10105c0048fe07000000e000010035000044eb00f2
:10106c000804e00002003200254ea8000100370001
:10107c00254ea900108180002181800018c0b3008a
:10108c0002002000031724003afe07000000e000d5
:10109c00010035000044eb000804e00002003200bf
:1010ac0064eea8000100370064eea90050818000b6
:1010bc006181800018c0b3000200200003172400d7
:1010cc002cfe07000000e000010035000044eb009e
:1010dc000804e0000b003a007081800081818000e0
:1010ec0018c0b300020020000317240021fe0700e3
:1010fc000000e000010035000044eb000804e000b3
:10110c000200320064cea8000100370064cea900b2
:10111c00606e2800710020007205070000a02500f9
:10112c0021262000e305070033ff37000000fa00fa
:10113c0012d0bf000080fb00cf80de001202200026
:10114c0003002000820f5000838f5800e5003e0002
:10115c0000060100210037002a0037003300370059
:10116c0040003700410037004b0037004c0037007f
:10117c00550037005600370060003700610037001b
:10118c006a0037006b0037007500370076003700b7
:10119c0080003700d3003700d2003700d100370071
:1011ac00d0003700cf003700ce0037008700370063
:1011bc009000370079003700820037008f0037002d
:1011cc009c0037009d003700aa003700ab003700a9
:1011dc00b5003700b6003700c00037000c30ef0008
:1011ec000e30ef000041eb006000b8004104070036
:1011fc0012c0b3006000b8003e04070010c0b3007a
:10120c0012f0b7006280800073808000803e200066
:10121c0001002000800f5100818f5900b50036006d
:10122c0020c0b30012f0b700b30037000041eb0050
:10123c0000002000811c2c002e04070012c0b300fb
:10124c0000002000811c24002a04070030c0b300d9
:10125c0012f0b700a08080000000e800a080880099
:10126c00a5003700a6000700a30037000041eb00e3
:10127c000000200001172c001e04070012c0b30050
:10128c0000002000010a24001a04070050c0b3001b
:10129c0012f0b7009800370099000700960037004d
:1012ac000041eb000000200001172c001104070086
:1012bc0012c0b3006000b8000e04070050c0b300a9
:1012cc0012f0b7008c0037008d0007008a00370041
:1012dc000041eb0000002000010a2c00050407006f
:1012ec0012c0b30000002000011724000104070005
:1012fc0090c0b30012f0b7007f00370080000700e9
:10130c007d0037000041eb006000b800f9030700d6
:10131c0012c0b3000000200001172400f5030700e1
:10132c0090c0b30012f0b7007300370074000700d0
:10133c00710037000041eb000000200001172c0069
:10134c00ec03070012c0b3000000200001172c00b2
:10135c00e8030700d0c0b30012f0b70066003700f6
:10136c0067000700640037000041eb00000020001c
:10137c0001172400df03070012c0b3000000200097
:10138c0001172400db030700f0c0b30012f0b70014
:10139c00590037005a000700570037000041eb0096
:1013ac006000b800d303070012c0b3000000200097
:1013bc0001172400cf030700f0c0b30012f0b700f0
:1013cc004d0037004e0007004b0037000041eb008a
:1013dc000000200001172c00c603070012c0b30048
:1013ec006000b800c3030700f0c0b30012f0b700f0
:1013fc0041003700420007003f0037000041eb007e
:10140c000000200001122c00ba03070012c0b30028
:10141c000000200001122400b6030700b0c1b30085
:10142c0012f0b700a08080000000e800a0808800c7
:10143c0031003700320007002f0037000041eb006d
:10144c000000200001172c00aa03070012c0b300f3
:10145c000000200001172400a6030700d0c1b30030
:10146c0012f0b700a08080000000e800a080880087
:10147c0021003700220007001f0037000041eb005d
:10148c000000200001082c009a03070012c0b300d2
:10149c00000020000104240096030700f0c1b300f3
:1014ac0012f0b700140037001500070012003700c7
:1014bc000041eb000000200001042c008d0307000c
:1014cc0012c0b300000020000108240089030700ab
:1014dc0010c2b30012f0b700070037000800070075
:1014ec000500370020c0b30012f0b7000000000068
:1014fc0001003700000000000080fa000000060028
:10150c000200fa00881f78000040eb00004f7800c2
:10151c00f08080000181800018c0b3000200200020
:10152c000312240013fd07000000e0000100350049
:10153c000044eb000804e0000e0032003081800013
:10154c004181800018c0b300020020000312240067
:10155c0008fd07000000e000010035000044eb002e
:10156c000804e0000300320070c0b300004f7800a4
:10157c001f013700108180002181800018c0b3004a
:10158c000200200003172400fafc07000000e00012
:10159c00010035000044eb000804e00003003200b9
:1015ac0080c0b300004f780011013700f08080003c
:1015bc000181800018c0b300020020000317240032
:1015cc00ecfc07000000e000010035000044eb00db
:1015dc000804e0000300320050c0b300004f780054
:1015ec0003013700f08080000181800018c0b30037
:1015fc0002002000831c2400defc07000000e00039
:10160c00010035000044eb000804e0000300320048
:10161c0040c0b300004f7800f500370030818000e7
:10162c004181800018c0b300020020000317240081
:10163c00d0fc07000000e000010035000044eb0086
:10164c000804e0000300320020c0b300004f780013
:10165c00e7003700308180004181800018c0b30062
:10166c0002002000831c2400c2fc07000000e000e4
:10167c00010035000044eb000804e00003003200d8
:10168c0010c0b300004f7800d900370010818000e3
:10169c002181800018c0b30002002000831c2400ac
:1016ac00b4fc07000000e000010035000044eb0032
:1016bc000804e00003003200a0c0b300004f780023
:1016cc00cb003700108180002181800018c0b3004e
:1016dc000200200083242400a6fc07000000e00088
:1016ec00010035000044eb000804e0000300320068
:1016fc0090c0b300004f7800bd003700f080800030
:10170c000181800018c0b30002002000031f2400d8
:10171c0098fc07000000e000010035000044eb00dd
:10172c000804e00003003200d0c0b300004f780082
:10173c00af003700308180004181800018c0b300b9
:10174c0002002000031f24008afc07000000e000b8
:10175c00010035000044eb000804e00003003200f7
:10176c00e0c0b300004f7800a1003700508180002a
:10177c006181800018c0b300020020000317240010
:10178c007cfc07000000e000010035000044eb0089
:10179c000804e0000300320030c0b300004f7800b2
:1017ac0093003700708180008181800018c0b300e5
:1017bc0002002000031724006efc07000000e0006c
:1017cc00010035000044eb000804e0000300320087
:1017dc0060c0b300004f7800850037007081800036
:1017ec008181800018c0b300020020000317240080
:1017fc0060fc07000000e000010035000044eb0035
:10180c000804e0001b0032005081800061818000e0
:10181c0018c0b300020020000317240055fc070079
:10182c000000e000010035000044eb000804e0007b
:10183c00100032007481800085818000508180000e
:10184c006181800018c0b3000001be000400be001e
:10185c0048fc07000000e000010035000044eb00ec
:10186c000804e00003003200b0c0b300004f780061
:10187c005f003700708180008181800018c0b30048
:10188c0002002000031724003afc07000000e000cf
:10189c00010035000044eb000804e0001b0032009e
:1018ac00508180006181800018c0b30002002000cc
:1018bc00031724002ffc07000000e0000100350096
:1018cc000044eb000804e00010003200748180003a
:1018dc0085818000508180006181800018c0b30038
:1018ec000001be000400be0024fc07000000e00064
:1018fc0001003c000044eb000804e000030032004f
:10190c00c0c0b300004f78003900370070818000f0
:10191c008181800018c0b30002002000031724004e
:10192c0016fc07000000e00001003c000044eb0046
:10193c000804e0002e003200f0808000018180005d
:10194c0018c0b30002002000031f24000bfc07008a
:10195c000000e00001003c000044eb000804e00043
:10196c0023003200108180002181800018c0b30058
:10197c00020020008324240000fc07000000e0008b
:10198c0001003c000044eb000804e00018003200a9
:10199c00308180004181800018c0b300020020001b
:1019ac00031f2400f5fb07000000e00001003c00d1
:1019bc000044eb000804e0000d0032005081800070
:1019cc006181800018c0b3000200200003172400be
:1019dc00eafb07000000e00001003c000044eb00c3
:1019ec000804e000020032000040eb00004f7800d9
:1019fc001e407800e74f50000a003a00a08080009b
:101a0c00610060000000e00003003a00c0c0b300b9
:101a1c0016f0b70057003700e0c0b30016f0b7005f
:101a2c00540037001e407800e84f50000a003a007e
:101a3c00a0808000610060000000e00003003a001c
:101a4c00c0c0b30016f0b7004a003700e0c0b300c6
:101a5c0016f0b700470037001e407800e94f5000e1
:101a6c00060032001e407800ed4f5000030032009b
:101a7c001e407800ee4f500003003a00c0c1b30086
:101a8c0016f0b7003b0037001e407800ea4f5000bc
:101a9c0003003a00a0c1b30016f0b70035003700c0
:101aac001e407800e54f500003003a0060c0b300c0
:101abc0016f0b7002f0037001e407800e44f50009e
:101acc0003003a0040c0b30016f0b70029003700fd
:101adc001e407800e24f500003003a00a0c0b30053
:101aec0016f0b700230037001e407800e14f50007d
:101afc0003003a0080c0b30016f0b7001d00370099
:101b0c001e407800eb4f500003003a00e0c1b300d8
:101b1c0016f0b700170037001e407800eb4f50004e
:101b2c0003003a0000c2b30016f0b70011003700f2
:101b3c001e407800e64f500003003a0060c1b3002d
:101b4c0016f0b7000b0037001e407800e34f500032
:101b5c0003003a0080c1b30016f0b700050037004f
:101b6c001e4078000004e00002003a0020c0b300e0
:101b7c0016f0b70016d0bf008080fb0012d0bf005b
:101b8c000080fb000000e900808f50000200320052
:101b9c0016d0bf0012f0b7004f0478000080fa0096
:101bac00000006000000fa0013e1a90011e1a900f1
:101bbc001061a8001021a90081088000f0fc2f0002
:101bcc0000806000800888000a21ef000621ef00e9
:101bdc002026200070088800200320006008880060
:101bec002142800080ff2f00008060000000a000d8
:101bfc00204288000108a9002108a80011e1a800d2
:101c0c000080fa00000006000000fa0005e1a900bf
:101c1c000421a9000068a9002068a80005e1a8001b
:101c2c0000002000a12f2400020007000080fa0011
:101c3c00000006000400fa00881f7800008fbe0028
:101c4c0021088000f0fc2f00008060002008880034
:101c5c001e0178009e0190000068290081c12400bb
:101c6c0002fb070018c0b30002f02f00f37724002a
:101c7c0042fb07000000e00001003c000044eb00c8
:101c8c000804e0005400320021088000f0fc2f0012
:101c9c00008060000040a000200888001e01780031
:101cac009e0190000068290081c12400effa070012
:101cbc000200200003102400ecfa070018c0b30047
:101ccc0002f02f00f37724002cfb07000000e0004b
:101cdc0001003c000044eb000804e000320032003c
:101cec0021088000f0fc2f00008060000050a00054
:101cfc00200888001e0178009e01900000682900d1
:101d0c0081c12400d9fa0700020020000328240016
:101d1c00d6fa070018c0b30002f02f00f3772400a6
:101d2c0016fb07000000e00001003c000044eb0043
:101d3c000804e0001000320021088000000320009d
:101d4c0001007000200888001e0178009e019000a0
:101d5c000068290081c12400c4fa07000200200099
:101d6c0003382400c1fa070006fb070000007800c6
:101d7c0010088800200037001e0178009e0190009a
:101d8c000068290081c12400b8fa07000200200075
:101d9c0003282400b5fa0700fafa070000007800bf
:101dac0010088800140037001e0178009e01900076
:101dbc000068290081c12400acfa07000200200051
:101dcc0003102400a9fa0700eefa070000007800bf
:101ddc0010088800080037001e0178009e01900052
:101dec000068290081c12400a0fa0700e5fa070069
:101dfc0000007800100888004f0478000080fa007a
:101e0c00000006000000fa001fe1a9001e21a90035
:101e1c000368a9002368a8001fe1a80000002000a7
:101e2c00a1472400020007000080fa000000060011
:101e3c000400fa00881f7800008fbe00f1088000b3
:101e4c00f0fc2f0000806000f00888001e01780074
:101e5c009e0190000068290081c1240083fa0700cc
:101e6c0018c0b30002f02f00f3772400c3fa070068
:101e7c000000e00001003c000044eb000804e0001e
:101e8c0054003200f1088000f0fc2f00008060004c
:101e9c000040a000f00888001e0178009e01900010
:101eac000068290081c1240070fa0700020020009c
:101ebc00031024006dfa070018c0b30002f02f00c5
:101ecc00f3772400adfa07000000e00001003c00ad
:101edc000044eb000804e00032003200f1088000fe
:101eec00f0fc2f00008060000050a000f00888007b
:101efc001e0178009e0190000068290081c1240019
:101f0c005afa0700020020000328240057fa0700a1
:101f1c0018c0b30002f02f00f377240097fa0700e3
:101f2c000000e00001003c000044eb000804e0006d
:101f3c0010003200f1088000000320000100700046
:101f4c00f00888001e0178009e01900000682900ae
:101f5c0081c1240045fa0700020020000338240048
:101f6c0042fa070087fa0700000078001008880082
:101f7c00200037001e0178009e01900000682900a7
:101f8c0081c1240039fa0700020020000328240034
:101f9c0036fa07007bfa070000007800100888006a
:101fac00140037001e0178009e0190000068290083
:101fbc0081c124002dfa0700020020000310240028
:101fcc002afa07006ffa0700000078001008880052
:101fdc00080037001e0178009e019000006829005f
:101fec0081c1240021fa070066fa0700000078007e
:101ffc00100888004f0478000080fa0000000600ea
:10200c000000fa001160800080ff2f00008060004b
:10201c001060880000fa20002060880023aca80023
:10202c00238ca80011618000f03f2f00008060001d
:10203c0000a0a00010618800300020002061880002
:10204c00c3aca800c38ca80011668000f03f2f0021
:10205c000080600000a0a000106688003000200006
:10206c002066880001eca8000080fa000000060041
:10207c000000fa00889fbe00f48180000582800079
:10208c00d0818000e181800018c0b3000001be0047
:10209c000400be0037fa07000000e0000100350024
:1020ac000044eb000804e0000d003200d8818000f1
:1020bc00e9818000f481800005828000c08080006e
:1020cc00d18080000001be000400be008af9070028
:1020dc000801be00c8000700f0818800018288005a
:1020ec00f481800005828000d0818000e181800035
:1020fc0018c0b3000001be000400be001ffa0700a8
:10210c000000e00001003c000044eb000804e0008b
:10211c000d003200d8818000e9818000f4818000bc
:10212c0005828000c0808000d18080000001be004c
:10213c000400be006ff907000801be0096000700fe
:10214c00f081880001828800f0818000018280008b
:10215c0018c0b3006011b80008fa07000000e000d6
:10216c0001003c000044eb000804e00004003200d5
:10217c00c3cca90024eea800c3eca80003003700d0
:10218c00c3eca90024cea800c3cca800f081800029
:10219c00018280006a000700020020000322240054
:1021ac0089fa070018fa07000000780030668800ea
:1021bc00b4818000c581800090818000a181800065
:1021cc0018c0b3000001be000400be00e9f907000e
:1021dc000000e000010035000044eb000804e000c2
:1021ec000d00320098818000a9818000b4818000ac
:1021fc00c5818000c0808000d18080000001be00bd
:10220c000400be003cf907000801be007a0007007c
:10221c00b0818800c1818800b4818000c5818000b4
:10222c0090818000a181800018c0b3000001be0025
:10223c000400be00d1f907000000e00001003c00e2
:10224c000044eb000804e0000d003200988180008f
:10225c00a9818000b4818000c5818000c08080008d
:10226c00d18080000001be000400be0021f90700ef
:10227c000801be0048000700b0818800c1818800b9
:10228c00b0818000c181800018c0b3006011b8001b
:10229c00baf907000000e00001003c000044eb002c
:1022ac000804e0000400320023cca90015eea800bd
:1022bc0023eca8000300370023eca90015cea800de
:1022cc0023cca800b0818000c18180001c000700d5
:1022dc0002002000032224003bfa0700caf9070081
:1022ec0000007800306188004f04be000080fa00c6
:1022fc00000006000600fa00008fbe00424798005e
:10230c004e409000e14f500004003a001e0178004e
:10231c009e01900092818800a38188004e4090001d
:10232c000004e00004003a001e0178009e019000b9
:10233c00d2818800e38188000080fa00000006004a
:10234c000400fa00881f7800008fbe0018c0b3008c
:10235c006011b8001e0078009e00900087f90700fd
:10236c000000e00001003d000044eb000804e00028
:10237c00030032001e0078009e009000030037001e
:10238c001e0078009e00900001f0a2004f0478001f
:10239c000080fa00000006000800fa00881f780090
:1023ac00008fbe00220798003307980018c0b300b6
:1023bc002e019000be0190001e0078009e0090003f
:1023cc006ef907000000e00001003c000044eb0047
:1023dc000804e000030032001e0078009e0090000c
:1023ec00020037002e009000be0090004f047800d1
:1023fc000080fa00000006000800fa00881f780030
:10240c00008fbe00220798003307980018c0b30055
:10241c002e019000be0190001e0078009e009000de
:10242c0054f907000000e000010035000044eb0007
:10243c000804e000030032001e0078009e009000ab
:10244c00020037002e009000be0090004f04780070
:10245c000080fa00000006000c00fa00881f7800cb
:10246c00008fbe002207980033079800440798009d
:10247c005507980018c0b3004e019000de01900083
:10248c001e0078009e0090003cf907000000e00060
:10249c0001003c000044eb000804e00004003200a2
:1024ac004e019000de019000028fbe000e0037003e
:1024bc0018c0b3002e019000be0190001e007800e1
:1024cc009e0090002bf907000000e0000100350091
:1024dc000044eb000804e000030032002e019000e1
:1024ec00be019000028fbe001e0078009e0090007e
:1024fc004f0478000080fa00000006000400fa0087
:10250c00008fbe00b2fd2000930424001e00780052
:10251c009e009000d5f807000200200043332400f1
:10252c00a9f907000080fa00000006000400fa0078
:10253c00008fbe00b2fd2000930424001e00780022
:10254c009e009000a0f907000200200043332400f5
:10255c00c6f807000080fa00000006000000fa0030
:10256c0021e3a8002143a80001198000f0cf2f001f
:10257c0000806000001988002043a9000119800028
:10258c00000e200001007000001988001119800055
:10259c00f0ff210000806000101988002343a80080
:1025ac0011198000f0cf2f000080600010198800f6
:1025bc001119800030f82f00008060000040a0004e
:1025cc00101988002203a9002223a90025e3a900e1
:1025dc00f0c0b30024e3b70021198000f00f2e00e7
:1025ec008080600000f0200001007000201988003d
:1025fc003303a9001e2ea8002e0ea8002f6ea800d3
:10260c004feea8006f2ea8003063a80030c3a800be
:10261c003163a80031e3a8002e03a8004119800003
:10262c0000fc2f00008060004019880028e3a900fe
:10263c0001a8a90021a8a80021e3a8000080fa00a5
:10264c00000006000000fa002023a8000080fa0019
:10265c00000006000000fa00200021000080fa00b3
:10266c00000006000000fa000ad0bf000080fa004b
:10267c00000006000000fa000a70ef000080fa006b
:10268c00000006000000fa002002a90001118000e1
:10269c0090ff2f00008060000011880020a2a9008c
:1026ac002062a800500520004011880023a2a90038
:1026bc0023e2a9000188a9002188a900111180003a
:1026cc00f0f32f0000806000101188000168a90051
:1026dc002168a90021e2a8002342a8000080fa008a
:1026ec00000006000600fa00100798002107980069
:1026fc000040eb00004f78000040eb00004f7800ea
:10270c000e00370000000000111180000020200096
:10271c00008060000000e000fbff3a001e0090000b
:10272c00104078000080fb00201188001e009000f3
:10273c000000e800100798001e4fe8009e80fb0088
:10274c002e009000808f5000eeff35000080fa00c4
:10275c00000006000000fa00f0032000303a880068
:10276c00213a8000f0f32f0000806000203a8800ae
:10277c00213a800000fe2f00008060000000a000c5
:10278c00203a88001200200080072000a1092000b8
:10279c0033742000804978008149780082497800a0
:1027ac00103a8000000178000200a00060042000b4
:1027bc00710520002374200080497800814978003d
:1027cc008249780000000000113a800000002700c8
:1027dc008080600000002100808f5000faff3a00da
:1027ec0000000000113a8000000220000080600010
:1027fc000000e000fbff32000080fa000000060041
:10280c000000fa000e2eef001e2eef002e2eef0011
:10281c003e2eef004e2eef005e2eef006e2eef00e0
:10282c00214ea90060cea90060eea90011cea9002e
:10283c0011eea90020cea90020eea90021368000bf
:10284c0000f82f00008060008001b3002036880063
:10285c001134800000fc2f00008060000000a000fc
:0c286c00103488000080fa000000060014
:020000040000fa
:102878000c10000006000000800000001c10000082
:10288800260000008000000018100000040000006e
:10289800820000000000a0004000000000100000be
:1028a8000c0000008000000012100000060000006c
:0828b800800000000000000098
:020000040000fa
:1028c000f03fb1000180b10006003500ee030900c1
:1028d00000000000403fb1000180b100fbff3d005f
:1028e0001000b000203fb000020035000080090059
:0828f0000000000000000600da
:020000040000fa
:02000004000af0
:04afe000cfff00009f
:020000040000fa
:02000004000af0
:04afe400ffff00006b
:020000040000fa
:02000004000af0
:04afe8007fff0000e7
:020000040000fa
:02000004000af0
:04afec005fff000003
:020000040000fa
:02000004000af0
:04aff00038ff000026
:020000040000fa
:02000004000af0
:04aff400ffff00005b
:00000001FF
