:020000040000fa
:080000000002040000000000f2
:020000040000fa
:04000800de03000013
:020000040000fa
:04000c00de0300000f
:020000040000fa
:04001000de0300000b
:020000040000fa
:04001400de03000007
:020000040000fa
:04001800de03000003
:020000040000fa
:04001c00de030000ff
:020000040000fa
:04002000de030000fb
:020000040000fa
:04002400de030000f7
:020000040000fa
:04002800de030000f3
:020000040000fa
:04002c00de030000ef
:020000040000fa
:04003000de030000eb
:020000040000fa
:0400340002030000c3
:020000040000fa
:04003800de030000e3
:020000040000fa
:04003c00de030000df
:020000040000fa
:04004000de030000db
:020000040000fa
:04004400de030000d7
:020000040000fa
:04004800fa020000b8
:020000040000fa
:04004c00de030000cf
:020000040000fa
:04005000de030000cb
:020000040000fa
:040054009a0300000b
:020000040000fa
:040058007003000031
:020000040000fa
:04005c004c03000051
:020000040000fa
:04006000de030000bb
:020000040000fa
:04006400de030000b7
:020000040000fa
:04006800de030000b3
:020000040000fa
:04006c00de030000af
:020000040000fa
:04007000de030000ab
:020000040000fa
:04007400de030000a7
:020000040000fa
:04007800de030000a3
:020000040000fa
:04007c00de0300009f
:020000040000fa
:04008000de0300009b
:020000040000fa
:04008400de03000097
:020000040000fa
:04008800de03000093
:020000040000fa
:04008c00de0300008f
:020000040000fa
:04009000de0300008b
:020000040000fa
:040094002203000043
:020000040000fa
:04009800de03000083
:020000040000fa
:04009c00de0300007f
:020000040000fa
:0400a000de0300007b
:020000040000fa
:0400a400de03000077
:020000040000fa
:0400a800de03000073
:020000040000fa
:0400ac00de0300006f
:020000040000fa
:0400b000de0300006b
:020000040000fa
:0400b400de03000067
:020000040000fa
:0400b800de03000063
:020000040000fa
:0400bc00de0300005f
:020000040000fa
:0400c000de0300005b
:020000040000fa
:0400c400de03000057
:020000040000fa
:0400c800de03000053
:020000040000fa
:0400cc00de0300004f
:020000040000fa
:0400d000de0300004b
:020000040000fa
:0400d400de03000047
:020000040000fa
:0400d800de03000043
:020000040000fa
:0400dc00de0300003f
:020000040000fa
:0400e000de0300003b
:020000040000fa
:0400e400de03000037
:020000040000fa
:0400e800de03000033
:020000040000fa
:0400ec00de0300002f
:020000040000fa
:0400f000de0300002b
:020000040000fa
:0400f400de03000027
:020000040000fa
:0400f800de03000023
:020000040000fa
:0400fc00de0300001f
:020000040000fa
:04010000de0300001a
:020000040000fa
:04010400de03000016
:020000040000fa
:04010800de03000012
:020000040000fa
:04010c00de0300000e
:020000040000fa
:04011000de0300000a
:020000040000fa
:04011400de03000006
:020000040000fa
:04011800de03000002
:020000040000fa
:04011c00de030000fe
:020000040000fa
:04012000de030000fa
:020000040000fa
:04012400de030000f6
:020000040000fa
:04012800de030000f2
:020000040000fa
:04012c00de030000ee
:020000040000fa
:04013000de030000ea
:020000040000fa
:04013400de030000e6
:020000040000fa
:04013800de030000e2
:020000040000fa
:04013c00de030000de
:020000040000fa
:04014000de030000da
:020000040000fa
:04014400de030000d6
:020000040000fa
:04014800de030000d2
:020000040000fa
:04014c00de030000ce
:020000040000fa
:04015000de030000ca
:020000040000fa
:04015400de030000c6
:020000040000fa
:04015800de030000c2
:020000040000fa
:04015c00de030000be
:020000040000fa
:04016000de030000ba
:020000040000fa
:04016400de030000b6
:020000040000fa
:04016800de030000b2
:020000040000fa
:04016c00de030000ae
:020000040000fa
:04017000de030000aa
:020000040000fa
:04017400de030000a6
:020000040000fa
:04017800de030000a2
:020000040000fa
:04017c00de0300009e
:020000040000fa
:04018000de0300009a
:020000040000fa
:04018400de03000096
:020000040000fa
:04018800de03000092
:020000040000fa
:04018c00de0300008e
:020000040000fa
:04019000de0300008a
:020000040000fa
:04019400de03000086
:020000040000fa
:04019800de03000082
:020000040000fa
:04019c00de0300007e
:020000040000fa
:0401a000de0300007a
:020000040000fa
:0401a400de03000076
:020000040000fa
:0401a800de03000072
:020000040000fa
:0401ac00de0300006e
:020000040000fa
:0401b000de0300006a
:020000040000fa
:0401b400de03000066
:020000040000fa
:0401b800de03000062
:020000040000fa
:0401bc00de0300005e
:020000040000fa
:0401c000de0300005a
:020000040000fa
:0401c400de03000056
:020000040000fa
:0401c800de03000052
:020000040000fa
:0401cc00de0300004e
:020000040000fa
:0401d000de0300004a
:020000040000fa
:0401d400de03000046
:020000040000fa
:0401d800de03000042
:020000040000fa
:0401dc00de0300003e
:020000040000fa
:0401e000de0300003a
:020000040000fa
:0401e400de03000036
:020000040000fa
:0401e800de03000032
:020000040000fa
:0401ec00de0300002e
:020000040000fa
:0401f000de0300002a
:020000040000fa
:0401f400de03000026
:020000040000fa
:0401f800de03000022
:020000040000fa
:0401fc00de0300001e
:020000040000fa
:04020000de03000019
:020000040000fa
:04020400de03000015
:020000040000fa
:04020800de03000011
:020000040000fa
:04020c00de0300000d
:020000040000fa
:04021000de03000009
:020000040000fa
:04021400de03000005
:020000040000fa
:04021800de03000001
:020000040000fa
:04021c00de030000fd
:020000040000fa
:04022000de030000f9
:020000040000fa
:04022400de030000f5
:020000040000fa
:04022800de030000f1
:020000040000fa
:04022c00de030000ed
:020000040000fa
:04023000de030000e9
:020000040000fa
:04023400de030000e5
:020000040000fa
:04023800de030000e1
:020000040000fa
:04023c00de030000dd
:020000040000fa
:04024000de030000d9
:020000040000fa
:04024400de030000d5
:020000040000fa
:04024800de030000d1
:020000040000fa
:04024c00de030000cd
:020000040000fa
:04025000de030000c9
:020000040000fa
:04025400de030000c5
:020000040000fa
:04025800de030000c1
:020000040000fa
:04025c00de030000bd
:020000040000fa
:04026000de030000b9
:020000040000fa
:04026400de030000b5
:020000040000fa
:04026800de030000b1
:020000040000fa
:04026c00de030000ad
:020000040000fa
:04027000de030000a9
:020000040000fa
:04027400de030000a5
:020000040000fa
:04027800de030000a1
:020000040000fa
:04027c00de0300009d
:020000040000fa
:04028000de03000099
:020000040000fa
:100400006f1d21000eff2c000e018800000000006f
:10041000000020000000e000020032000001200087
:100420002002880014000700e60007000000e0003a
:1004300003003a00809321000100200002003700f1
:100440000000200001002000810f70000100320038
:100450000f000700000020000000e0000200320052
:1004600000000200000000004a0702000000000037
:100470000040da000000fe00200020000000e00044
:1004800002003200100020009001880000000600e9
:10049000a1028800800478000000eb001f003700f4
:1004a000e284440054a0b4009905ba00e2844400f8
:1004b00054a0b4009906ba00e284440054a0b400e9
:1004c0000006eb00476fde00fd07b200ae018800ba
:1004d000636ce10003003a000ad801000000eb0061
:1004e0000e003700606ce10008003a00004deb00a0
:1004f0000a05e800020039003420ec000af0a000f0
:100500008b05e900f9ff3e00040037006168e10057
:10051000010032000086eb000b00070019c7ba008b
:100520000e04e0001905ba0003003a000a00e000da
:10053000dbff3a0000000600fe07b200ae028800b2
:100540008a047800f5ff37000cd0a300e20f4d00bd
:100550001c00390089027800354dba000a05e80010
:10056000020039003420ec000af0a0008b05e900fd
:100570000f003200254dba000a05e80002003900dc
:100580003420ec000af0a0008b05e90008003200de
:100590000c00e0000600320015cdba000a05e800a4
:1005a000020039003420ec000af0a0008b05e900bd
:1005b0008984e80054a0b4000b00e000e2ff3a0098
:1005c000000006009902ba00055d78008b05e9007d
:1005d000f7ff3200c82ade00055d78008b05e900d0
:1005e000f3ff32000c00e000f1ff320019ddba0029
:1005f000eeff37000000fa000108a9000080fa00b1
:10060000004006003600f800809fbe00829fbe00ba
:10061000849fbe00869fbe000000fa000068a9000b
:10062000890807005e0a07000080fa004f03be0039
:100630004f02be004f01be004f00be003600f90061
:10064000004006003600f800809fbe00829fbe007a
:10065000849fbe00869fbe000000fa000368a900c8
:10066000008080001180800061004000e080480030
:100670000080880011808800230307000080fa00b2
:100680004f03be004f02be004f01be004f00be0030
:100690003600f90000400600801f78000000fa00d4
:1006a00001a8a90000188000608e88001018800042
:1006b000708e880020188000808e8800301880009e
:1006c000908e880040188000a08e880010c0b30073
:1006d00025f0b7000080fa004f00780000400600c7
:1006e0003600f800809fbe00829fbe00849fbe003f
:1006f000869fbe000000fa000188a900c18080002a
:10070000b0808000808f500002003200c5090700d1
:10071000010037001a70ef000080fa004f03be009e
:100720004f02be004f01be004f00be003600f90070
:10073000004006003600f800809fbe00829fbe0089
:10074000849fbe00869fbe000000fa000168a900d9
:1007500010118000640060000000e0000100320021
:100760002242a90010118000620060000000e00039
:10077000060032002222a900050037003011800057
:1007800000407800160a0700010037000000000052
:1007900010118000610060000000e000f7ff3a00e7
:1007a0000080fa004f03be004f02be004f01be00a2
:1007b0004f00be003600f900004006000040da009d
:1007c0000000fe000000050003f0a200889fbe00ac
:1007d0008a9fbe008c1f7800180107001f0133009c
:1007e0006450e1004f0032006420e100520032000a
:1007f00003826c0007003b000905d0000306d0000f
:10080000820f54000c065d00020039000200320025
:1008100089017800030678008582550004003d00b8
:100820000003fd008103fd008502ea008b85420084
:10083000840f720002003b0060001000e08018008e
:100840006011b8000005eb007a28e1000a003900c9
:1008500006007800c75ddd00f707b20087807500ed
:100860002d003700828171000a0178006105600067
:100870008180d1000080d3008502e900f9ff3b00b0
:10088000060440008784480002003b006004140016
:10089000e0841c000988a300070032008a817100ef
:1008a00082817100610164008904d1000884d30051
:1008b0008b05e800170037000978a30013003a0001
:1008c0000b00e000130034008b05e900080444002d
:1008d00089844c000a4474000978a3000d003a0092
:1008e0000b00e000070034008b05e9000804440019
:1008f00089844c0001003a000b0020000978a30015
:10090000f7ff32000001eb00020037008281710026
:100910000a0178008e0007000cf0a70001f0a0008b
:10092000d70037006420e10002003a00838f6c009a
:10093000d70033000801be000200be00d00037001f
:10094000889fbe008a9fbe008c1f7800bb000700f6
:10095000c200330003866c006450e1002e003200b8
:100960006420e100330032006150e1002f003200ca
:100970006120e1003100320085855500eb07b000b1
:100980000900200008042000050037000804440086
:1009900089844c000a0031000603430087834b0022
:1009a0000001530081815b00f8ff33000203be00a9
:1009b0000800a0000804440089844c00f6ff3900b8
:1009c000c639dd00830173000100320013002000ee
:1009d0008904d1000884d3000998a30005003200df
:1009e0000800a7000300a0008904d1000884d300f8
:1009f0008b05e8008904d1000884d3000001eb00d6
:100a00000281d2005200070001f0a1000cf0a70003
:100a100001f0a0009a0037006420e1009c00320041
:100a20000801be000200be00f7ff37006120e100b0
:100a3000970032006000b800f3ff3700000020008c
:100a400001f82700f0ff370014002000c70037002e
:100a5000f4ff2f00c50037000001be006200070050
:100a60000470a70003f0a1006509b1001600320070
:100a70000d0035006828e10006003500f0ff2f006a
:100a8000f1ff27000300e00013003b0001002800f5
:100a90000000050000004000818048008502e90058
:100aa000fcff3a0008003700f88f420002003c00cb
:100ab0008000eb00000005008100d1000080d30021
:100ac0008502e800fcff3a000300e00002003b0062
:100ad00060001000e0801800000006000001be0069
:100ae000410007000470a70003f0a10003f8a30071
:100af00013003a006509b10010003200090035000a
:100b00006928e1000200350001002800000005000e
:100b100000004000818048008502e900fcff3a00a7
:100b200000000600f88f4200050035008100d1006a
:100b30000080d3008502e800fcff3a0000000600b8
:100b40008000eb00000005006011b800a200370033
:100b500081002000618055000b003d000b0020004b
:100b600061fe2f000100e1001d0034008281710050
:100b7000610164008904d1000884d3000000e8000a
:100b8000faff3a0071002000610064000300700069
:100b9000020060000900320061044400e0844c005f
:100ba0000988a500050032008b05e8006808e1000f
:100bb00002003a008904d1000884d300f20f20001b
:100bc0000258e10005003d00c75ddd00f907b200f5
:100bd0008980750008007800000006000bf82700e7
:100be0008b00780000000500c70ade00f107b200a4
:100bf000f50fb20008003200e1cf420002003200df
:100c00000170a00024000500810f70000100320077
:100c10000408050044000500810f700002003a003e
:100c2000140005008502e9000000400081c0480072
:100c3000fcff3b000170a000240005000004be0082
:100c4000e9ff07000003be000405be000200be006d
:100c5000e5ff0700844f7500000006000200be009b
:100c60006450e100050036006420e1000200360017
:100c70000968a30001003a000800be000160a0005e
:100c80004f0678004f05be004f04be00000006006e
:100c9000f0ff2f00f1ff2700f9ff3700889fbe000b
:100ca0008a9fbe008c1f7800e4ff0700ebff330033
:100cb00003866c006450e100240032006420e100ef
:100cc000270032006150e100220032006120e10083
:100cd000210032008b854200eb07b1000134b800df
:100ce000003ab8000804420089844a00013ab8007a
:100cf0000030b8008880400009014a000400330039
:100d00000000400081804800020149008b05e90095
:100d1000c909dd00830170000100320013002000ca
:100d2000c814de004814dd004709de001200b200de
:100d3000c808de000884700085ff070001f0a100ec
:100d40000cf0a70001f0a000cdff37006120e1000a
:100d5000cfff32000801be000200be00f7ff3700df
:100d60006150e100fcff3a00c9ff3700889fbe00d8
:100d70008a9fbe00841f7800b0ff07004f007800f4
:100d800011003300f0ff2f00838f6c0006003b0042
:100d9000040565000a00a7000800370009f0a60056
:100da0001000200008003700820f5400838f5c0081
:100db000030039001000200001003e000000200068
:100dc00009f0a7000000ea004f05be004f04be0076
:100dd0000000e00000000600889fbe008a9fbe0061
:100de000008270000402710004827100260032004b
:100df0000004be000200be006011b8006b092000b4
:100e0000950220000182cf000a0039000541b1009f
:100e10000082cf00070039000541b1000982cf00f0
:100e2000040039000541b1000882cf0001003900fb
:100e30000541b10005425200120032000a003b0099
:100e400082817100610164008100d1000080d300c3
:100e50008984d3000884d3008b05e8000442e800ad
:100e6000f7ff3a00070037000804440089844c006b
:100e700000004800818048008b05e9000442e90039
:100e8000f9ff3a0032ff07004f05be004f04be00d5
:040e90000000060058
:020000040000fa
:100e94001400fa00889fbe008a9fbe00c80807009d
:100ea40019090700340507004c0507004906070027
:100eb40000080700c80507008d0807003f08070061
:100ec400e14f500003013a004008070037080700cb
:100ed400100798001e0090000080e80010007800c1
:100ee4008000eb0017ff0700323323003305240092
:100ef40069ff070002002000035824008ffe07004a
:100f0400d2cc2c00c304240063ff07002007980000
:100f1400310798002e019000be01900000002000cf
:100f24008120240085fe070002002000030a24001b
:100f340024fe0700408d8800518d88001e0090001b
:100f440064004000100078008000eb00fdfe070004
:100f540032332300330524004fff07000200200032
:100f64000358240075fe0700d2cc2c00c3042400cf
:100f740049ff070020079800310798002e019000d0
:100f8400be01900000002000812024006bfe0700b9
:100f940002002000030a24000afe0700608d880076
:100fa400718d88001e0090006800400010007800d9
:100fb4008000eb00e3fe07003233230033052400f6
:100fc40035ff070002002000035824005bfe0700e1
:100fd400d2cc2c00c30424002fff07002007980064
:100fe400310798002e019000be01900000002000ff
:100ff4008120240051fe070002002000030a24007f
:10100400f0fd0700808d8800918d88001e009000ff
:1010140066004000100078008000eb00c9fe070065
:1010240032332300330524001bff07000200200095
:101034000358240041fe0700d2cc2c00c304240032
:1010440015ff070020079800310798002e01900033
:10105400be019000000020008120240037fe07001c
:1010640002002000030a2400d6fd0700a08d88009a
:10107400b18d88001e009000100078008000eb0005
:10108400b0fe0700323323003305240002ff0700bb
:10109400020020000358240028fe0700d2cc2c00b4
:1010a400c3042400fcfe07002007980031079800c1
:1010b4002e019000be019000000020008120240039
:1010c4001efe070002002000030a2400bdfd0700e5
:1010d400c08d8800d18d8800a08d8000b18d8000e6
:1010e4007dfe070080457800808d8000918d800012
:1010f40079fe070000457800608d8000718d8000c6
:1011040075fe070080447800408d8000518d80007a
:1011140071fe070000447800c08d8000d18d8000ee
:101124006dfe0700004078001b4f98002a4f98007e
:10113400394f9800484f9800504f98006900470075
:101144000001780051002000000320007f03070005
:10115400408d8000518d800018c0b3000200200033
:10116400031f240037fe07000000e00001003500e3
:101174000044eb000804e0000b003a00808d80007e
:10118400918d800018c0b30002002000031f2400ca
:101194002cfe07000000e000010035000044eb00d5
:1011a4000804e00002003200254ea80001003700c8
:1011b400254ea900207180004a00de0061406000d5
:1011c4008040eb00614f9800704f98006e0047001c
:1011d4000001780021002000000220005b030700ca
:1011e400608d8000718d800018c0b3000200200063
:1011f4000317240013fe07000000e000010035007f
:101204000044eb000804e0000200320064eea80091
:101214000100370064eea900207380004700de005f
:101224006140600011c0b300015798001057980046
:101234007000470000017800210020000002200017
:1012440042030700a08d8000b18d800018c0b30058
:101254000200200003172400fafd07000000e0004c
:10126400010035000044eb000804e0000b003a00e4
:10127400c08d8000d18d800018c0b3000200200012
:1012840003172400effd07000000e0000100350013
:101294000044eb000804e0000200320064cea80021
:1012a4000100370064cea900207380004600de00f0
:1012b4006140600021c0b300215798003057980066
:1012c4007200470000017800210020000002200085
:1012d4001e0307000000eb00000f78000500370034
:1012e40051070700004f98000e4890007303070051
:1012f4001e0fe8006d0707009e0f5000f8ff3c002a
:10130400eefe37000400fa00881f780010d0bf00fa
:101314000080fb00cf80de001202200003002000ca
:10132400820f5000838f5800e5003e000006010044
:10133400210037002a00370033003700400037000f
:10134400410037004b0037004c0037005500370090
:101354005600370060003700610037006a0037002c
:101364006b003700750037007600370080003700c7
:10137400d3003700d2003700d1003700d000370047
:10138400cf003700ce0037008700370090003700c9
:1013940079003700820037008f0037009c00370047
:1013a4009d003700aa003700ab003700b5003700b6
:1013b400b6003700c00037000030ef000230ef0005
:1013c4000041eb006000b800bf05070012c0b30085
:1013d4006000b800bc05070010c0b30010f0b700ef
:1013e4000280800013808000803e200001002000e5
:1013f400800f5100818f5900b400360020c0b30023
:1014040010f0b700b20037000041eb0000002000ec
:1014140001222c00ac05070012c0b300000020001c
:1014240001222400a805070030c0b30010f0b70063
:10143400908080000000e80090808800a4003700bd
:10144400cb000700a20037000041eb0000002000a1
:1014540001172c009c05070012c0b30000002000f7
:10146400010a24009805070050c0b30010f0b7002b
:1014740097003700be000700950037000041eb00dd
:101484000000200001172c008f05070012c0b300d4
:101494006000b8008c05070050c0b30010f0b7001e
:1014a4008b003700b2000700890037000041eb00d1
:1014b40000002000010a2c008305070012c0b300bd
:1014c40000002000011724007f05070090c0b3002e
:1014d40010f0b7007e003700a50007007c0037003d
:1014e4000041eb006000b8007705070012c0b300ac
:1014f40000002000011724007305070090c0b3000a
:1015040010f0b70072003700990007007000370030
:101514000041eb000000200001172c006a050700c1
:1015240012c0b3000000200001172c00660507005c
:10153400d0c0b30010f0b700650037008c0007007e
:10154400630037000041eb00000020000117240075
:101554005d05070012c0b30000002000011724003d
:1015640059050700f0c0b30010f0b7005800370069
:101574007f000700560037000041eb006000b80010
:101584005105070012c0b300000020000117240019
:101594004d050700f0c0b30010f0b7004c00370051
:1015a400730007004a0037000041eb0000002000f0
:1015b40001172c004405070012c0b3006000b800f6
:1015c40041050700f0c0b30010f0b7004000370039
:1015d400670007003e0037000041eb0000002000d8
:1015e40001122c003805070012c0b30000002000cf
:1015f4000112240034050700b0c1b30010f0b70095
:10160400908080000000e80090808800300037005f
:10161400570007002e0037000041eb0000002000b7
:1016240001172c002805070012c0b3000000200099
:101634000117240024050700d0c1b30010f0b7003f
:10164400908080000000e80090808800200037002f
:10165400470007001e0037000041eb000000200097
:1016640001082c001805070012c0b3000000200078
:101674000104240014050700f0c1b30010f0b70002
:10168400130037003a000700110037000041eb0057
:101694000000200001042c000b05070012c0b30059
:1016a40000002000010824000705070010c2b30051
:1016b40010f0b700060037002d00070004003700c3
:1016c40020c0b30010f0b700010037000000000094
:1016d4000000eb00000f7800e08d8000f18d8000a9
:1016e400dcfc07000000780000f0a7000000ea001e
:1016f40000447800208e8000318e8000d5fc0700e5
:101704000000780000f0a7000000ea000040780024
:1017140028479800304798009e0078004006200033
:1017240000017800110009008200d8008000fd004b
:1017340000f0a7000000ea000000e9004f00de000e
:10174400004078001e0fe8000004e00005003200ad
:101754000e80e80000017800210020000004200031
:10176400fa0107004f0478000080fa000000060028
:101774000600fa00881f78000040eb00004f780054
:10178400408d8000518d800018c0b30002002000fd
:1017940003122400abfc07000000e0000100350048
:1017a4000044eb000804e0000e003200808d80004d
:1017b400918d800018c0b3000200200003122400a1
:1017c400a0fc07000000e000010035000044eb002d
:1017d4000804e0000300320070c0b300004f78003a
:1017e4001f013700608d8000718d800018c0b30028
:1017f400020020000317240092fc07000000e00010
:10180400010035000044eb000804e000030032004e
:1018140080c0b300004f780011013700408d800074
:10182400518d800018c0b30002002000031724006b
:1018340084fc07000000e000010035000044eb00d8
:101844000804e0000300320050c0b300004f7800e9
:1018540003013700408d8000518d800018c0b30013
:1018640002002000831c240076fc07000000e00036
:10187400010035000044eb000804e00003003200de
:1018840040c0b300004f7800f5003700808d800021
:10189400918d800018c0b3000200200003172400bb
:1018a40068fc07000000e000010035000044eb0084
:1018b4000804e0000300320020c0b300004f7800a9
:1018c400e7003700808d8000918d800018c0b30040
:1018d40002002000831c24005afc07000000e000e2
:1018e400010035000044eb000804e000030032006e
:1018f40010c0b300004f7800d9003700608d80001d
:10190400718d800018c0b30002002000831c2400e5
:101914004cfc07000000e000010035000044eb002f
:101924000804e00003003200a0c0b300004f7800b8
:10193400cb003700608d8000718d800018c0b3002b
:1019440002002000832424003efc07000000e00085
:10195400010035000044eb000804e00003003200fd
:1019640090c0b300004f7800bd003700408d800068
:10197400518d800018c0b30002002000031f240012
:1019840030fc07000000e000010035000044eb00db
:101994000804e00003003200d0c0b300004f780018
:1019a400af003700808d8000918d800018c0b30097
:1019b40002002000031f240022fc07000000e000b6
:1019c400010035000044eb000804e000030032008d
:1019d400e0c0b300004f7800a1003700a08d800064
:1019e400b18d800018c0b30002002000031724004a
:1019f40014fc07000000e000010035000044eb0087
:101a04000804e0000300320030c0b300004f780047
:101a140093003700c08d8000d18d800018c0b300c2
:101a2400020020000317240006fc07000000e00069
:101a3400010035000044eb000804e000030032001c
:101a440060c0b300004f780085003700c08d80006f
:101a5400d18d800018c0b3000200200003172400b9
:101a6400f8fb07000000e000010035000044eb0033
:101a74000804e0001b003200a08d8000b18d8000be
:101a840018c0b3000200200003172400edfb070078
:101a94000000e000010035000044eb000804e00011
:101aa40010003200c48d8000d58d8000a08d800090
:101ab400b18d800018c0b3000001be000400be0058
:101ac400e0fb07000000e000010035000044eb00eb
:101ad4000804e00003003200b0c0b300004f7800f7
:101ae4005f003700c08d8000d18d800018c0b30026
:101af4000200200003172400d2fb07000000e000ce
:101b0400010035000044eb000804e0001b00320033
:101b1400a08d8000b18d800018c0b30002002000a9
:101b240003172400c7fb07000000e0000100350094
:101b34000044eb000804e00010003200c48d800073
:101b4400d58d8000a08d8000b18d800018c0b300b9
:101b54000001be000400be00bcfb07000000e00062
:101b640001003c000044eb000804e00003003200e4
:101b7400c0c0b300004f780039003700c08d80002a
:101b8400d18d800018c0b300020020000317240088
:101b9400aefb07000000e00001003c000044eb0045
:101ba4000804e0002e003200408d8000518d80003a
:101bb40018c0b30002002000031f2400a3fb070089
:101bc4000000e00001003c000044eb000804e000d9
:101bd40023003200608d8000718d800018c0b30036
:101be400020020008324240098fb07000000e0008a
:101bf40001003c000044eb000804e000180032003f
:101c0400808d8000918d800018c0b30002002000f8
:101c1400031f24008dfb07000000e00001003c00ce
:101c24000044eb000804e0000d003200a08d8000a9
:101c3400b18d800018c0b3000200200003172400f7
:101c440082fb07000000e00001003c000044eb00c0
:101c54000804e000020032000040eb00004f78006e
:101c64001e407800e74f50000a003a009080800040
:101c7400610060000000e00003003a00c0c0b3004f
:101c840014f0b70057003700e0c0b30014f0b700f9
:101c9400540037001e407800e84f50000a003a0014
:101ca40090808000610060000000e00003003a00c2
:101cb400c0c0b30014f0b7004a003700e0c0b3005e
:101cc40014f0b700470037001e407800e94f500079
:101cd400060032001e407800ed4f50000300320031
:101ce4001e407800ee4f500003003a00c0c1b3001c
:101cf40014f0b7003b0037001e407800ea4f500054
:101d040003003a00a0c1b30014f0b7003500370057
:101d14001e407800e54f500003003a0060c0b30055
:101d240014f0b7002f0037001e407800e44f500035
:101d340003003a0040c0b30014f0b7002900370094
:101d44001e407800e24f500003003a00a0c0b300e8
:101d540014f0b700230037001e407800e14f500014
:101d640003003a0080c0b30014f0b7001d00370030
:101d74001e407800eb4f500003003a00e0c1b3006e
:101d840014f0b700170037001e407800eb4f5000e6
:101d940003003a0000c2b30014f0b700110037008a
:101da4001e407800e64f500003003a0060c1b300c3
:101db40014f0b7000b0037001e407800e34f5000ca
:101dc40003003a0080c1b30014f0b70005003700e7
:101dd4001e4078000004e00002003a0020c0b30076
:101de40014f0b700050121009542780000808000be
:101df400118080004808de000042780000808000e6
:101e0400118080004008de0080417800008080005e
:101e1400118080004809dd004800de0000007100e8
:101e2400c808de0000417800008080001180800036
:101e340000407800154798002447980033479800dd
:101e4400424798005047980014d0bf008080fb00a0
:101e540010d0bf000080fb000000e900808f50001c
:101e64000700320014d0bf0010f0b7000e00e800e5
:101e74000001780051002000000520003300070015
:101e84004f0478000080fa00000006000a00fa00ff
:101e9400200798003107980042079800e0cfb3006c
:101ea400004f78002e0090004880de0080407800cb
:101eb4001e40780000c06800004f78002e0090009b
:101ec400804078001e40780000c06800004f780011
:101ed4003e0090004880de00804078001e4078007c
:101ee40000c06800004f78003e00900080407800f9
:101ef4001e40780000c06800004f78000000eb002e
:101f0400100798000000eb00100798000800370045
:101f14001e009000ce009000008040001040780029
:101f24001e4f68001e0090000000e8001007980093
:101f34009e0090003e009000808f5000f4ff35001a
:101f44001e4078000080fa00000006000e00fa002f
:101f5400889fbe00400798005107980062079800c8
:101f64000f0478000f007800800478005e00900071
:101f7400660040008000e900210798000000e800a6
:101f84000000e8000000d100800040000f0078004d
:101f9400818747000000e8000000d10000004000f5
:101fa400300798000000eb00000f78003e0090001e
:101fb4001e004000e1cfb300014878001e0fe80086
:101fc4004e0090004880de00804078003e00900083
:101fd4001e004000014878001e0fe8004e009000eb
:101fe400804078003e0090001e00400001487800c8
:101ff4001e0fe8005e0090004880de0080407800fc
:102004003e0090001e004000014878001e0fe800ca
:102014005e009000804078003e0090001e0040006a
:10202400014878001e0fe8000000eb00100798003c
:102034000000eb00100798000b0037001e00900012
:10204400ee00900000804000904078003e00900038
:102054001e004000014878001e0fe8001e0090009a
:102064000000e800100798009e0090005e009000b9
:10207400808f5000f1ff35006e019000de0090006b
:102084004e00900081ff0700be0090009e8040003b
:10209400804878001e0fe8005e009000e6004000d3
:1020a4003e00900022030700890778008807780023
:1020b4004f04be000080fa00000006000400fa008d
:1020c4002047980070808000e30f50002400320005
:1020d400e30f500005003e00e10f500011003200f4
:1020e400e10f500016003e0007003700e50f5000d6
:1020f40037003200e50f500020003900e60f500091
:1021040041003200530037002e409000e24f40005f
:1021140053003a0010002000708088000c30ef005b
:10212400520037002e4090000080fb004800dd0084
:102134006080880020002000708088004b003700f9
:102144002e4090008080fb00608080000080400072
:1021540060808800300020007080880043003700d1
:102164002e4090000080fb004800dd004080880085
:1021740040002000708088003c0037002e40900012
:102184008080fb0040808000008040004080880008
:10219400408080000000e00003003a00600020005e
:1021a400708088003100370041808000f03f2000bb
:1021b400808f5000020034000e30ef002b003700f7
:1021c40050002000708088000a30ef00270037009c
:1021d4005080800061122100808040002e419000d8
:1021e400824878000000e800508088005180800018
:1021f40040808000808f50001b003500600020006c
:102204007080880019003700418080006080800061
:10221400621221001dff0700004f7800ae409000bd
:10222400114798001e4090009e40780080cf5000d7
:1022340006003a0040808000804078006080800082
:1022440000407800621221000a0007000e30ef00ff
:10225400060037000e30ef000000000003003700d6
:102264000000000001003700000000000080fa00b8
:10227400000006000800fa00404798005147980003
:10228400320798000000eb00000f78004e409000e9
:102294008080fb0000022000808f500033003a0051
:1022a4003e009000104078000080fb00100798006a
:1022b4003e0090000000e800104078000080fb0021
:1022c400000f78001e0090000000e0000b003a00b0
:1022d4001e00780000407800614060000080fb0030
:1022e400610060004a00dd002171800001a0a100ae
:1022f40001007000207188001d0037001e0090004e
:10230400e10f50000b003a001e00780000407800f6
:10231400614060000080fb00610060004700dd0058
:10232400217380000170a1000100700020738800f7
:102334000f0037001e009000e10f50000c003a001f
:102344001e00780000407800614060000080fb00bf
:10235400610060004600dd00217380000160a1007f
:1023640001007000207388000100370000000000a5
:102374000080fa00000006000000fa0013e1a90042
:1023840011e1a9001061a8001021a90081088000b2
:10239400f0fc2f0000806000800888000a21ef0014
:1023a4000621ef002026200070088800200320006a
:1023b400600888002142800080ff2f0000806000b8
:1023c4000000a000204288000108a9002108a800fc
:1023d40011e1a8000080fa00000006000000fa00e5
:1023e40005e1a9000421a9000068a9002068a8004b
:1023f40005e1a80000002000a13724000200070026
:102404000080fa00000006000400fa00881f78002b
:10241400008fbe0021088000f0fc2f0000806000c7
:10242400200888001e0178009e01900000682900a1
:1024340081c1240041f9070018c0b30002f02f0045
:10244400f377240081f907000000e00001003c005c
:102454000044eb000804e00054003200210880002e
:10246400f0fc2f00008060000040a00020088800dd
:102474001e0178009e0190000068290081c124009b
:102484002ef9070002002000031024002bf9070096
:1024940018c0b30002f02f00f37724006bf9070093
:1024a4000000e00001003c000044eb000804e000f0
:1024b4003200320021088000f0fc2f000080600010
:1024c4000050a000200888001e0178009e019000a2
:1024d4000068290081c1240018f9070002002000c7
:1024e4000328240015f9070018c0b30002f02f00d8
:1024f400f377240055f907000000e00001003c00d8
:102504000044eb000804e0001000320021088000c1
:102514000003200001007000200888001e017800dc
:102524009e0190000068290081c1240003f907007e
:10253400020020000338240000f9070045f90700d1
:102544000000780010088800200037001e01780081
:102554009e0190000068290081c12400f7f807005b
:102564000200200003282400f4f8070039f90700ca
:102574000000780010088800140037001e0178005d
:102584009e0190000068290081c12400ebf8070037
:102594000200200003102400e8f807002df90700ca
:1025a4000000780010088800080037001e01780039
:1025b4009e0190000068290081c12400dff8070013
:1025c40024f9070000007800100888004f04780000
:1025d4000080fa00000006000000fa001fe1a900d4
:1025e4001e21a9000368a9002368a8001fe1a80010
:1025f40000002000a1472400020007000080fa0028
:10260400000006000400fa00881f7800008fbe0056
:10261400f1088000f0fc2f0000806000f0088800c2
:102624001e0178009e0190000068290081c12400e9
:10263400c2f8070018c0b30002f02f00f37724009b
:1026440002f907000000e00001003c000044eb0038
:102654000804e00054003200f1088000f0fc2f0070
:10266400008060000040a000f00888001e0178008f
:102674009e0190000068290081c12400aff8070082
:102684000200200003102400acf8070018c0b300b7
:1026940002f02f00f3772400ecf807000000e000bc
:1026a40001003c000044eb000804e000320032006a
:1026b400f1088000f0fc2f00008060000050a000b2
:1026c400f00888001e0178009e019000006829002f
:1026d40081c1240099f80700020020000328240087
:1026e40096f8070018c0b30002f02f00f377240017
:1026f400d6f807000000e00001003c000044eb00b5
:102704000804e00010003200f108800000032000fb
:1027140001007000f00888001e0178009e019000fe
:102724000068290081c1240084f807000200200009
:102734000338240081f80700c6f807000000780079
:1027440010088800200037001e0178009e019000c8
:102754000068290081c1240078f8070002002000e5
:102764000328240075f80700baf807000000780071
:1027740010088800140037001e0178009e019000a4
:102784000068290081c124006cf8070002002000c1
:102794000310240069f80700aef807000000780071
:1027a40010088800080037001e0178009e01900080
:1027b4000068290081c1240060f80700a5f807001b
:1027c40000007800100888004f0478000080fa00a8
:1027d400000006000000fa001160800080ff2f0056
:1027e400008060001060880000fa200020608800eb
:1027f40023aca800238ca80011618000f03f2f00b7
:102804000080600000a0a00010618800300020005b
:1028140020618800c3aca800c38ca80011668000a6
:10282400f03f2f000080600000a0a0001066880028
:10283400300020002066880001eca8000080fa0027
:10284400000006000000fa00889fbe00448e80004d
:10285400558e8000208e8000318e800018c0b30019
:102864000001be000400be0076f807000000e0008e
:10287400010035000044eb000804e0000d003200c4
:10288400288e8000398e8000448e8000558e800012
:10289400e0808000f18080000001be000400be00e2
:1028a400c9f707000801be00c8000700408e880071
:1028b400518e8800448e8000558e8000208e8000ca
:1028c400318e800018c0b3000001be000400be00b9
:1028d4005ef807000000e00001003c000044eb004b
:1028e4000804e0000d003200288e8000398e80003c
:1028f400448e8000558e8000e0808000f18080004e
:102904000001be000400be00aef707000801be00cf
:1029140096000700408e8800518e8800408e80000b
:10292400518e800018c0b3006011b80047f807004a
:102934000000e00001003c000044eb000804e0005b
:1029440004003200c3cca90024eea800c3eca80004
:1029540003003700c3eca90024cea800c3cca80010
:10296400408e8000518e80006a0007000200200023
:1029740003222400c8f8070057f807000000780075
:1029840030668800048e8000158e8000e08d800003
:10299400f18d800018c0b3000001be000400be0029
:1029a40028f807000000e000010035000044eb00b7
:1029b4000804e0000d003200e88d8000f98d8000ed
:1029c400048e8000158e8000e0808000f1808000fd
:1029d4000001be000400be007bf707000801be0032
:1029e4007a000700008e8800118e8800048e800013
:1029f400158e8000e08d8000f18d800018c0b3003a
:102a04000001be000400be0010f807000000e00052
:102a140001003c000044eb000804e0000d0032001b
:102a2400e88d8000f98d8000048e8000158e800072
:102a3400e0808000f18080000001be000400be0040
:102a440060f707000801be0048000700008e8800f8
:102a5400118e8800008e8000118e800018c0b30093
:102a64006011b800f9f707000000e00001003c0025
:102a74000044eb000804e0000400320023cca90069
:102a840015eea80023eca8000300370023eca900ee
:102a940015cea80023cca800008e8000118e8000e3
:102aa4001c00070002002000032224007af807001b
:102ab40009f8070000007800306188004f04be0068
:102ac4000080fa00000006000600fa00008fbe0035
:102ad400424798004e409000e14f500004003a00f5
:102ae4001e0178009e019000e28d8800f38d88001d
:102af4004e4090000004e00004003a001e017800fb
:102b04009e019000228e8800338e88000080fa0097
:102b1400000006000400fa00881f7800008fbe0041
:102b240018c0b3006011b8001e0078009e00900029
:102b3400c6f707000000e00001003d000044eb0080
:102b44000804e000030032001e0078009e0090009c
:102b5400030037001e0078009e00900001f0a200e0
:102b64004f0478000080fa00000006000800fa0014
:102b7400881f7800008fbe00220798003307980052
:102b840018c0b3002e019000be0190001e00780012
:102b94009e009000adf707000000e00001003c003b
:102ba4000044eb000804e000030032001e0078003b
:102bb4009e009000020037002e009000be0090009e
:102bc4004f0478000080fa00000006000800fa00b4
:102bd400881f7800008fbe002207980033079800f2
:102be40018c0b3002e019000be0190001e007800b2
:102bf4009e00900093f707000000e00001003500fc
:102c04000044eb000804e000030032001e007800da
:102c14009e009000020037002e009000be0090003d
:102c24004f0478000080fa00000006000c00fa004f
:102c3400881f7800008fbe00220798003307980091
:102c4400440798005507980018c0b3004e0190003f
:102c5400de0190001e0078009e0090007bf70700c4
:102c64000000e00001003c000044eb000804e00028
:102c7400040032004e019000de019000028fbe007d
:102c84000e00370018c0b3002e019000be01900062
:102c94001e0078009e0090006af707000000e00024
:102ca400010035000044eb000804e000030032009a
:102cb4002e019000be019000028fbe001e0078001d
:102cc4009e0090004f0478000080fa000000060087
:102cd4000400fa00008fbe00b2fd2000930424001b
:102ce4001e0078009e00900014f7070002002000e8
:102cf40043332400e8f707000080fa0000000600d0
:102d04000400fa00008fbe00b2fd200093042400ea
:102d14001e0078009e009000dff7070002002000ec
:102d24004333240005f707000080fa000000060082
:102d34000600fa0010079800210798000040eb00f5
:102d4400004f780054000700ae009000810f50003f
:102d5400110034000040eb00004f780006003700fb
:102d64001e80fb009e009000008040001040780010
:102d74000b0007001e4fe8009e80fb002e00900011
:102d8400808f5000f6ff35002e0007000004e0009d
:102d940001003a00220007000080fa00000006004b
:102da4000200fa00004f7800b08080006102210028
:102db400008040001e487800b08080000000e800d9
:102dc400b0808800b1808000f0072000808f500020
:102dd400010034001630ef000080fa000000060005
:102de4000200fa00c08080006102210000804000df
:102df400104f7800c08080000000e800c080880088
:102e0400c1808000f0072000808f50000100340052
:102e14001830ef001e4078000080fa000000060021
:102e24000200fa0010c0b3001af0b700ecff07006c
:102e3400004f78001e80fb00201188000080fa00fb
:102e4400000006000000fa001ad0bf000080fa005b
:102e5400000006000200fa00b1808000c0808000fb
:102e6400808f500004003500b1808000c080800055
:102e7400008f500005003700b1808000c0808000c2
:102e84000080500001082000010f40001e0078005f
:102e94000080fa00000006000200fa00edff0700bf
:102ea40001082000008f50001e0078000080fa0006
:102eb400000006000000fa0021e3a9002143a80055
:102ec40001198000f0cf2f000080600000198800f5
:102ed4002043a90001198000000e200001007000a9
:102ee4000019880011198000f0ff210000806000a3
:102ef400101988002343a80011198000f0cf2f0077
:102f040000806000101988001119800030f82f002b
:102f1400008060000040a000101988002203a9006e
:102f24002223a90025e3a900f0c0b30024e3b700dd
:102f340021198000f00f2e008080600000f0200036
:102f440001007000201988003303a9001e2ea80078
:102f54002e0ea8002f6ea8004feea8006f2ea8001a
:102f64003063a80030c3a8003163a80031e3a8008f
:102f74002e03a8004119800000fc2f00008060008f
:102f84004019880028e3a90001a8a90021a8a800e5
:102f940021e3a8000080fa00000006000000fa0007
:102fa4002023a8000080fa00000006000000fa00b8
:102fb400c01c21000080fa00000006000000fa0096
:102fc40025d0bf000080fa00000006000000fa00cf
:102fd4002570ef000080fa00000006000200fa00ed
:102fe400004f78002a0007000000e0000c003400c5
:102ff40000818000610a2100008040001e487800a2
:10300400008180000000e8000081880001818000c8
:10301400f0072000808f5000010034002030ef00c2
:103024000080fa00000006000200fa00108180000f
:10303400610a210000804000104f78001081800058
:103044000000e8001081880011818000f007200052
:10305400808f5000010034002230ef001e407800c1
:103064000080fa00000006000000fa0001818000e0
:1030740010818000808f50000200320010c0b30025
:10308400010037000040eb000080fa000000060059
:103094000200fa000500070001082000008f50001c
:1030a4001e0078000080fa00000006000200fa000a
:1030b4000181800010818000808f50000400350061
:1030c4000181800010818000008f500005003700ce
:1030d40011818000008180000080500001082000e0
:1030e400010f40001e0078000080fa000000060076
:1030f4000000fa002002a9000111800090ff2f00b7
:10310400008060000011880020a2a9002062a800ad
:10311400500520004011880023a2a90023e2a90041
:103124000188a9002188a80011118000f0f32f0064
:1031340000806000101188000168a9002168a800bf
:1031440021e2a8002342a8000080fa000000060043
:103154000600fa0010079800210798000040eb00d1
:10316400004f78000040eb00004f78000e0037005d
:103174000000000011118000002020000080600089
:103184000000e000fbff3a001e00900010407800b1
:103194000080fb00201188001e0090000000e80061
:1031a400100798001e4fe8009e80fb002e00900040
:1031b400808f5000eeff35000080fa00000006000a
:1031c4000000fa00f0032000303a8800213a800021
:1031d400f0f32f0000806000203a8800213a80003c
:1031e40000fe2f00008060000000a000203a88004c
:1031f4001200200080072000a10920003374200061
:10320400804978008149780082497800103a80002a
:10321400000178000200a000600420007105200075
:10322400237420008049780081497800824978001d
:1032340000000000113a8000000027008080600038
:1032440000002100808f5000faff3a0000000000c7
:10325400113a800000022000008060000000e000bd
:0c326400fbff32000080fa0000000600b2
:020000040000fa
:10327000001000000800000080000000a6110000ff
:1032800026000000800000001c1000000400000068
:10329000820000000000a00040000000cc110000ef
:1032a0000a0000008000000024100000020000005e
:1032b00080000000101000000600000080000000e8
:1032c00026100000800000008000000016100000a2
:1032d0000600000080000000a61000008000000032
:1032e00080000000201000000400000080000000aa
:1032f000261100008000000080000000081000007f
:0c33000008000000800000000000000039
:020000040000fa
:10330c000000fa000e2eef001e2eef002e2eef0006
:10331c003e2eef004e2eef005e2eef006e2eef00d5
:10332c00214ea90060cea90060eea90011cea90023
:10333c0011eea90020cea90020eea90021368000b4
:10334c0000f82f00008060008001b3002036880058
:10335c001134800000fc2f00008060000000a000f1
:0c336c00103488000080fa000000060009
:020000040000fa
:02000004000af0
:04afe000cfff00009f
:020000040000fa
:02000004000af0
:04afe400ffff00006b
:020000040000fa
:02000004000af0
:04afe8007fff0000e7
:020000040000fa
:02000004000af0
:04afec005fff000003
:020000040000fa
:02000004000af0
:04aff00038ff000026
:020000040000fa
:02000004000af0
:04aff400ffff00005b
:00000001FF
