:020000040000fa
:080000000002040000000000f2
:020000040000fa
:040008000a040000e6
:020000040000fa
:04000c000a040000e2
:020000040000fa
:040010000a040000de
:020000040000fa
:040014000a040000da
:020000040000fa
:040018000a040000d6
:020000040000fa
:04001c000a040000d2
:020000040000fa
:040020000a040000ce
:020000040000fa
:040024000a040000ca
:020000040000fa
:040028000a040000c6
:020000040000fa
:04002c000a040000c2
:020000040000fa
:040030000a040000be
:020000040000fa
:0400340002030000c3
:020000040000fa
:040038000a040000b6
:020000040000fa
:04003c000a040000b2
:020000040000fa
:040040000a040000ae
:020000040000fa
:040044000a040000aa
:020000040000fa
:04004800fa020000b8
:020000040000fa
:04004c000a040000a2
:020000040000fa
:040050000a0400009e
:020000040000fa
:04005400c6030000df
:020000040000fa
:040058009c03000005
:020000040000fa
:04005c007803000025
:020000040000fa
:040060000a0400008e
:020000040000fa
:040064000a0400008a
:020000040000fa
:040068000a04000086
:020000040000fa
:04006c000a04000082
:020000040000fa
:040070000a0400007e
:020000040000fa
:040074000a0400007a
:020000040000fa
:040078000a04000076
:020000040000fa
:04007c000a04000072
:020000040000fa
:040080000a0400006e
:020000040000fa
:040084000a0400006a
:020000040000fa
:040088000a04000066
:020000040000fa
:04008c000a04000062
:020000040000fa
:040090000a0400005e
:020000040000fa
:040094004e03000017
:020000040000fa
:040098000a04000056
:020000040000fa
:04009c000a04000052
:020000040000fa
:0400a0000a0400004e
:020000040000fa
:0400a4000a0400004a
:020000040000fa
:0400a8000a04000046
:020000040000fa
:0400ac000a04000042
:020000040000fa
:0400b0000a0400003e
:020000040000fa
:0400b4000a0400003a
:020000040000fa
:0400b8000a04000036
:020000040000fa
:0400bc000a04000032
:020000040000fa
:0400c0000a0400002e
:020000040000fa
:0400c4000a0400002a
:020000040000fa
:0400c8000a04000026
:020000040000fa
:0400cc000a04000022
:020000040000fa
:0400d0000a0400001e
:020000040000fa
:0400d4000a0400001a
:020000040000fa
:0400d8000a04000016
:020000040000fa
:0400dc000a04000012
:020000040000fa
:0400e0000a0400000e
:020000040000fa
:0400e4000a0400000a
:020000040000fa
:0400e8000a04000006
:020000040000fa
:0400ec000a04000002
:020000040000fa
:0400f0000a040000fe
:020000040000fa
:0400f4000a040000fa
:020000040000fa
:0400f8000a040000f6
:020000040000fa
:0400fc000a040000f2
:020000040000fa
:040100000a040000ed
:020000040000fa
:040104000a040000e9
:020000040000fa
:040108000a040000e5
:020000040000fa
:04010c000a040000e1
:020000040000fa
:040110000a040000dd
:020000040000fa
:040114000a040000d9
:020000040000fa
:040118000a040000d5
:020000040000fa
:04011c000a040000d1
:020000040000fa
:040120000a040000cd
:020000040000fa
:040124000a040000c9
:020000040000fa
:040128000a040000c5
:020000040000fa
:04012c000a040000c1
:020000040000fa
:040130000a040000bd
:020000040000fa
:040134000a040000b9
:020000040000fa
:040138000a040000b5
:020000040000fa
:04013c000a040000b1
:020000040000fa
:040140000a040000ad
:020000040000fa
:040144000a040000a9
:020000040000fa
:040148000a040000a5
:020000040000fa
:04014c000a040000a1
:020000040000fa
:040150000a0400009d
:020000040000fa
:040154000a04000099
:020000040000fa
:040158000a04000095
:020000040000fa
:04015c000a04000091
:020000040000fa
:040160000a0400008d
:020000040000fa
:040164000a04000089
:020000040000fa
:040168000a04000085
:020000040000fa
:04016c000a04000081
:020000040000fa
:040170000a0400007d
:020000040000fa
:040174000a04000079
:020000040000fa
:040178000a04000075
:020000040000fa
:04017c000a04000071
:020000040000fa
:040180000a0400006d
:020000040000fa
:040184000a04000069
:020000040000fa
:040188000a04000065
:020000040000fa
:04018c000a04000061
:020000040000fa
:040190000a0400005d
:020000040000fa
:040194000a04000059
:020000040000fa
:040198000a04000055
:020000040000fa
:04019c000a04000051
:020000040000fa
:0401a0000a0400004d
:020000040000fa
:0401a4000a04000049
:020000040000fa
:0401a8000a04000045
:020000040000fa
:0401ac000a04000041
:020000040000fa
:0401b0000a0400003d
:020000040000fa
:0401b4000a04000039
:020000040000fa
:0401b8000a04000035
:020000040000fa
:0401bc000a04000031
:020000040000fa
:0401c0000a0400002d
:020000040000fa
:0401c4000a04000029
:020000040000fa
:0401c8000a04000025
:020000040000fa
:0401cc000a04000021
:020000040000fa
:0401d0000a0400001d
:020000040000fa
:0401d4000a04000019
:020000040000fa
:0401d8000a04000015
:020000040000fa
:0401dc000a04000011
:020000040000fa
:0401e0000a0400000d
:020000040000fa
:0401e4000a04000009
:020000040000fa
:0401e8000a04000005
:020000040000fa
:0401ec000a04000001
:020000040000fa
:0401f0000a040000fd
:020000040000fa
:0401f4000a040000f9
:020000040000fa
:0401f8000a040000f5
:020000040000fa
:0401fc000a040000f1
:020000040000fa
:040200000a040000ec
:020000040000fa
:040204000a040000e8
:020000040000fa
:040208000a040000e4
:020000040000fa
:04020c000a040000e0
:020000040000fa
:040210000a040000dc
:020000040000fa
:040214000a040000d8
:020000040000fa
:040218000a040000d4
:020000040000fa
:04021c000a040000d0
:020000040000fa
:040220000a040000cc
:020000040000fa
:040224000a040000c8
:020000040000fa
:040228000a040000c4
:020000040000fa
:04022c000a040000c0
:020000040000fa
:040230000a040000bc
:020000040000fa
:040234000a040000b8
:020000040000fa
:040238000a040000b4
:020000040000fa
:04023c000a040000b0
:020000040000fa
:040240000a040000ac
:020000040000fa
:040244000a040000a8
:020000040000fa
:040248000a040000a4
:020000040000fa
:04024c000a040000a0
:020000040000fa
:040250000a0400009c
:020000040000fa
:040254000a04000098
:020000040000fa
:040258000a04000094
:020000040000fa
:04025c000a04000090
:020000040000fa
:040260000a0400008c
:020000040000fa
:040264000a04000088
:020000040000fa
:040268000a04000084
:020000040000fa
:04026c000a04000080
:020000040000fa
:040270000a0400007c
:020000040000fa
:040274000a04000078
:020000040000fa
:040278000a04000074
:020000040000fa
:04027c000a04000070
:020000040000fa
:040280000a0400006c
:020000040000fa
:100400002fa621000eff2c000e0188000000000026
:10041000000020000000e000020032000001200087
:100420002002880014000700fc0007000000e00024
:1004300003003a00202222000100200002003700c1
:100440000000200001002000810f70000100320038
:100450000f000700000020000000e0000200320052
:100460000000020000000000180902000000000067
:100470000040da000000fe00200020000000e00044
:1004800002003200100020009001880000000600e9
:10049000a1028800800478000000eb001f003700f4
:1004a000e284440054a0b4009905ba00e2844400f8
:1004b00054a0b4009906ba00e284440054a0b400e9
:1004c0000006eb00476fde00fd07b200ae018800ba
:1004d000636ce10003003a000ad801000000eb0061
:1004e0000e003700606ce10008003a00004deb00a0
:1004f0000a05e800020039003420ec000af0a000f0
:100500008b05e900f9ff3e00040037006168e10057
:10051000010032000086eb000b00070019c7ba008b
:100520000e04e0001905ba0003003a000a00e000da
:10053000dbff3a0000000600fe07b200ae028800b2
:100540008a047800f5ff37000cd0a300e20f4d00bd
:100550001c00390089027800354dba000a05e80010
:10056000020039003420ec000af0a0008b05e900fd
:100570000f003200254dba000a05e80002003900dc
:100580003420ec000af0a0008b05e90008003200de
:100590000c00e0000600320015cdba000a05e800a4
:1005a000020039003420ec000af0a0008b05e900bd
:1005b0008984e80054a0b4000b00e000e2ff3a0098
:1005c000000006009902ba00055d78008b05e9007d
:1005d000f7ff3200c82ade00055d78008b05e900d0
:1005e000f3ff32000c00e000f1ff320019ddba0029
:1005f000eeff37000000fa000108a9000080fa00b1
:10060000004006003600f800809fbe00829fbe00ba
:10061000849fbe00869fbe000200fa000068a90009
:10062000f40e07002e0b0700f80a0700b30a0700b4
:10063000fd090700f0828000000f78009101200082
:100640001e00780081017800110009000300d80025
:1006500001f0a7008100ea008100e900cf08de0078
:10066000814078001e0178000200e800f0828800d6
:100670000104e00002003200f90b0700e508070062
:100680000080fa004f03be004f02be004f01be00c3
:100690004f00be003600f900004006003600f800aa
:1006a000809fbe00829fbe00849fbe00869fbe00ca
:1006b0000000fa000368a900c0828000d182800097
:1006c00061004000e0804800c0828800d18288003c
:1006d0008a0307000080fa004f03be004f02be00ed
:1006e0004f01be004f00be003600f900004006007a
:1006f000801f78000000fa0001a8a90000188000ff
:10070000c0d2880010188000d0d288002018800045
:10071000e0d2880030188000f0d2880040188000b5
:1007200000d3880010c0b30075f0b7000080fa0055
:100730004f007800004006003600f800809fbe00a1
:10074000829fbe00849fbe00869fbe000000fa000c
:100750000188a9004183800030838000808f500091
:1007600002003200440e0700010037006a70ef00fb
:100770000080fa004f03be004f02be004f01be00d2
:100780004f00be003600f900004006003600f800b9
:10079000809fbe00829fbe00849fbe00869fbe00d9
:1007a0000000fa000168a9001011800064006000d8
:1007b0000000e000010032002242a9001011800078
:1007c000620060000000e000060032002222a90062
:1007d000050037003011800000407800950e0700ba
:1007e000010037000000000010118000610060006f
:1007f0000000e000f7ff3a000080fa004f03be005f
:100800004f02be004f01be004f00be003600f9008f
:10081000004006000040da000000fe000000050075
:1008200003f0a200889fbe008a9fbe008c1f780044
:100830006e010700750133006450e1004f00320083
:100840006420e1005200320003826c0007003b008c
:100850000905d0000306d000820f54000c065d008d
:100860000200390002003200890178000306780096
:100870008582550004003d000003fd008103fd005a
:100880008502ea008b854200840f720002003b0063
:1008900060001000e08018006011b8000005eb0057
:1008a0007a28e1000a00390006007800c75ddd0003
:1008b000f707b200878075002d0037008281710034
:1008c0000a017800610560008180d1000080d300ba
:1008d0008502e900f9ff3b000604400087844800d8
:1008e00002003b0060041400e0841c000988a3009f
:1008f000070032008a817100828171006101640009
:100900008904d1000884d3008b05e8001700370064
:100910000978a30013003a000b00e0001300340034
:100920008b05e9000804440089844c000a447400e3
:100930000978a3000d003a000b00e0000700340026
:100940008b05e9000804440089844c0001003a004a
:100950000b0020000978a300f7ff32000001eb0034
:1009600002003700828171000a017800e40007006c
:100970000cf0a70001f0a0002d0137006420e10079
:1009800002003a00838f6c002d0133000801be0085
:100990000200be00260137000081eb005f01370036
:1009a000889fbe008a9fbe008c1f78000f01070041
:1009b0001601330003866c006450e1002e00320003
:1009c0006420e100330032006150e1002f0032006a
:1009d0006120e1003100320085855500eb07b00051
:1009e0000900200008042000050037000804440026
:1009f00089844c000a0031000603430087834b00c2
:100a00000001530081815b00f8ff33000203be0048
:100a10000800a0000804440089844c00f6ff390057
:100a2000c639dd008301730001003200130020008d
:100a30008904d1000884d3000998a300050032007e
:100a40000800a7000300a0008904d1000884d30097
:100a50008b05e8008904d1000884d3000001eb0075
:100a60000281d200a600070001f0a1000cf0a7004f
:100a700001f0a000ee0037006420e100f000320039
:100a80000801be000200be00f7ff37006120e10050
:100a9000eb0032006000b800f3ff370000002000d8
:100aa00001f82700f0ff370014002000860137000e
:100ab000f4ff2f00840137000001be00b6000700dc
:100ac0000470a70003f0a1006509b1001600320010
:100ad0000d0035006828e10006003500f0ff2f000a
:100ae000f1ff27000300e00013003b000100280095
:100af0000000050000004000818048008502e900f8
:100b0000fcff3a0008003700f88f420002003c006a
:100b10008000eb00000005008100d1000080d300c0
:100b20008502e800fcff3a000300e00002003b0001
:100b300060001000e0801800000006000001be0008
:100b4000950007000470a70003f0a10003f8a300bc
:100b500013003a006509b1001000320009003500a9
:100b60006928e100020035000100280000000500ae
:100b700000004000818048008502e900fcff3a0047
:100b800000000600f88f4200050035008100d1000a
:100b90000080d3008502e800fcff3a000000060058
:100ba0008000eb00000005004f89de008201780024
:100bb000600137006011b8006e01370004002000aa
:100bc00000003700889fbe008a9fbe008c1f7800ff
:100bd0004f26dd00850007008c0033006120e10016
:100be000430032006250e10041003e003e00390007
:100bf0006420e1003c003200058255000f003b00fc
:100c00000402e80038003a00800f5300818f5b0037
:100c1000350034000800be0003f0a10001f0a6007a
:100c200003f0a0000cf0a700fefe070080003700d4
:100c30000603430087834b000c4646000005530023
:100c400081855b00020033000a03be000c00a00097
:100c50000402e900f6ff3b00850578000602430028
:100c600087824b0004003a006000b80009f0a7003a
:100c700001f0a0006e0037000002520081825a008d
:100c80000704e000040033000603430087834b00a1
:100c90008b05e900faff3700090578000604be005d
:100ca0000203be006011b80015000700e00f5200fb
:100cb000e08f5a000700350002003c000c08a3003a
:100cc000040032000601be0003f0a0000cf0a700f3
:100cd000d4fe07000a85680001f0a1000af0a70011
:100ce00001f0a000520037000800be00500037009d
:100cf000100220000cf0a600c083880050003700ce
:100d000081002000618055000b003d000b00200099
:100d100061fe2f000100e1001d003400828171009e
:100d2000610164008904d1000884d3000000e80058
:100d3000faff3a00710020006100640003007000b7
:100d4000020060000900320061044400e0844c00ad
:100d50000988a500050032008b05e8006808e1005d
:100d600002003a008904d1000884d300f20f200069
:100d70000258e10005003d00c75ddd00f907b20043
:100d80008980750008007800000006000bf8270035
:100d90008b00780000000500c70ade00f107b200f2
:100da000f50fb20008003200e1cf4200020032002d
:100db0000170a00024000500810f700001003200c6
:100dc0000408050044000500810f700002003a008d
:100dd000140005008502e9000000400081c04800c1
:100de000fcff3b000170a000240005000004be00d1
:100df000e9ff07000003be000405be000200be00bc
:100e0000e5ff0700844f7500000006000200be00e9
:100e10006450e100050036006420e1000200360065
:100e20000968a30001003a000800be000160a000ac
:100e30004f0678004f05be004f04be0000000600bc
:100e4000f0ff2f00f1ff2700f9ff3700889fbe0059
:100e50008a9fbe008c1f7800e4ff0700ebff330081
:100e600003866c006450e100240032006420e1003d
:100e7000270032006150e100220032006120e100d1
:100e8000210032008b854200eb07b1000134b8002d
:100e9000003ab8000804420089844a00013ab800c8
:100ea0000030b8008880400009014a000400330087
:100eb0000000400081804800020149008b05e900e4
:100ec000c909dd0083017000010032001300200019
:100ed000c814de004814dd004709de001200b2002d
:100ee000c808de000884700085ff070001f0a1003b
:100ef0000cf0a70001f0a000cdff37006120e10059
:100f0000cfff32000801be000200be00f7ff37002d
:100f10006150e100fcff3a00c9ff3700889fbe0026
:100f20008a9fbe008c9fbe00820578000004be0030
:100f300099ff07000800be006420e10007003900a7
:100f400002003a00f1ff2700f0ff2f000160a0002f
:100f500012022000c2838800550037006120e100a2
:100f600003003a000b00a70001f8230050003700ef
:100f700001f0a1000200210093642400cafe0700d2
:100f80000800be0004003500b2fd2000930c2400d0
:100f90000aff07000004be000005eb000b00a600de
:100fa0004f0dde0001f0a1000004be0032982f00ba
:100fb00023ea2300a5ff07000001eb0003f0230054
:100fc0000b00a70003f8230016fe0700bafe070077
:100fd0000000a7000a00a200f3fe07000b00e000db
:100fe000030032000200200003f023000cfe070083
:100ff00001f0a2000006be000200200093042400bd
:1010000092ff07000801be0006fe0700809fbe0099
:101010000c00be0022a22a00d3a723008bff0700ea
:101020004f01be00fffd07000004be0001f0a1005b
:1010300002002000039823009bfe07000800be006a
:10104000190035000001be0080ff07000006be0049
:10105000b2c52900e36223007cff070022222b0097
:10106000f3942b00effd07000c01be0077ff070093
:10107000e273280083c02300eafd07000c01be00d4
:1010800072ff070042aa2a00a3e22b00e5fd070039
:101090000c01be006dff07000801be006bff0700da
:1010a0000801be00dffd07000a00a70001f0a20052
:1010b0004f06be004f05be004f04be0000000600f4
:1010c0000001eb0095ff3700889fbe008a9fbe009d
:1010d000841f780045ff07004f007800110033009f
:1010e000f0ff2f00838f6c0006003b0004056500b5
:1010f0000a00a7000800370009f0a6001000200031
:1011000008003700820f5400838f5c000300390011
:101110001000200001003e000000200009f0a700a0
:101120000000ea004f05be004f04be000000e000d2
:1011300000000600881f7800030478000300e00028
:1011400007003d0060001000e080180060011900f9
:10115000e081190002003b0001f02d000300370080
:101160000400070008f0a70001f0a0004f04780079
:1011700000000600889fbe008a9fbe0000827000ab
:101180000402710004827100260032000004be00d7
:101190000200be006011b8006b092000950220001b
:1011a0000182cf000a0039000541b1000082cf0062
:1011b000070039000541b1000982cf000400390061
:1011c0000541b1000882cf00010039000541b1009e
:1011d00005425200120032000a003b008281710079
:1011e000610164008100d1000080d3008984d300b4
:1011f0000884d3008b05e8000442e800f7ff3a00ba
:10120000070037000804440089844c0000004800af
:10121000818048008b05e9000442e900f9ff3a00ab
:10122000b7fe07004f05be004f04be0000000600d9
:020000040000fa
:101230000a00fa00ea0c0700b60c070033090700a1
:101240004b090700dc060700b00b0700c7090700c1
:101250003d0c07001008070018080700ed0b0700f9
:10126000e14f500084003a00ee0b0700e50b070049
:10127000100798001e0090000080e8001000780021
:101280008000eb004bfe07003233230033052400bf
:10129000eefe07000200200003582400c0fd0700f6
:1012a000d2cc2c00c3042400e8fe070020079800dd
:1012b000310798002e019000be0190000000200030
:1012c00081202400b6fd070002002000030a24004c
:1012d00053fd0700e0c38800f1c388001e009000a2
:1012e00064004000100078008000eb0031fe070031
:1012f0003233230033052400d4fe0700020020000f
:1013000003582400a6fd0700d2cc2c00c3042400ff
:10131000cefe070020079800310798002e019000ac
:10132000be01900000002000812024009cfd0700e9
:1013300002002000030a240039fd070000c48800d1
:1013400011c488001e009000680040001000780062
:101350008000eb0017fe0700323323003305240022
:10136000bafe070002002000035824008cfd07008d
:10137000d2cc2c00c3042400b4fe07002007980040
:10138000310798002e019000be019000000020005f
:101390008120240082fd070002002000030a2400af
:1013a0001ffd070020c4880031c488001e00900083
:1013b00066004000100078008000eb00fdfd070093
:1013c0003233230033052400a0fe07000200200072
:1013d0000358240072fd0700d2cc2c00c304240063
:1013e0009afe070020079800310798002e01900010
:1013f000be019000000020008120240068fd07004d
:1014000002002000030a240005fd070040c48800f4
:1014100051c488001e009000100078008000eb008e
:10142000e4fd0700323323003305240087fe070064
:10143000020020000358240059fd0700d2cc2c00e4
:10144000c304240081fe070020079800310798009c
:101450002e019000be019000000020008120240099
:101460004ffd070002002000030a2400ecfc0700e7
:1014700060c4880071c488000000eb00000f780091
:10148000050037007e0b0700004f98000e489000c3
:101490004f0307001e0fe8009a0b07009e0f500035
:1014a000f8ff3c006dff37000200fa00004f7800a3
:1014b0001e80fb00b0838800b0838000e10f5000e5
:1014c00003003a0020c0b30060f0b700020037000c
:1014d00000c1b30060f0b7000080fa000000060011
:1014e0000200fa00004f78001e417800010621003a
:1014f000824878000080fa00000006000000fa0030
:1015000060d0bf000080fb00cf80de001202200010
:1015100003002000820f5000838f5800ed003e0032
:1015200000060100210037002b003700340037008f
:1015300041003700420037004c0037004d003700b3
:10154000560037005700370061003700620037004f
:101550006b0037006c0037007600370077003700eb
:1015600081003700d4003700da003700d900370097
:10157000d8003700d7003700d60037008800370082
:10158000910037007a003700830037009000370061
:101590009d0037009e003700ab003700ac003700dd
:1015a000b6003700b7003700c10037005830ef00f1
:1015b0005a30ef000041eb006000b800bb060700a6
:1015c00012c0b3006000b800b806070010c0b30036
:1015d00060f0b700c4003700c2828000d382800070
:1015e000803e200001002000800f5100818f5900b3
:1015f000bc00360020c0b30060f0b700ba0037006e
:101600000041eb000000200001222c00a70607008b
:1016100012c0b3000000200001222400a30607002e
:1016200030c0b30060f0b700108380000000e80015
:1016300010838800ac003700ad000700aa00370017
:101640000041eb000000200001172c009706070066
:1016500012c0b30000002000010a24009306070016
:1016600050c0b30060f0b7009f003700a000070033
:101670009d0037000041eb000000200001172c0006
:101680008a06070012c0b3006000b8008706070092
:1016900050c0b30060f0b70093003700940007001b
:1016a000910037000041eb0000002000010a2c00ef
:1016b0007e06070012c0b3000000200001172400be
:1016c0007a06070090c0b30060f0b70086003700cc
:1016d00087000700840037000041eb006000b8007d
:1016e0007206070012c0b30000002000011724009a
:1016f0006e06070090c0b30060f0b7007a003700b4
:101700007b000700780037000041eb00000020005c
:1017100001172c006506070012c0b300000020006e
:1017200001172c0061060700d0c0b30060f0b700bd
:101730006d0037006e0007006b0037000041eb00c2
:1017400000002000011724005806070012c0b30053
:10175000000020000117240054060700f0c0b30069
:1017600060f0b70060003700610007005e003700de
:101770000041eb006000b8004c06070012c0b30047
:10178000000020000117240048060700f0c0b30045
:1017900060f0b700540037005500070052003700d2
:1017a0000041eb000000200001172c003f0607005d
:1017b00012c0b3006000b8003c060700f0c0b300e0
:1017c00060f0b700480037004900070046003700c6
:1017d0000041eb000000200001122c00330607003e
:1017e00012c0b30000002000011224002f060700e1
:1017f000b0c1b30060f0b700108380000000e800c3
:1018000010838800380037003900070036003700a1
:101810000041eb000000200001172c002306070008
:1018200012c0b30000002000011724001f060700ab
:10183000d0c1b30060f0b700108380000000e80062
:101840001083880028003700290007002600370091
:101850000041eb000000200001082c0013060700e7
:1018600012c0b30000002000010424000f0607008e
:10187000f0c1b30060f0b7001b0037001c00070088
:10188000190037000041eb000000200001042c008b
:101890000606070012c0b300000020000108240063
:1018a0000206070010c2b30060f0b7000e00370058
:1018b0000f0007000c0037000041eb006000b8008b
:1018c000fa05070012c0b3006000b800f705070072
:1018d0000500370020c0b30060f0b7000000000032
:1018e00001003700000000000080fa000000060040
:1018f0000200fa00881f7800b0838000e10f5000da
:10190000a4013a000040eb00004f7800e0c38000e3
:10191000f1c3800018c0b3000200200003122400ad
:1019200061fc07000000e000010035000044eb000e
:101930000804e0000e00320020c4800031c48000a2
:1019400018c0b300020020000312240056fc070058
:101950000000e000010035000044eb000804e00056
:101960000300320070c0b300004f78001f01370041
:1019700000c4800011c4800018c0b3000200200021
:101980000317240048fc07000000e00001003500b8
:101990000044eb000804e0000300320080c0b30004
:1019a000004f780011013700e0c38000f1c38000d0
:1019b00018c0b30002002000031724003afc0700ff
:1019c0000000e000010035000044eb000804e000e6
:1019d0000300320050c0b300004f7800030137000d
:1019e000e0c38000f1c3800018c0b30002002000f3
:1019f000831c24002cfc07000000e00001003500df
:101a00000044eb000804e0000300320040c0b300d3
:101a1000004f7800f500370020c4800031c48000fa
:101a200018c0b30002002000031724001efc0700aa
:101a30000000e000010035000044eb000804e00075
:101a40000300320020c0b300004f7800e7003700e9
:101a500020c4800031c4800018c0b3000200200000
:101a6000831c240010fc07000000e000010035008a
:101a70000044eb000804e0000300320010c0b30093
:101a8000004f7800d900370000c4800011c48000e6
:101a900018c0b30002002000831c240002fc0700d1
:101aa0000000e000010035000044eb000804e00005
:101ab00003003200a0c0b300004f7800cb00370015
:101ac00000c4800011c4800018c0b30002002000d0
:101ad00083242400f4fb07000000e000010035002f
:101ae0000044eb000804e0000300320090c0b300a3
:101af000004f7800bd003700e0c38000f1c38000d4
:101b000018c0b30002002000031f2400e6fb0700fa
:101b10000000e000010035000044eb000804e00094
:101b200003003200d0c0b300004f7800af00370090
:101b300020c4800031c4800018c0b300020020001f
:101b4000031f2400d8fb07000000e000010035005f
:101b50000044eb000804e00003003200e0c0b300e2
:101b6000004f7800a100370040c4800051c48000bd
:101b700018c0b3000200200003172400cafb0700ae
:101b80000000e000010035000044eb000804e00024
:101b90000300320030c0b300004f780093003700dc
:101ba00060c4800071c4800018c0b300020020002f
:101bb00003172400bcfb07000000e0000100350013
:101bc0000044eb000804e0000300320060c0b300f2
:101bd000004f78008500370060c4800071c4800029
:101be00018c0b3000200200003172400aefb07005a
:101bf0000000e000010035000044eb000804e000b4
:101c00001b00320040c4800051c4800018c0b300e3
:101c10000200200003172400a3fb07000000e000df
:101c2000010035000044eb000804e0001000320021
:101c300064c4800075c4800040c4800051c480002a
:101c400018c0b3000001be000400be0096fb0700f0
:101c50000000e000010035000044eb000804e00053
:101c600003003200b0c0b300004f78005f003700bf
:101c700060c4800071c4800018c0b300020020005e
:101c80000317240088fb07000000e0000100350076
:101c90000044eb000804e0001b00320040c4800058
:101ca00051c4800018c0b3000200200003172400b4
:101cb0007dfb07000000e000010035000044eb0060
:101cc0000804e0001000320064c4800075c4800085
:101cd00040c4800051c4800018c0b3000001be00a1
:101ce0000400be0072fb07000000e00001003c00a1
:101cf0000044eb000804e00003003200c0c0b30061
:101d0000004f78003900370060c4800071c4800043
:101d100018c0b300020020000317240064fb070072
:101d20000000e00001003c000044eb000804e0007b
:101d30002e003200e0c38000f1c3800018c0b30061
:101d400002002000031f240059fb07000000e000f0
:101d500001003c000044eb000804e00023003200d6
:101d600000c4800011c4800018c0b300020020002d
:101d7000832424004efb07000000e00001003c002b
:101d80000044eb000804e0001800320020c480008a
:101d900031c4800018c0b30002002000031f2400db
:101da00043fb07000000e00001003c000044eb00a2
:101db0000804e0000d00320040c4800051c48000df
:101dc00018c0b300020020000317240038fb0700ee
:101dd0000000e00001003c000044eb000804e000cb
:101de000020032000040eb00004f78001e407800f7
:101df000e74f50000a003a00108380006100600045
:101e00000000e00003003a00c0c0b30064f0b70077
:101e100057003700e0c0b30064f0b700540037004b
:101e20001e407800e84f50000a003a0010838000fe
:101e3000610060000000e00003003a00c0c0b30091
:101e400064f0b7004a003700e0c0b30064f0b700a8
:101e5000470037001e407800e94f5000060032006e
:101e60001e407800ed4f5000030032001e40780005
:101e7000ee4f500003003a00c0c1b30064f0b70059
:101e80003b0037001e407800ea4f500003003a0044
:101e9000a0c1b30064f0b700350037001e407800e1
:101ea000e54f500003003a0060c0b30064f0b70093
:101eb0002f0037001e407800e44f500003003a0026
:101ec00040c0b30064f0b700290037001e4078001e
:101ed000e24f500003003a00a0c0b30064f0b70026
:101ee000230037001e407800e14f500003003a0005
:101ef00080c0b30064f0b7001d0037001e407800ba
:101f0000eb4f500003003a00e0c1b30064f0b700ab
:101f1000170037001e407800eb4f500003003a00d6
:101f200000c2b30064f0b700110037001e40780013
:101f3000e64f500003003a0060c1b30064f0b70000
:101f40000b0037001e407800e34f500003003a00ba
:101f500080c1b30064f0b700050037001e40780070
:101f60000004e00002003a0020c0b30064f0b700b3
:101f700064d0bf008080fb0060d0bf000080fb0009
:101f80000000e900808f50000200320064d0bf00e2
:101f900060f0b7004f0478000080fa0000000600ef
:101fa0000a00fa00200798003107980042079800bd
:101fb000e0cfb300004f78002e0090004880de0094
:101fc000804078001e40780000c06800004f780014
:101fd0002e009000804078001e40780000c068000d
:101fe000004f78003e0090004880de00804078007e
:101ff0001e40780000c06800004f78003e0090004e
:10200000804078001e40780000c06800004f7800d3
:102010000000eb00100798000000eb00100798008c
:10202000080037001e009000ce00900000804000a5
:10203000104078001e4f68001e0090000000e8006d
:10204000100798009e0090003e009000808f500086
:10205000f4ff35001e4078000080fa000000060002
:102060000e00fa00889fbe004007980051079800b4
:10207000620798000f0478000f0078008004780051
:102080005e009000660040008000e9002107980093
:102090000000e8000000e8000000d10080004000df
:1020a0000f007800818747000000e8000000d100a1
:1020b00000004000300798000000eb00000f78009f
:1020c0003e0090001e004000e1cfb30001487800c0
:1020d0001e0fe8004e0090004880de00804078002f
:1020e0003e0090001e004000014878001e0fe800ee
:1020f0004e009000804078003e0090001e0040009e
:10210000014878001e0fe8005e0090004880de0065
:10211000804078003e0090001e004000014878009a
:102120001e0fe8005e009000804078003e009000a6
:102130001e004000014878001e0fe8000000eb0080
:10214000100798000000eb00100798000b00370004
:102150001e009000ee00900000804000904078004b
:102160003e0090001e004000014878001e0fe8006d
:102170001e0090000000e800100798009e009000ec
:102180005e009000808f5000f1ff35006e019000de
:10219000de0090004e00900081ff0700be0090001e
:1021a0009e804000804878001e0fe8005e0090008e
:1021b000e60040003e0090007307070089077800a2
:1021c000880778004f04be000080fa000000060077
:1021d0000400fa0020479800b0818000e30f50000f
:1021e00024003200e30f500005003e00e10f5000d4
:1021f00011003200e10f500016003e0007003700ca
:10220000e50f500037003200e50f50002000390084
:10221000e60f500041003200530037002e4090007e
:10222000e24f400053003a0010002000b0818800c7
:102230000430ef00520037002e4090000080fb0079
:102240004800dd002080880020002000b081880048
:102250004b0037002e4090008080fb0020808000e3
:10226000008040002080880030002000b08188007d
:10227000430037002e4090000080fb004800dd0046
:102280000080880040002000b08188003c003700ba
:102290002e4090008080fb00008080000080400085
:1022a00000808800008080000000e00003003a0009
:1022b00060002000b081880031003700018080007c
:1022c000f03f2000808f5000020034003630ef00d5
:1022d0002b00370050002000b08188000230ef0052
:1022e0002700370010808000819621008080400008
:1022f0002e419000824878000000e800108088009d
:102300001180800000808000808f50001b0035000d
:1023100060002000b0818800190037000180800033
:1023200020808000829621001dff0700004f78006a
:10233000ae409000114798001e4090009e407800eb
:1023400080cf500006003a00008080008040780076
:102350002080800000407800829621000a0007005b
:102360003630ef00060037003630ef000000000086
:1023700003003700000000000100370000000000eb
:102380000080fa00000006000800fa00889fbe00e6
:102390008a9fbe0040479800514798003207980036
:1023a0000000eb00000f78004e4090000080fb0022
:1023b00011052000810f5000490032001105200056
:1023c000810f500006003c00f30f50004c0032001b
:1023d00001022000810f50000e003200b2003700d1
:1023e00021052000810f500041003200010820002b
:1023f000810f5000a9003a005e4090000080fb0071
:102400003e019000800078000008200014ff0700c3
:10241000a50037003e009000104078000080fb00cf
:10242000100798003e0090000000e800104078007f
:102430000080fb00000f78001e0090000000e0000c
:102440000b003a001e0078000040780061406000f8
:102450000080fb00610060004a00dd002171800007
:1024600001a0a10001007000207188008e003700db
:102470001e009000e10f50000b003a001e00780093
:1024800000407800614060000080fb006100600057
:102490004700dd00217380000170a1000100700081
:1024a00020738800800037001e009000e20f50006b
:1024b0007c003a001e007800004078006140600017
:1024c0000080fb00610060004600dd002173800099
:1024d0000160a100010070002073880072003700c5
:1024e0003e00900010407800fdfb07006e003700b2
:1024f0003e00900010407800ebfb07006a003700b8
:102500008000eb003e00900021060700308088002c
:1025100041808800410020003e0090001c0607001a
:102520005080880061808800810020003e0090007b
:10253000170607007080880081808800c100200095
:102540003e0090001206070090808800a18088005d
:10255000010120003e0090000d060700b0808800b9
:10256000c1808800410120003e009000080607005d
:10257000d0808800e1808800da808000eb808000d5
:10258000b8808000c980800096808000a78080008d
:10259000748080008580800052808000638080008d
:1025a00030808000418080008a9fbe00889fbe00ee
:1025b000869fbe000403be000202be000001be00f2
:1025c000008d21003c000700ec87570081012000ae
:1025d0003e009000ee050700f08088000181880031
:1025e000c10120003e009000e9050700108188002d
:1025f00021818800010220003e009000e4050700d0
:102600003081880041818800410220003e00900016
:10261000df05070050818800618188008102200069
:102620003e009000da0507007081880081818800f3
:10263000c10220003e009000d5050700908188006f
:10264000a18188009a818000ab8180007881800020
:1026500089818000568180006781800034818000fc
:10266000458180001281800023818000f0808000fd
:10267000018180008a9fbe00889fbe00869fbe00a9
:102680000403be000202be000001be00c090210093
:1026900009000700ec875700030037000000000026
:1026a00001003700000000004f05be004f04be00cf
:1026b0000080fa00000006000e00fa00000f78000b
:1026c00012079800230798003407980045079800e0
:1026d00056079800670798001e0078001e019000ba
:1026e000ae0190000288be001e0078003eb997003f
:1026f000ceb9970062009800730098001e00780021
:102700003e019000ce019000220098003300980016
:102710001e0078001eb99700aeb997000208980015
:10272000130898001e0078005e019000ee019000f2
:1027300042009800530098001e0078007eb1970078
:102740008eb9970022089800330898000080fa009c
:10275000000006001200fa00889fbe006007980083
:1027600072079800030f98006e0090007e019000a1
:102770008e09900022189800331898006e0090007f
:1027800060029000f00290006e00900090009000b7
:10279000100078000001be000400be0080f80700b1
:1027a0000004be006e009000f000900060009000f9
:1027b0000002be0005f0a2006e00900090009000a4
:1027c000100078000001be000400be0074f807008d
:1027d0000802be000001be007e0090008e0890003e
:1027e00027050700008fbe006e009000900090004b
:1027f000100078001e0178009e01900093f90700f8
:102800006e01900000119800111198006e00900068
:10281000400c9000d00c900002002000a337240050
:102820007e0090008e0890005df807000001be0059
:102830000800be00fbf707006e01900040099800f9
:10284000510998006e009000000a9000900a9000d4
:102850006e009000b0009000200090000001be00cb
:102860000400be004ef807000004be006e00900099
:1028700090089000000890000002be0005f0a20041
:102880006e009000b0009000200090000001be009b
:102890000400be0042f807006e019000420b900059
:1028a000d20b90000802be000001be000600be0070
:1028b000f30407006e019000400998005109980048
:1028c0006e009000400a9000d00a90006e009000c8
:1028d000b0009000200090000001be000400be0087
:1028e0005af907006e0190002011980031119800ec
:1028f0006e009000f0089000600890000001be009b
:102900007e0090008e089000c5f7070002002000ae
:10291000a33724004df907002007980031079800dd
:102920006e009000200a9000b00a90006e009000a7
:10293000d0009000400090000001be000400be00e6
:1029400017f807000004be006e009000b008900069
:10295000200890000002be0005f0a2006e0090006a
:10296000d0009000400090000001be000400be00b6
:102970000bf807000802be000001be002e00900008
:10298000be009000be040700400798005107980061
:102990006e0090007e0190008e0990006208980001
:1029a000730898006e009000d000900040009000e6
:1029b0004e019000de01900024f907006e019000a6
:1029c00040119800511198006e0090000012900084
:1029d000901290006e009000b010900020109000b7
:1029e0000001be000400be008ef707000002be001a
:1029f0006e009000d0109000401090000001be00ca
:102a00000400be0087f707004f04be000080fa00f4
:102a1000000006000200fa000000eb00000f780042
:102a2000e0c78000f1c780000001be009e00780072
:102a3000809e2100f0040700c0c98000d1c9800039
:102a40001e017800640f41000001be009e00780066
:102a5000809e2100e804070080c5800091c58000a9
:102a60001e017800640f41000001be009e00780046
:102a7000809e2100e0040700a0c58000b1c5800051
:102a80001e017800640f41000001be009e00780026
:102a9000809e2100d804070020c8800031c8800033
:102aa0001e017800640f41000001be009e00780006
:102ab000809e2100d004070000ca800011ca800057
:102ac0001e017800640f41000001be009e007800e6
:102ad000809e2100c804070000c8800011c8800043
:102ae0001e017800640f41000001be009e007800c6
:102af000809e2100c0040700e0c98000f1c9800069
:102b00001e017800640f41000001be009e007800a5
:102b1000809e2100b804070080c7800091c7800014
:102b20001e017800640f41000001be009e00780085
:102b3000809e2100b004070060c9800071c9800038
:102b40001e017800640f41000001be009e00780065
:102b5000809e2100a8040700a0c78000b1c78000a4
:102b60001e017800640f41000001be009e00780045
:102b7000809e2100a004070080c9800091c98000c8
:102b80001e017800640f41000001be009e00780025
:102b9000809e210098040700c0c78000d1c7800034
:102ba0001e017800640f41000001be009e00780005
:102bb000809e210090040700a0c98000b1c9800058
:102bc0001e017800640f41000001be009e007800e5
:102bd000809e21008804070080c6800091c6800086
:102be0001e017800640f41000001be009e007800c5
:102bf000809e21008004070060c8800071c88000aa
:102c00001e017800640f41000001be009e007800a4
:102c1000809e210078040700a0c68000b1c6800015
:102c20001e017800640f41000001be009e00780084
:102c3000809e21007004070080c8800091c8800039
:102c40001e017800640f41000001be009e00780064
:102c5000809e210068040700c0c68000d1c68000a5
:102c60001e017800640f41000001be009e00780044
:102c7000809e210060040700a0c88000b1c88000c9
:102c80001e017800640f41000001be009e00780024
:102c9000809e210058040700e0c68000f1c6800035
:102ca0001e017800640f41000001be009e00780004
:102cb000809e210050040700c0c88000d1c8800059
:102cc0001e017800640f41000001be009e007800e4
:102cd000809e21004804070000c7800011c78000c3
:102ce0001e017800640f41000001be009e007800c4
:102cf000809e210040040700e0c88000f1c88000e9
:102d00001e017800640f41000001be009e007800a3
:102d1000809e21003804070020c7800031c7800052
:102d20001e017800640f41000001be009e00780083
:102d3000809e21003004070000c9800011c9800076
:102d40001e017800640f41000001be009e00780063
:102d5000809e21002804070040c5800051c58000e6
:102d60001e017800640f41000001be009e00780043
:102d7000809e21002004070060c5800071c580008e
:102d80001e017800640f41000001be009e00780023
:102d9000809e2100180407009e007800648f400088
:102da000829e21009e00780080022000acfc07007b
:102db0000080fa00000006000000fa0011608000a8
:102dc00080ff2f00008060001060880000fa200063
:102dd0002060880023aca800238ca800116180002b
:102de000f03f2f000080600000a0a000106188006c
:102df0003000200020618800c3aca800c38ca8006c
:102e000011668000f03f2f000080600000a0a0004d
:102e100010668800300020002066880001eca800c1
:102e20000080fa00000006000000fa00889fbe0043
:102e3000e4c48000f5c48000c0c48000d1c4800018
:102e400018c0b3000001be000400be0016f7070062
:102e50000000e000010035000044eb000804e00041
:102e60000d003200c8c48000d9c48000e4c48000d2
:102e7000f5c4800060838000718380000001be0083
:102e80000400be0067f607000801be0064030700e7
:102e9000e0c48800f1c48800e4c48000f5c4800068
:102ea000c0c48000d1c4800018c0b3000001be00bf
:102eb0000400be00fef607000000e00001003c0038
:102ec0000044eb000804e0000d003200c8c480009c
:102ed000d9c48000e4c48000f5c480006083800011
:102ee000718380000001be000400be004cf60700a4
:102ef0000801be0032030700e0c48800f1c4880066
:102f0000e0c48000f1c4800018c0b3006011b800b4
:102f1000e7f607000000e00001003c000044eb0081
:102f20000804e00004003200c3cca90024eea8008d
:102f3000c3eca80003003700c3eca90024cea8000e
:102f4000c3cca800e0c48000f1c4800006030700e1
:102f50000200200003222400bcf70700f7f6070058
:102f60000000780030668800a4c48000b5c48000ea
:102f700080c4800091c4800018c0b3000001be006e
:102f80000400be00c8f607000000e00001003500a4
:102f90000044eb000804e0000d00320088c480000b
:102fa00099c48000a4c48000b5c480006083800000
:102fb000718380000001be000400be0019f6070006
:102fc0000801be0016030700a0c48800b1c4880031
:102fd000a4c48000b5c4800080c4800091c4800077
:102fe00018c0b3000001be000400be00b0f6070028
:102ff0000000e00001003c000044eb000804e00099
:103000000d00320088c4800099c48000a4c48000f0
:10301000b5c4800060838000718380000001be0021
:103020000400be00fef507000801be00e402070030
:10303000a0c48800b1c48800a0c48000b1c48000ce
:1030400018c0b3006011b80099f607000000e00056
:1030500001003c000044eb000804e00004003200e2
:1030600023cca90015eea80023eca800030037002c
:1030700023eca90015cea80023cca800a0c4800092
:10308000b1c48000b802070002002000032224001f
:103090006ef70700a9f6070000007800306188008d
:1030a0004f04be000080fa00000006000600fa008f
:1030b000008fbe00424798004e409000e14f500004
:1030c00004003a001e0178009e01900082c488002e
:1030d00093c488004e4090000004e00005003a00d0
:1030e0001e0078009e00900001f0a200c0c488007d
:1030f000d1c488000080fa00000006000000fa0039
:10310000889fbe00e0c98000f1c980000200200055
:10311000632924004df7070000cb880011cb8800fd
:1031200000c8800011c8800002002000632924002c
:1031300046f7070080ca880091ca880088ca8000c4
:1031400099ca800000cb800011cb80009218240027
:1031500003e623003df707000200200003002400df
:103160000ff607000001be000800be00adf5070025
:1031700001f0a200c0c48800d1c48800c0c480008f
:10318000d1c4800004002000852c2400020020000f
:10319000832c2c00ba020700c0c48800d1c4880068
:1031a00088ca800099ca800000cb800011cb8000c3
:1031b0009218240003e6230024f7070002002000f1
:1031c00003002400f6f507000001be000800be0061
:1031d00093f5070080c4880091c4880080c48000f3
:1031e00091c4800004002000852c240002002000ef
:1031f000832c2c00a202070080c4880091c48800a0
:103200004f04be000080fa00000006000000fa0033
:10321000e4c78000f5c7800080c5800091c58000ac
:103220000001be000400be007df5070020c8880034
:1032300031c88800c4c98000d5c98000a0c58000fd
:10324000b1c580000001be000400be0074f5070097
:1032500000ca880011ca880020c8800031c88000d8
:103260000001be00008d21003afd070000c8880063
:1032700011c8880000ca800011ca80000001be0089
:10328000c090210033fd0700e0c98800f1c9880023
:103290000080fa00000006000000fa00c301a80048
:1032a0000080eb00e00e88000080eb00f00e88004c
:1032b000c1e1a8000080fa00000006000000fa004a
:1032c000c305a8000080eb00e02e88000080eb0022
:1032d000f02e8800c1e5a8000080fa00000006007a
:1032e0000800fa00889fbe008a9fbe00008280000e
:1032f00011828000c0818800d181880020828000f6
:1033000031828000e0818800f1818800300e8000e9
:103310008000eb00008fbe00500e80008000eb00ac
:10332000c000dd00000020001e0f40005e97480036
:10333000302e80008000eb002007980031079800b5
:10334000502e80008000eb00c000dd000000200057
:103350002e019000be0190000200400083804800d2
:1033600020079800310798001e0078009e0090000a
:103370000df60700b294200093782300b3f60700ff
:1033800000828800118288002e009000be0090000c
:1033900005f60700b294200093782b00abf60700e7
:1033a000208288003182880004828000158280009b
:1033b000c0818000d18180000001be000400be00f9
:1033c00017f507004082880051828800248280001f
:1033d00035828000e0818000f18180000001be0024
:1033e0000400be000ef5070060828800718288002c
:1033f000448280005582800060828000718280005b
:103400000001be000400be0005f50700921824006c
:1034100003e6230062f5070080828800918288001d
:10342000448280005582800060828000718280002a
:103430000001be000400be00faf4070002002000f4
:103440000300240056f50700a0828800b18288009e
:10345000408280005182800002002000a3372400b7
:103460007af6070040c5880051c588006082800058
:103470007182800002002000a337240073f6070049
:1034800060c5880071c5880044c5800055c58000ae
:1034900060c5800071c580000001be000400be0050
:1034a000e0f4070002002000030024003cf50700c0
:1034b00080c5880091c5880080828000918280004c
:1034c00002002000a337240060f60700a0c5880092
:1034d000b1c58800c0c58000d1c5800020c6880065
:1034e00031c68800e0c58000f1c5800040c6880074
:1034f00051c6880000c6800011c6800060c68800e2
:1035000071c6880028c6800039c6800080c580004a
:1035100091c5800002002000a337240020f5070099
:103520000005be0060c6800071c680001af5070065
:103530000001be000a00be0044f607000001be0004
:103540000800be00b7f40700c0c58800d1c58800d8
:1035500048c6800059c6800080c5800091c58000a3
:1035600002002000a33724000df507000005be006f
:1035700060c6800071c68000d1f607000001be0061
:103580000a00be0031f607000001be000800be00c0
:10359000a4f40700e0c58800f1c5880064c6800077
:1035a00075c6800080828000918280000001be008c
:1035b0000400be009bf4070000c6880011c6880006
:1035c00000c6800011c6800018c0b300b2fd200004
:1035d0009304240036f507000000e00001003c00e1
:1035e0000044eb000804e0000700320000c6800041
:1035f00011c68000b2fd2000930c240088f407005f
:1036000000c6880011c6880000c6800011c6800070
:1036100018c0b300b2fd200093042c0022f507006f
:103620000000e000010035000044eb000804e00069
:103630000700320000c6800011c68000b2fd2000e5
:10364000930c240077f4070000c6880011c6880098
:103650004f05be004f04be000080fa0000000600c7
:103660001800fa00c0828000d18280000001be00f4
:103670008000eb000e007800f8010700c0c5800054
:10368000d1c580000001be00410020000e0078007e
:10369000d9010700e0c58000f1c580000001be002f
:1036a000810020000e007800d301070000c68000d2
:1036b00011c680000001be00c10020000e0078008d
:1036c000cd01070080c5800091c580000001be00cb
:1036d000010120000e007800c7010700a0c580008e
:1036e000b1c580000001be00410120000e0078003d
:1036f000c10107000e0178008101200010062000a2
:1037000057fa07000080fa00000006000000fa00e7
:1037100013e1a90011e1a9001061a8001021a9007e
:1037200081088000f0fc2f00008060008008880085
:103730000a21ef000621ef002026200070088800f3
:1037400020032000600888002142800080ff2f00b5
:10375000008060000000a000204288000108a9004d
:103760002108a80011e1a8000080fa00000006006e
:103770000000fa0005e1a9000421a9000068a900e1
:103780002068a80005e1a80000002000a13724005f
:10379000020007000080fa00000006000400fa00a2
:1037a000881f7800008fbe0021088000f0fc2f00e9
:1037b00000806000200888001e0178009e019000b3
:1037c0000068290081c1240075f4070018c0b30007
:1037d00002f02f00f3772400b5f407000000e000aa
:1037e00001003c000044eb000804e00054003200fb
:1037f00021088000f0fc2f00008060000040a00045
:10380000200888001e0178009e01900000682900b1
:1038100081c1240062f4070002002000031024008c
:103820005ff4070018c0b30002f02f00f377240004
:103830009ff407000000e00001003c000044eb00a2
:103840000804e0003200320021088000f0fc2f0064
:10385000008060000050a000200888001e01780051
:103860009e0190000068290081c124004cf40700eb
:10387000020020000328240049f4070018c0b30008
:1038800002f02f00f377240089f407000000e00025
:1038900001003c000044eb000804e000100032008e
:1038a000210880000003200001007000200888002b
:1038b0001e0178009e0190000068290081c124004b
:1038c00037f40700020020000338240034f4070016
:1038d00079f4070000007800100888002000370005
:1038e0001e0178009e0190000068290081c124001b
:1038f0002bf40700020020000328240028f407000e
:103900006df40700000078001008880014003700ec
:103910001e0178009e0190000068290081c12400ea
:103920001ff4070002002000031024001cf407000d
:1039300061f40700000078001008880008003700d4
:103940001e0178009e0190000068290081c12400ba
:1039500013f4070058f407000000780010088800ee
:103960004f0478000080fa00000006000000fa0012
:103970001fe1a9001e21a9000368a9002368a8006f
:103980001fe1a80000002000a1472400020007005a
:103990000080fa00000006000400fa00881f78008a
:1039a000008fbe00f1088000f0fc2f000080600056
:1039b000f00888001e0178009e0190000068290030
:1039c00081c12400f6f3070018c0b30002f02f00f5
:1039d000f377240036f407000000e00001003c000b
:1039e0000044eb000804e00054003200f1088000bd
:1039f000f0fc2f00008060000040a000f00888006c
:103a00001e0178009e0190000068290081c12400f9
:103a1000e3f307000200200003102400e0f3070096
:103a200018c0b30002f02f00f377240020f4070041
:103a30000000e00001003c000044eb000804e0004e
:103a400032003200f1088000f0fc2f00008060009e
:103a50000050a000f00888001e0178009e01900030
:103a60000068290081c12400cdf307000200200076
:103a700003282400caf3070018c0b30002f02f0087
:103a8000f37724000af407000000e00001003c0086
:103a90000044eb000804e00010003200f108800050
:103aa0000003200001007000f00888001e0178006b
:103ab0009e0190000068290081c12400b8f307002e
:103ac0000200200003382400b5f30700faf30700d2
:103ad0000000780010088800200037001e017800e0
:103ae0009e0190000068290081c12400acf307000a
:103af0000200200003282400a9f30700eef30700ca
:103b00000000780010088800140037001e017800bb
:103b10009e0190000068290081c12400a0f30700e5
:103b200002002000031024009df30700e2f30700c9
:103b30000000780010088800080037001e01780097
:103b40009e0190000068290081c1240094f30700c1
:103b5000d9f3070000007800100888004f047800af
:103b60000080fa00000006000400fa00881f7800b8
:103b7000008fbe0018c0b3006011b8001e007800ae
:103b80009e009000caf307000000e00001003d0025
:103b90000044eb000804e000030032001e0078003f
:103ba0009e009000030037001e0078009e009000e9
:103bb00001f0a2004f0478000080fa000000060027
:103bc0000800fa00881f7800008fbe0022079800c6
:103bd0003307980018c0b3002e019000be0190007a
:103be0001e0078009e009000b1f307000000e00086
:103bf00001003c000044eb000804e0000300320038
:103c00001e0078009e009000020037002e009000f9
:103c1000be0090004f0478000080fa00000006000b
:103c20000800fa00881f7800008fbe002207980065
:103c30003307980018c0b3002e019000be01900019
:103c40001e0078009e00900097f307000000e0003f
:103c5000010035000044eb000804e00003003200de
:103c60001e0078009e009000020037002e00900099
:103c7000be0090004f0478000080fa0000000600ab
:103c80000c00fa00881f7800008fbe002207980001
:103c900033079800440798005507980018c0b300f0
:103ca0002e019000be0190001e0078009e00900042
:103cb0007df307000000e000010035000044eb0048
:103cc0000804e000030032002e009000be009000c7
:103cd0001000370018c0b3004e019000de019000c4
:103ce0001e0078009e00900071f307000000e000c5
:103cf00001003c000044eb000804e0000300320037
:103d00004e009000de009000020037001e00780098
:103d10009e0090004f0478000080fa00000006002a
:103d20000800fa002007980031079800b2fd200033
:103d3000930424002e009000be009000b8f207000b
:103d4000b2fd2000930c24009cf30700b2fd20007c
:103d500093042400b3f20700008fbe00b2fd2000e0
:103d6000930424001e0078009e009000adf207002e
:103d7000b2fd2000930c240090f30700b2fd200058
:103d800093042400a6f207000080fa000000060059
:103d90000a00fa003007980041079800be00900022
:103da0004e009000008f40001e0078001001780047
:103db0009001900012079800230798001e009000c1
:103dc000ae0090000080fa00000006000600fa0035
:103dd00010079800210798009e0090002e00900088
:103de000008f40001e0078009000900010007800c6
:103df0000080fa00000006000c00fa00200798007e
:103e00003107980042079800530798006800470060
:103e1000100798000000eb00000f78000a00370040
:103e20003e0090001e004000ae0090000080400068
:103e30009e0078001e0190008100410091407800b2
:103e4000014878001e0fe8001e007800e30f5000c4
:103e5000f3ff34000080fa00000006000c00fa00b6
:103e600020079800310798004207980053079800f0
:103e700068004700100798000000eb00000f780072
:103e80000b0037003e0090001e004000ae00900086
:103e900000804000320020009e0051001e01900072
:103ea0008100410091407800014878001e0fe80031
:103eb0001e007800e30f5000f2ff34000080fa008b
:103ec000000006000c00fa00200798003107980057
:103ed00042079800530798006800470010079800b1
:103ee0000000eb00000f78000a0037003e00900051
:103ef0001e004000ae009000008040009e00780050
:103f00001e01900081004100914078000148780036
:103f10001e0fe8001e007800e70f5000f3ff34008a
:103f20000080fa00000006000400fa00008fbe00c6
:103f3000b2fd2000930424001e0078009e00900033
:103f400097f207000200200043332400bff307006c
:103f50000080fa00000006000400fa00008fbe0096
:103f6000b2fd2000930424001e0078009e00900003
:103f7000b6f30700020020004333240088f2070054
:103f80000080fa00000006000600fa001007980002
:103f9000210798000040eb00004f78005400070014
:103fa000ae009000810f5000110034000040eb0083
:103fb000004f7800060037001e80fb009e00900036
:103fc00000804000104078000b0007001e4fe80002
:103fd0009e80fb002e009000808f5000f6ff350081
:103fe0002e0007000004e00001003a002200070054
:103ff0000080fa00000006000200fa00004f78007e
:1040000030838000a1072100008040001e48780016
:10401000308380000000e800308388003183800016
:10402000f03f2000808f5000010034006630ef0028
:104030000080fa00000006000200fa0040838000c1
:10404000a107210000804000104f780040838000cd
:104050000000e8004083880041838000f03f20009a
:10406000808f5000010034006830ef001e4078005f
:104070000080fa00000006000200fa0010c0b30041
:104080006af0b700ecff0700004f78001e80fb00cd
:10409000201188000080fa00000006000000fa00ed
:1040a0006ad0bf000080fa00000006000200fa009b
:1040b0003183800040838000808f500004003500f1
:1040c0003183800040838000008f5000050037005e
:1040d00031838000408380008080500000402000b9
:1040e000008f40001e0078000080fa0000000600eb
:1040f0000200fa00edff070001402000008f500091
:104100001e0078000080fa00000006000000fa009f
:1041100021e3a9002143a80001198000f0cf2f005e
:1041200000806000001988002043a9000119800068
:10413000000e200001007000001988001119800095
:10414000f0ff210000806000101988002343a800c0
:1041500011198000f0cf2f00008060001019880036
:104160001119800030f82f00008060000040a0008e
:10417000101988002203a9002223a90025e3a90021
:10418000f0c0b30024e3b70021198000f00f2e0027
:104190008080600000f0200001007000201988007d
:1041a0003303a9001e2ea8002e0ea8002f6ea80013
:1041b0004feea8006f2ea8003063a80030c3a800ff
:1041c0003163a80031e3a8002e03a8004119800044
:1041d00000fc2f00008060004019880028e3a9003f
:1041e00001a8a90021a8a80021e3a8000080fa00e6
:1041f000000006000000fa002023a8000080fa005a
:10420000000006000000fa0080a521000080fa00ee
:10421000000006000000fa0075d0bf000080fa0020
:10422000000006000000fa007570ef000080fa0040
:10423000000006000200fa00004f78002a00070084
:104240000000e0000c00340080838000a1472100c2
:10425000008040001e487800808380000000e80055
:104260008083880081838000f03f2000808f500091
:10427000010034007030ef000080fa0000000600fa
:104280000200fa0090838000a147210000804000d6
:10429000104f7800908380000000e8009083880031
:1042a00091838000f03f2000808f50000100340097
:1042b0007230ef001e4078000080fa000000060017
:1042c0000000fa008183800090838000808f50007e
:1042d0000200320010c0b300010037000040eb00c4
:1042e0000080fa00000006000200fa000500070046
:1042f00001402000008f50001e0078000080fa006e
:10430000000006000200fa00818380009083800094
:10431000808f5000040035008183800090838000ee
:10432000008f50000500370091838000808380005b
:104330008080500000402000008f40001e00780068
:104340000080fa00000006000000fa002002a90028
:104350000111800090ff2f00008060000011880094
:1043600020a2a9002062a80050052000401188006a
:1043700023a2a90023e2a9000188a9002188a8009e
:1043800011118000f0f32f000080600010118800f0
:104390000168a9002168a80021428000f0ff2800e0
:1043a000808060000000250001007000204288002d
:1043b0003142800080ff2f00008060005000b30079
:1043c0003042880021e2a8002342a8000080fa00c1
:1043d000000006000600fa00100798002107980068
:1043e0000040eb00004f78000040eb00004f7800e9
:1043f0000e00370000000000111180000020200096
:10440000008060000000e000fbff3a001e0090000a
:10441000104078000080fb00201188001e009000f2
:104420000000e800100798001e4fe8009e80fb0087
:104430002e009000808f5000eeff35000080fa00c3
:044440000000060072
:020000040000fa
:104444005810000008000000800000007a180000e6
:10445400ee000000800000006c100000040000006a
:10446400820000000000200041000000581a0000f3
:104474000a00000080000000741000000200000028
:10448400800000007610000002000000820000009e
:104494000100000060100000060000008000000021
:1044a4007a10000000040000800000006610000084
:1044b40006000000800000007a14000000040000e0
:1044c4008000000070100000040000008000000064
:1044d4006819000080000000800000000010000047
:1044e40038000000800000003810000020000000a8
:1044f40080000000e8190000700000008000000047
:10450400781000000200000080000000000000009d
:020000040000fa
:104514000000fa000e2eef001e2eef002e2eef00ec
:104524003e2eef004e2eef005e2eef006e2eef00bb
:10453400214ea90060cea90060eea90011cea90009
:1045440011eea90020cea90020eea900213680009a
:1045540000f82f00008060008001b300203688003e
:104564001134800000fc2f00008060000000a000d7
:10457400103488000136800000f82f00808060002d
:10458400100620000100700000368800013680000b
:10459400f00f2800808060000000260001007000f9
:1045a40000368800e135800000f82f00808060002c
:1045b4006004200001007000e0358800e1358000cf
:1045c400f00f28008080600000502400010070007b
:1045d400e03588000080fa00000006000000fa00c0
:1045e400f0032000303a8800213a8000f0f32f00d5
:1045f40000806000203a8800213a800000fe2f00ed
:10460400008060000000a000203a88001200200012
:1046140080072000a109200033742000804978001d
:104624008149780082497800103a800000017800be
:104634000200a00060042000710520002374200003
:1046440080497800814978008249780000000000a0
:10465400113a8000000027008080600000002100e3
:10466400808f5000faff3a0000000000113a8000e9
:1046740000022000008060000000e000fbff320028
:084684000080fa0000000600ae
:020000040000fa
:02000004000af0
:04afe000cfff00009f
:020000040000fa
:02000004000af0
:04afe400ffff00006b
:020000040000fa
:02000004000af0
:04afe8007fff0000e7
:020000040000fa
:02000004000af0
:04afec005fff000003
:020000040000fa
:02000004000af0
:04aff00038ff000026
:020000040000fa
:02000004000af0
:04aff400ffff00005b
:00000001FF
